:100000000C946D030C9495030C9495030C94950338
:100010000C9495030C9495030C9495030C94950300
:100020000C9495030C9495030C9495030C949503F0
:100030000C9495030C94500D0C9495030C9495031B
:100040000C94AE0C0C9495030C941E0D0C94F80CAF
:100050000C9495030C9495030C9495030C949503C0
:100060000C9495030C94950307634236B79BD8A76D
:100070001A39685618AEBAAB558C1D3CB7CC5763CD
:10008000BD6DEDFD753EF6177231BF000000803F7B
:1000900008000000BE922449123EABAAAA2ABECD97
:1000A000CCCC4C3E00000080BEABAAAAAA3E000009
:1000B0000000BF000000803F000000000008417801
:1000C000D3BB4387D1133D190E3CC3BD4282AD2B38
:1000D0003E68EC8276BED98FE1A93E4C80EFFFBE30
:1000E00001C4FF7F3F000000000020494E48470048
:1000F000414354494F4E3A204D414E55414C4C5985
:100100002053455420505245535355524520544F87
:10011000200028432920616E647940627269746905
:10012000736869646561732E636F6D20323032319C
:100130000056657273696F6E20004D657263656469
:10014000657320563820444A657420454355205431
:10015000657374657200456E746572206E657720F4
:100160007468726F74746C65206469726563746915
:100170006F6E202855206F722044293A00293A00DA
:100180002D00456E746572206E6577206477656C0E
:100190006C20696E2064656772656573202800298C
:1001A0003A002D00456E746572206E657720746884
:1001B000726F74746C6520706F736974696F6E20F0
:1001C0002800293A002D00456E746572206E65770F
:1001D00020656E67696E6520737065656420696E61
:1001E0002052504D202800293A002D00456E74659C
:1001F00072206E6577206169722074656D70206968
:100200006E206465672046202800293A002D0045AD
:100210006E746572206E657720636F6F6C616E74AB
:100220002074656D7020696E206465672046202803
:1002300000456E7465722061206E756D6265722076
:10024000616E6420707265737320456E7465723AD6
:1002500000202031352E205365742070756C736535
:100260002067656E657261746F72206477656C6C6F
:1002700000202031342E20536574207468726F740E
:10028000746C6500202031332E2053657420656E18
:1002900067696E6520737065656400202031322EB9
:1002A00020536574206169722074656D7000202090
:1002B00031312E2053657420636F6F6C616E742032
:1002C00074656D7000437573746F6D697A653A007B
:1002D000202031302E204861726420616363656C98
:1002E00065726174696F6E00202020392E204D6F79
:1002F00064657261746520616363656C65726174C5
:10030000696F6E00202020382E2047656E746C6562
:1003100020616363656C65726174696F6E00202093
:1003200020372E204372756973652037304D504851
:1003300000202020362E20437275697365203330EB
:100340004D504800202020352E20486F74206964CD
:100350006C6500202020342E20436F6C642069647B
:100360006C6500202020332E204372616E6B696E15
:100370006700202020322E204F6666005072657381
:100380006574733A00202020312E2053686F772047
:1003900063757272656E742073657474696E6773C9
:1003A000004D41494E204D454E55006E6F00796518
:1003B00073002C2070756C736567656E6477656C6F
:1003C0006C3D002C206372616E6B696E673D002C82
:1003D00020656E6773706565643D00646563656C78
:1003E00000616363656C006E6F6E65002C2074683D
:1003F000726F74746C656469723D002C207468724D
:100400006F74746C65706F733D002C20636F6F6C3C
:10041000616E7474656D703D0053657474696E67C8
:10042000733A2061697274656D703D005468726F33
:1004300074746C6520706F736974696F6E20616E7F
:100440006420646972656374696F6E2073657400FB
:100450004552524F523A20456E746572656420765B
:10046000616C7565206973206F75747369646520AC
:100470006F6620616C6C6F7765642072616E676572
:100480000050756C736520616E676C6520666F72D5
:100490002070756C73652067656E657261746F722C
:1004A00020736574004552524F523A20456E746570
:1004B0007265642076616C7565206973206F757450
:1004C00073696465206F6620616C6C6F776564206A
:1004D00072616E676500456E67696E652073706551
:1004E000656420736574004552524F523A20456E40
:1004F00074657265642076616C7565206973206F20
:10050000757473696465206F6620616C6C6F7765C4
:10051000642072616E6765004169722074656D7058
:100520006572617475726520736574004552524F2F
:10053000523A20456E74657265642076616C75650B
:10054000206973206F757473696465206F6620611C
:100550006C6C6F7765642072616E676500436F6FC6
:100560006C616E742074656D70657261747572650E
:1005700020736574004552524F523A20456E74659F
:100580007265642076616C7565206973206F75747F
:1005900073696465206F6620616C6C6F7765642099
:1005A00072616E6765004552524F523A20496E762D
:1005B000616C696420696E70757400536574207491
:1005C0006F206861726420616363656C6572617439
:1005D000696F6E0053657420746F206D6F6465726F
:1005E00061746520616363656C65726174696F6EC7
:1005F0000053657420746F2067656E746C652061AC
:100600006363656C65726174696F6E005365742015
:10061000746F206372756973652061742037304D83
:1006200050480053657420746F2063727569736558
:100630002061742033304D50480053657420746F2E
:1006400020686F742069646C650053657420746F52
:1006500020636F6C642069646C650053657420745A
:100660006F206372616E6B696E6700456E67696EBD
:1006700065207475726E6564206F66660000000008
:1006800000230026002900000000080002010000ED
:100690000304070000000000000000000000002527
:1006A0000028002B0000000000240027002A00047E
:1006B0000404040404040402020202020203030309
:1006C0000303030102040810204080010204081003
:1006D0002001020408102000341111241FBECFEFA6
:1006E000D8E0DEBFCDBF12E0A0E0B1E0E8EAFEE274
:1006F00002C005900D92AE35B107D9F723E0AEE503
:10070000B2E001C01D92AD35B207E1F713E0CDE6CE
:10071000D3E004C02197FE010E94F911CC36D10725
:10072000C9F70E94770D0C9452170C94000090E0CA
:10073000FC01ED53F94F24918155994FFC018491AF
:10074000882399F090E0880F991FFC01EB55F94F31
:10075000A591B491FC01E556F94F859194918FB71D
:10076000F894EC91E22BEC938FBF0895833081F0E5
:1007700028F4813099F08230A9F008958730A9F0EB
:100780008830C9F08430B1F4809180008F7D03C03F
:10079000809180008F7780938000089584B58F7753
:1007A00084BD089584B58F7DFBCF8091B0008F7795
:1007B0008093B00008958091B0008F7DF9CF1F9392
:1007C000CF93DF93282F30E0F901E957F94F849157
:1007D000F901ED53F94FD491F901E155F94FC49165
:1007E000CC23A9F0162F81110E94B603EC2FF0E064
:1007F000EE0FFF1FE556F94FA591B4918FB7F8940E
:10080000EC91111108C0D095DE23DC938FBFDF91EE
:10081000CF911F910895DE2BF8CFEF92FF920F93A7
:100820001F93CF93DF93EC017B018A018D819E8121
:1008300001969E838D83019781F48CB58F7D8CBD4D
:100840008CB5837F8CBD8CB583608CBD8DB58E7F60
:100850008DBD60E088810E94DF0384E0EE0CFF1C08
:100860008A95E1F76894E1F8A80151705E295EBDB0
:1008700000000DB407FEFDCF11E00EB401FC14C062
:1008800010E08D819E8101979E838D83892B21F4B9
:1008900061E088810E94DF03812FDF91CF911F915A
:1008A0000F91FF90EF9008954EBD00000DB407FE2C
:1008B000FDCF8EB5E6CFCF92DF92EF92FF92E0911F
:1008C0007E02F0917F02EE0FFF1FEE0FFF1FE25A34
:1008D000FD4F0190F081E02DE830F10568F4ED580E
:1008E000FB4F0C94F9117B04C904CB04CD04CF0455
:1008F000D104D304D504299A80917E0290917F027D
:1009000001968830910509F452C090937F0280933C
:100910007E02E0917E02F0917F02EE0FFF1FEE0F4C
:10092000FF1FE25AFD4F22813381A0EAB0E00E940E
:10093000FF116B017C0124E130E040E050E00E94B7
:10094000D7112115310581E048075105A8F581E04F
:1009500080938A02309389022093880280918802D2
:1009600090918902909387008093860080918A02FB
:100970008061809381008BE594E0909301018093E6
:10098000000181E080936F00FF90EF90DF90CF90A7
:1009900008952998B1CF5E9AAFCF5E98ADCF5D9A9A
:1009A000ABCF5D98A9CF5B9AA7CF5B98A5CF1092EC
:1009B0007F0210927E02ADCF82E080938A02C7014F
:1009C000B60120EA30E040E050E00E94D711C2CFEB
:1009D0000895AF92BF92CF92DF92EF92FF920F9362
:1009E0001F93CF93DF936C017B018B01040F151FC5
:1009F000EB015E01AE18BF08C017D10759F069912D
:100A0000D601ED91FC910190F081E02DC601099590
:100A1000892B79F7C501DF91CF911F910F91FF903D
:100A2000EF90DF90CF90BF90AF900895FC01538D71
:100A3000448D252F30E0842F90E0821B930B5417B8
:100A400010F0CF96089501970895FC01918D828D45
:100A5000981761F0A28DAE0FBF2FB11D5D968C91DE
:100A6000928D9F5F9F73928F90E008958FEF9FEF1D
:100A70000895FC01918D828D981731F0828DE80FD9
:100A8000F11D858D90E008958FEF9FEF0895FC0193
:100A9000918D228D892F90E0805C9F4F821B910960
:100AA0008F73992708958CEB92E00E94470521E00F
:100AB000892B09F420E0822F089580E090E0892BB3
:100AC00029F00E94530581110C9400000895FC0147
:100AD000A48DA80FB92FB11DA35ABF4F2C91848D9F
:100AE00090E001968F739927848FA689B7892C93FC
:100AF000A089B1898C91837080648C93938D848D4F
:100B0000981306C00288F389E02D80818F7D808351
:100B10000895EF92FF920F931F93CF93DF93EC0111
:100B200081E0888F9B8D8C8D98131AC0E889F98994
:100B3000808185FF15C09FB7F894EE89FF89608397
:100B4000E889F98980818370806480839FBF81E018
:100B500090E0DF91CF911F910F91FF90EF9008955A
:100B6000F62E0B8D10E00F5F1F4F0F731127E02E35
:100B70008C8D8E110CC00FB607FCFACFE889F9896D
:100B8000808185FFF5CFCE010E946705F1CFEB8D07
:100B9000EC0FFD2FF11DE35AFF4FF0829FB7F89441
:100BA0000B8FEA89FB8980818062CFCF0F931F93DF
:100BB000CF93DF938C01D0E0C0E0F801EC0FFD1F74
:100BC0006491662341F08CEB92E00E948905892BA9
:100BD00011F02196F2CFCE01DF91CF911F910F91AD
:100BE0000895CF93DF93EC01888D8823B9F0AA890B
:100BF000BB89E889F9898C9185FD03C0808186FDD8
:100C00000DC00FB607FCF7CF8C9185FFF2CF808126
:100C100085FFEDCFCE010E946705E9CFDF91CF912F
:100C20000895CF93CFB7F89480918702811124C0A3
:100C3000E9EBF6E08491EDECF6E09491E82FF0E03A
:100C4000EE0FFF1FEB55F94FA591B491EC91E923FD
:100C500021F461E08AE00E94DF038AE00E949703AA
:100C60008CB580618CBD8CB580648CBD8DE00E949C
:100C700097038BE00E949703809187028F5F809398
:100C80008702CFBFCF9108950F931F93CF93DF9328
:100C9000EC018B019093860280938502709384020D
:100CA00060938302039734F461E08EE00E94DF03D7
:100CB00060E008C060E08EE00E94DF0361E0CA35BA
:100CC000D105B4F388E00E94DF030230110509F476
:100CD00048C08AE08C9F90018D9F300D1124293EE1
:100CE00083E0380714F028EE33E037FF02C030E02D
:100CF00020E0E8E0F1E0D0E0C0E04081518124173D
:100D000035072CF1428153814217530704F183E0E8
:100D1000CC0FDD1F8A95E1F7FE01E85FFE4F84816D
:100D2000958161E0019709F060E080E10E94DF03B6
:100D3000C85FDE4F8E819F8161E0019709F060E01E
:100D40008FE0DF91CF911F910F910C94DF032196DB
:100D50003896C832D10589F6DF91CF911F910F9156
:100D6000089560E080E10E94DF03E9CF4F925F9237
:100D70006F927F928F929F92AF92BF92CF92DF92AB
:100D8000EF92FF92CF93DF93CDB7DEB764970FB6A4
:100D9000F894DEBF0FBECDBF20E1209381002998DB
:100DA0005E985D985B989093AE028093AD021816A2
:100DB00019060CF0D9C1BC01072E000C880B990B49
:100DC0000E94781320E030E040E752E40E94941241
:100DD00020E030E040E05FE30E94C5149B01AC01DD
:100DE00060E070E080E89FE30E94941220E030E031
:100DF0004AE754E40E94C5146B017C01609197029C
:100E000070919802072E000C880B990B0E947813A2
:100E10009B01AC010E94231220E030E044E354E443
:100E20000E949412A70196010E94C5142B013C0157
:100E300020E030E040E85EE3C701B6010E94C5143F
:100E400069877A878B879C8720E030E040E05FE30A
:100E5000C701B6010E94C5146D877E878F87988B66
:100E600020E030E040E45FE3C701B6010E94C51412
:100E7000698B7A8B8B8B9C8B20E030E0A901C301BE
:100E8000B2010E94231269837A838B839C839B0126
:100E9000AC01C701B6010E948F1287FF0CC0A701E9
:100EA000960169817A818B819C810E9422126983DB
:100EB0007A838B839C8329853A854B855C85C30126
:100EC000B2010E9423126D837E838F8398879B01DA
:100ED000AC01C701B6010E948F1287FF0CC0A701A9
:100EE00096016D817E818F8198850E9422126D838B
:100EF0007E838F8398872D853E854F855889C301D2
:100F0000B2010E9423124B015C01AC019B01C7019D
:100F1000B6010E948F1287FF08C0A7019601C50184
:100F2000B4010E9422124B015C0129893A894B8944
:100F30005C89C301B2010E9423122B013C01AC0168
:100F40009B01C701B6010E948F1287FF08C0A7014D
:100F50009601C301B2010E9422122B013C011092A2
:100F60005F0210925E02A5019401C701B6010E94C2
:100F7000221220E030E04AE754E40E94C5140E94A7
:100F800040136B01709361026093600287E090E010
:100F9000909363028093620220E030E04AE754E4D9
:100FA000C301B2010E94C5140E94401370936502F0
:100FB0006093640282E090E09093670280936602FF
:100FC000A301920169857A858B859C850E942212F6
:100FD00020E030E04AE754E40E94C5140E94401328
:100FE000709369026093680281E090E090936B02D5
:100FF00080936A0229853A854B855C8569817A816F
:101000008B819C810E94221220E030E04AE754E468
:101010000E94C5140E94401370936D0260936C028D
:1010200084E090E090936F0280936E0229813A8170
:101030004B815C816D857E858F8598890E94221207
:1010400020E030E04AE754E40E94C5140E944013B7
:10105000709371026093700283E090E0909373024A
:10106000809372022D853E854F8558896D817E81E2
:101070008F8198850E94221220E030E04AE754E4F4
:101080000E94C5140E94401370937502609374020D
:1010900086E090E090937702809376022D813E81E6
:1010A0004F81588569897A898B899C890E9422128F
:1010B00020E030E04AE754E40E94C5140E94401347
:1010C000709379026093780285E090E090937B02C0
:1010D00080937A0229893A894B895C89C501B401D8
:1010E0000E94221220E030E04AE754E40E94C51436
:1010F0000E94401370937D0260937C0210927F02E5
:1011000010927E029601A0EAB0E00E94FF116B01EE
:101110007C0124E130E040E050E00E94D71121152D
:10112000310581E048075105A0F581E080938A02EE
:1011300030938902209388028091880290918902DD
:10114000909387008093860080918A0280618093CB
:10115000810010928100109285001092840080918D
:101160008A0280618093810064960FB6F894DEBF96
:101170000FBECDBFDF91CF91FF90EF90DF90CF906A
:10118000BF90AF909F908F907F906F905F904F90A7
:10119000089582E080938A02C701B60120EA30E018
:1011A00040E050E00E94D711C3CF8F929F92AF9240
:1011B000BF920F931F93CF93DF93CDB7DEB7A19765
:1011C0000FB6F894DEBF0FBECDBF19A2423008F4AF
:1011D0004AE08E010F5D1F4F842E912CB12CA12C63
:1011E000A50194010E94D711E62FB901CA01EA3086
:1011F00044F5E05DD801EE938D01232B242B252BA4
:1012000079F790E080E0109769F0FD0101900020EF
:10121000E9F73197AF014A1B5B0BBD018CEB92E004
:101220000E94E904A1960FB6F894DEBF0FBECDBFB1
:10123000DF91CF911F910F91BF90AF909F908F90B2
:101240000895E95CD7CF42E050E06AE572E08CEBAC
:1012500092E00C94E904CF93DF930E94D605EC0151
:101260000E9423098C0F9D1FDF91CF910895CF928B
:10127000DF92EF92FF92CF93DF936C01990FEE080C
:10128000FF08F7FE19C06DE28CEB92E00E94890521
:10129000EC0166277727CB016C197D098E099F0920
:1012A0004AE00E94D5088C0F9D1FDF91CF91FF90DF
:1012B000EF90DF90CF9008954AE0C701B601DF912B
:1012C000CF91FF90EF90DF90CF900C94D5087F9254
:1012D0008F929F92AF92BF92CF92DF92EF92FF9246
:1012E0000F931F93CF93DF930E9423090091AD02C8
:1012F0001091AE02C0909B02D0909C02E0908502BB
:10130000F09086028090830290908402A0909902CF
:10131000B0909A0270908002C0919702D09198028A
:1013200089E194E00E94D605C5010E9437098AE050
:1013300094E00E94D605C6010E9437098BEF93E026
:101340000E94D605C7010E9437098CEE93E00E94E7
:10135000D60581E08816910489F182E0881691040F
:1013600081F187EE93E00E94D6058FEC93E00E9416
:10137000D605C8010E94370983EC93E00E94D60588
:101380008BEA93E0772011F08EEA93E00E94D60575
:1013900082EB93E00E94D605CE010E943709DF91CF
:1013A000CF911F910F91FF90EF90DF90CF90BF9062
:1013B000AF909F908F907F900C94230981EE93E0E3
:1013C000D2CF8BED93E0CFCF80919F029091A0027E
:1013D0008D30910509F48CC04CF48B30910509F4E3
:1013E00060C00CF072C0892B61F008958F309105B8
:1013F00009F4A4C00CF48FC08436910509F4B1C07F
:1014000008950E94230981EA93E00E942B0985E850
:1014100093E00E942B098CE793E00E942B0982E75E
:1014200093E00E942B0983E693E00E942B0983E559
:1014300093E00E942B0984E493E00E942B0981E34E
:1014400093E00E942B098EE193E00E942B0984E037
:1014500093E00E942B0988EE92E00E942B0980ED18
:1014600092E00E942B0985EC92E00E942B098EEA03
:1014700092E00E942B098BE992E00E942B0984E8FC
:1014800092E00E942B0981E792E00E942B0981E5FE
:1014900092E00E942B090E94230981E392E00C94C0
:1014A0002B098FE092E00E94D60587E290E00E942F
:1014B00037098DE092E00E94D60581EC90E00E9411
:1014C00037098AE092E00C94D6058CEE91E00E94F8
:1014D000D60590E080E00E9437098AEE91E00E94F4
:1014E000D6058DE490E00E94370987EE91E0EBCFBE
:1014F00087EC91E00E94D60584EF91E00E943709C5
:1015000085EC91E00E94D60584E699E10E943709B6
:1015100082EC91E0D8CF84EA91E00E94D60590E079
:1015200080E00E94370982EA91E00E94D60584E6B5
:1015300090E00E9437098FE991E0C5CF82E891E001
:101540000E94D60588E790E00E94370980E891E084
:101550000E94D6058FEA90E00E9437098DE791E05E
:10156000B2CF86E591E0AFCF8AE391E00E942B09EC
:1015700081E391E00E94D60581E090E00E94370966
:101580000E94230982E191E00E942B090C94230917
:101590004F925F926F927F928F929F92AF92BF9283
:1015A000CF92DF92EF92FF9290939C0280939B02E6
:1015B0009C012052310945E0429FC001439F900D9C
:1015C000112469E070E00E94C311072E000C880B03
:1015D000990B0E94781323E333E948E853E40E940F
:1015E00023129B01AC0160E070E080E89FE30E9461
:1015F00094129B01AC0169EE7EE98AEA9AE30E94AB
:10160000221221EE31EC49E354E30E9494126B0163
:101610007C01AC019B010E94C51420E030E040E851
:101620005EE30E94C51421E23EE44CEE5CE40E94BD
:1016300023120E9488154B015C0120E030E040E05D
:101640005FE3C701B6010E94C5146B017C01AC01C8
:101650009B01C501B4010E9422122BEA3AEA4AEA30
:101660005EE30E9432152B013C01A7019601C501E2
:10167000B4010E9423122BEA3AEA4AEA5EE30E948E
:1016800032159B01AC01C301B2010E9422120E94DB
:101690000E130E944013683782E1780714F067E761
:1016A00072E16F30710514F46FE070E0695E7109EA
:1016B000072E000C880B990B0E94781320918B0247
:1016C00030918C0240918D0250918E020E949412B2
:1016D0000E94401377FF02C070E060E080919302A7
:1016E000909194026F3F710519F014F06FEF70E064
:1016F000FC0123813481AB012617370708F4A901C7
:10170000FC0161817281FF90EF90DF90CF90BF90DC
:10171000AF909F908F907F906F905F904F900C94C0
:101720000D04AF92BF92CF92DF92EF920F931F936F
:10173000CF93DF93EB016A0159010E94B6068091B5
:101740009B0290919C02C817D90719F0CE010E9404
:10175000C80AB501C6010E9444060F3F100759F0A0
:1017600080EF90E00E94D605C8010E9437098AEEFA
:1017700090E00E942B091093820200938102E09274
:10178000800261E0E11001C060E087E0DF91CF916D
:101790001F910F91EF90DF90CF90BF90AF900C947E
:1017A000DF03EF920F931F93E12C0FEF1FEF30E059
:1017B00020E050E040E068E470E090E080E00E94CB
:1017C000910B1F910F91EF9008954F925F926F923E
:1017D0007F928F929F92AF92BF92CF92DF92EF92C1
:1017E000FF9290939A02809399029C0120523109B2
:1017F00045E0429FC001439F900D112469E070E0D5
:101800000E94C311072E000C880B990B0E947813BD
:1018100023E333E948E853E40E9423129B01AC011F
:1018200060E070E080E89FE30E9494129B01AC01AD
:1018300060E075ED8CEE9AE30E9422122AE736E111
:1018400045E255E30E9494126B017C01AC019B01BF
:101850000E94C51420E030E040E85EE30E94C51419
:1018600028EE3BE44DE25AE40E9423120E948815C0
:101870004B015C0120E030E040E05FE3C701B601CE
:101880000E94C5146B017C01AC019B01C501B40130
:101890000E9422122BEA3AEA4AEA5EE30E943215DB
:1018A0002B013C01A7019601C501B4010E9423123E
:1018B0002BEA3AEA4AEA5EE30E9432159B01AC0148
:1018C000C301B2010E9422120E940E130E94401313
:1018D000693782E1780714F068E772E160317105D9
:1018E00014F460E170E0685E7109072E000C880B4B
:1018F000990B0E94781320918F02309190024091B1
:101900009102509192020E9494120E94401377FF1C
:1019100002C070E060E080919502909196026F3F66
:10192000710519F014F06FEF70E0FC012381348130
:10193000AB012617370708F4A901FC016181728108
:10194000FF90EF90DF90CF90BF90AF909F908F90DF
:101950007F906F905F904F900C940D041F920F92A8
:101960000FB60F9211242F933F938F939F93AF93B2
:10197000BF938091B8029091B902A091BA02B09140
:10198000BB023091B70223E0230F2D3758F50196A3
:10199000A11DB11D2093B7028093B8029093B902A4
:1019A000A093BA02B093BB028091B3029091B402AB
:1019B000A091B502B091B6020196A11DB11D809310
:1019C000B3029093B402A093B502B093B602BF9154
:1019D000AF919F918F913F912F910F900FBE0F90DC
:1019E0001F90189526E8230F0296A11DB11DD2CF96
:1019F0001F920F920FB60F9211242F933F934F9384
:101A00005F936F937F938F939F93AF93BF93EF9366
:101A1000FF938CEB92E00E946705FF91EF91BF91DD
:101A2000AF919F918F917F916F915F914F913F9176
:101A30002F910F900FBE0F901F9018951F920F922D
:101A40000FB60F9211242F938F939F93EF93FF93D1
:101A5000E091CC02F091CD028081E091D202F09130
:101A6000D30282FD1BC090818091D5028F5F8F735E
:101A70002091D602821741F0E091D502F0E0E454C3
:101A8000FD4F958F8093D502FF91EF919F918F919C
:101A90002F910F900FBE0F901F9018958081F4CF5B
:101AA0001F920F920FB60F9211242F933F934F93D3
:101AB0005F936F937F938F939F93AF93BF93EF93B6
:101AC000FF93E0910001F09101010995FF91EF91E1
:101AD000BF91AF919F918F917F916F915F914F9146
:101AE0003F912F910F900FBE0F901F9018957894F3
:101AF00084B5826084BD84B5816084BD85B5826013
:101B000085BD85B5816085BD80916E0081608093C3
:101B10006E0010928100809181008260809381002C
:101B2000809181008160809381008091800081603C
:101B3000809380008091B10084608093B100809197
:101B4000B00081608093B00080917A0084608093BF
:101B50007A0080917A00826080937A0080917A0086
:101B6000816080937A0080917A00806880937A0007
:101B70001092C100E091CC02F091CD0282E080830E
:101B8000E091CC02F091CD021082E091C802F09178
:101B9000C9021082E091CA02F091CB0210E11083D9
:101BA0001092D402E091D002F091D10286E08083BD
:101BB000E091CE02F091CF02808180618083E0913C
:101BC000CE02F091CF02808188608083E091CE02C6
:101BD000F091CF02808180688083E091CE02F09105
:101BE000CF0280818F7D80838CEB92E00E94F10593
:101BF0000E94B40A1092A00210929F020E94E4096F
:101C000081E10E94970361E081E10E94DF0387E0A8
:101C10000E94970360E087E00E94DF03219A2998E1
:101C2000569A5E98559A5D98539A5B9888E00E9400
:101C3000970360E088E00E94DF038EE00E94970334
:101C400060E08EE00E94DF0380E10E94970360E085
:101C500080E10E94DF038FE00E94970360E08FE045
:101C60000E94DF0384E00E94970360E084E00E940A
:101C7000DF0382E00E94970360E082E00E94DF03BE
:101C800083E10E94970361E083E10E94DF0382E128
:101C90000E94970361E082E10E94DF0387E090E009
:101CA0000E942D16EC0183E188831A821982C12CCF
:101CB000DD24D394DC82CB821E821D820E94110619
:101CC00088810E94970361E088810E94DF03D0939E
:101CD0009602C093950287E090E00E942D16EC01D9
:101CE00082E188831A821982DC82CB821E821D8265
:101CF0000E94110688810E94970361E088810E94FA
:101D0000DF03D0939402C093930280E090E4A3E9B0
:101D1000B1E480938F0290939002A0939102B093CC
:101D2000920280938B0290938C02A0938D02B093C9
:101D30008E02109381001092800081E080938A02CD
:101D400010928902109288021092870010928600E9
:101D500091E1909381002BE534E0309301012093D1
:101D6000000180936F001093810087E890E09093CA
:101D70009802809397020E94D10B809199029091D2
:101D80009A028834910521F088E490E00E94E50BE6
:101D90002FB7F8948091B8029091B902A091BA023D
:101DA000B091BB022FBF88519C4FAF4FBF4F809364
:101DB000AF029093B002A093B102B093B20234ED9F
:101DC000232E36E0332E4FEAC42ED12C58E7A52E11
:101DD000B12C64E6862E912C90EC492E96E0592E7B
:101DE00020E0622E20E0722E8CEB92E00E943905FA
:101DF000019619F18CEB92E00E9425058C01682F69
:101E00008CEB92E00E9489050A301105B1F0C09177
:101E1000AB02D091AC0200331105D4F1CE01019692
:101E20009093AC028093AB02CF55DD4F08830997A6
:101E300021F41092AC021092AB028091AF0290910B
:101E4000B002A091B102B091B2022FB7F8944091C4
:101E5000B8025091B9026091BA027091BB022FBFD3
:101E6000481759076A077B0708F4AEC1481B590B8E
:101E70006A0B7B0B77FFAEC16114710409F4B4CF18
:101E80000E945305882309F4A7CF0E940000A4CF25
:101E90000830110549F41C161D067CF62197D093D5
:101EA000AC02C093AB02C9CF8CEB92E00E94F1056B
:101EB000CF55DD4F18821092AC021092AB022091E8
:101EC000A102211107C00E94B40A1092A002109230
:101ED0009F02B2C080919F029091A002009709F0EA
:101EE000B3C081EA92E00E946111FC013197EF30AA
:101EF000F10508F0A4C0E158F04F0C94F911940FCB
:101F00008E0F970FA80FB80FC80FD80FE80FF80F54
:101F10000810181018101810181018100E94D10B63
:101F20008BE696E00E942B090E946709CECFEE2433
:101F3000E3940FEF1FEF30E020E050E040E068E472
:101F400070E090E080E00E94910B8BE596E0EACF94
:101F5000E12C0FE010E030E020E050E040E068E4E9
:101F600070E080EB94E00E94910B8AE496E0DACF77
:101F7000E12C0FE010E030E020E050E040E069EBC1
:101F800070E08CEB92E00E94910B8AE396E0CACF5E
:101F9000E12C0BE010E021E030E04AEA50E069EB90
:101FA00070E088E795E00E94910B83E296E0BACF5B
:101FB000E12C0BE010E021E030E04AEF50E069EB6B
:101FC00070E088EB9BE00E94910B8CE096E0AACF3A
:101FD000E12C09E010E021E030E04CE251E069EB57
:101FE00070E088E097E00E94910B81EF95E09ACF36
:101FF000E12C07E010E021E030E044EF51E069EB34
:1020000070E08CEA9DE00E94910B84ED95E08ACF10
:10201000E12C02E010E021E030E046EB53E069EB18
:1020200070E080E797E10E94910B8BEB95E07ACF0F
:102030009093A00280939F020E94E409FECE86EA5C
:1020400095E00E942B09F8CF8D30910509F45DC011
:10205000ACF48B30910561F10C9709F0EECE81EA7A
:1020600092E00E947F116E34710508F441C00E9415
:1020700023090E9423098CE295E02AC08F30910544
:1020800009F45AC00CF489C08436910509F0D5CE04
:102090002F7D62E070E0253511F461E070E0809101
:1020A0009D0290919E020E9444068CE294E03ACFF9
:1020B00081EA92E00E947F119B01275231092B395E
:1020C000310548F00E9423090E94230985E795E025
:1020D0000E942B09FACE20919B0230919C02261778
:1020E000370719F0CB010E94C80A8DE595E01ACF99
:1020F0002091990230919A022617370719F0CB01E7
:102100000E94E50B88E195E00DCF81EA92E00E9404
:102110007F119B01245F31402137374138F00E9405
:1021200023090E94230987EE94E0D2CFCB010E94BD
:10213000B60686ED94E0F6CE81EA92E00E947F1129
:102140009B01285731092833310538F00E942309B3
:102150000E94230985EA94E0BBCF68377105C4F07B
:1021600070939802609397028091970290919802E1
:10217000803B910524F0D0929802C0929702809102
:10218000AD029091AE020E94B60681E894E0CACEFC
:10219000B0929802A0929702E7CF81EA92E00E9463
:1021A0007F1170939E0260939D026536710538F031
:1021B0000E9423090E94230980E594E089CF909230
:1021C000A00280929F0238CF841B950BA60BB70B01
:1021D000B7FF52CEE8E9F6E08491F101C491F20133
:1021E000D491DD2379F081110E94B603ED2FF0E048
:1021F000EE0FFF1FE358F94FA591B4918C91C823BE
:1022000060E009F461E081E10E94DF038091AD02AA
:102210009091AE022FB718161906BCF4F89480916D
:10222000B8029091B902A091BA02B091BB022FBF3F
:1022300086509F4FAF4FBF4F8093AF029093B00235
:10224000A093B102B093B20217CEF8948091B80275
:102250009091B902A091BA02B091BB022FBF8851F0
:102260009C4FAF4FBF4FE8CFECEBF2E013821282EE
:1022700088EE93E0A0E0B0E084839583A683B783E3
:102280008CE492E09183808385EC90E0958784874D
:1022900084EC90E09787868780EC90E0918B808B30
:1022A00081EC90E0938B828B82EC90E0958B848B19
:1022B00086EC90E0978B868B118E128E138E148E87
:1022C0000895FC0188279927E89421912032E9F3A9
:1022D000293010F02E30C8F32B3241F02D3239F472
:1022E000689404C00E94BB11820F911D219120535C
:1022F0002A30C0F31EF4909581959F4F08951F9347
:10230000FC0199278827BC01E89411911032E9F368
:10231000193010F01E30C8F31B3251F01D3249F451
:10232000689406C00E94A611610F711D811D911D48
:10233000119110531A30B0F33EF49095809570953A
:1023400061957F4F8F4F9F4F1F910895592F482FB1
:10235000372F262F660F771F881F991F660F771F4D
:10236000881F991F620F731F841F951F660F771FA9
:10237000881F991F08957AE0979F902D879F802D41
:10238000910D1124089597FB072E16F4009407D0A1
:1023900077FD09D00E940E1207FC05D03EF49095FF
:1023A00081959F4F0895709561957F4F0895A1E2A3
:1023B0001A2EAA1BBB1BFD010DC0AA1FBB1FEE1FBF
:1023C000FF1FA217B307E407F50720F0A21BB30B0A
:1023D000E40BF50B661F771F881F991F1A9469F786
:1023E00060957095809590959B01AC01BD01CF01E2
:1023F0000895EE0FFF1F0590F491E02D0994A29F20
:10240000B001B39FC001A39F700D811D1124911DC8
:10241000B29F700D811D1124911D0895AA1BBB1B35
:1024200051E107C0AA1FBB1FA617B70710F0A61BD4
:10243000B70B881F991F5A95A9F780959095BC01F5
:10244000CD0108955058BB27AA270E943A120C9438
:1024500015140E94071438F00E940E1420F039F46D
:102460009F3F19F426F40C94DD130EF4E095E7FB7E
:102470000C94D713E92F0E94261458F3BA17620759
:1024800073078407950720F079F4A6F50C94481497
:102490000EF4E0950B2EBA2FA02D0B01B90190017F
:1024A0000C01CA01A0011124FF27591B99F0593FC3
:1024B00050F4503E68F11A16F040A22F232F342F0B
:1024C0004427585FF3CF469537952795A795F04059
:1024D0005395C9F77EF41F16BA0B620B730B840B6E
:1024E000BAF09150A1F0FF0FBB1F661F771F881F26
:1024F000C2F70EC0BA0F621F731F841F48F487957E
:1025000077956795B795F7959E3F08F0B0CF93956F
:10251000880F08F09927EE0F9795879508950E94E8
:10252000B31308F481E008950E94A8120C941514C6
:102530000E940E1458F00E94071440F029F45F3FE7
:1025400029F00C94D71351110C9449140C94DD13F9
:102550000E94261468F39923B1F3552391F3951B38
:10256000550BBB27AA2762177307840738F09F5FB4
:102570005F4F220F331F441FAA1FA9F335D00E2E21
:102580003AF0E0E832D091505040E695001CCAF78E
:102590002BD0FE2F29D0660F771F881FBB1F261751
:1025A00037074807AB07B0E809F0BB0B802DBF0128
:1025B000FF2793585F4F3AF09E3F510578F00C94F7
:1025C000D7130C9449145F3FE4F3983ED4F38695F7
:1025D00077956795B795F7959F5FC9F7880F911D18
:1025E0009695879597F90895E1E0660F771F881F04
:1025F000BB1F621773078407BA0720F0621B730BB7
:10260000840BBA0BEE1F88F7E095089529F416F0B5
:102610000C94D7130C9448140C94DD130E942E14C0
:10262000A8F39638A0F707F80F92E8942BE33AEA5C
:1026300048EB5FE70E94DB140F920F920F924DB7A9
:102640005EB70F920E949114E8E6F0E00E94E0135A
:102650004F915F91EF91FF91E595EE1FFF1F49F0BC
:10266000FE57E0684427EE0F441FFA95E1F74195C5
:10267000550B0E945B140F9007FE0C944F140895A5
:102680000E9447136894B1110C94491408950E9454
:102690002E1488F09F5798F0B92F9927B751B0F0B2
:1026A000E1F0660F771F881F991F1AF0BA95C9F7D6
:1026B00014C0B13091F00E944814B1E008950C9418
:1026C0004814672F782F8827B85F39F0B93FCCF3CB
:1026D000869577956795B395D9F73EF49095809553
:1026E000709561957F4F8F4F9F4F0895E89409C073
:1026F00097FB3EF490958095709561957F4F8F4F35
:102700009F4F9923A9F0F92F96E9BB279395F6954A
:10271000879577956795B795F111F8CFFAF4BB0FC8
:1027200011F460FF1BC06F5F7F4F8F4F9F4F16C02C
:10273000882311F096E911C0772321F09EE8872FB6
:10274000762F05C0662371F096E8862F70E060E072
:102750002AF09A95660F771F881FDAF7880F9695EB
:10276000879597F90895990F0008550FAA0BE0E88F
:10277000FEEF16161706E807F907C0F01216130643
:10278000E407F50798F0621B730B840B950B39F483
:102790000A2661F0232B242B252B21F408950A26E9
:1027A00009F4A140A6958FEF811D811D089597F929
:1027B0009F6780E870E060E008959FEF80EC0895E7
:1027C000DF93CF931F930F93FF92EF92DF927B01E2
:1027D0008C01689406C0DA2EEF010E94D814FE0125
:1027E000E894A5912591359145915591A6F3EF0176
:1027F0000E943A12FE019701A801DA9469F7DF906E
:10280000EF90FF900F911F91CF91DF9108950024D9
:102810000A941616170618060906089500240A9445
:1028200012161306140605060895092E0394000CCB
:1028300011F4882352F0BB0F40F4BF2B11F460FF5A
:1028400004C06F5F7F4F8F4F9F4F089557FD905883
:10285000440F551F59F05F3F71F04795880F97FB64
:10286000991F61F09F3F79F087950895121613061E
:102870001406551FF2CF4695F1DF08C0161617064D
:102880001806991FF1CF8695710561050894089582
:10289000E894BB2766277727CB0197F908959B011A
:1028A000AC0160E070E080E89FE30C9494120C941B
:1028B000D7130C94C8150E942E14D8F39923C9F38A
:1028C000940F511DA3F39150504094F059F0882378
:1028D00032F0660F771F881F91505040C1F79E3F1E
:1028E00051052CF7880F911D9695879597F90895B6
:1028F0005F3FACF0983E9CF0BB2786957795679537
:10290000B79508F4B1609395C1F7BB0F58F711F470
:1029100060FFE8CF6F5F7F4F8F4F9F4FE3CF0C94E7
:102920004914FA01DC01AA0FBB1F9B01AC01BF5780
:1029300028F4222733274427507820C0B75190F439
:10294000AB2F0024469537952795011CA395D2F30C
:10295000002071F0220F331F441FB395DAF30ED01D
:102960000C94221261307105A0E88A07B94630F450
:102970009B01AC016627772788279078309621F055
:10298000208331834283538308950E94D8140C948A
:1029900015140E94071438F00E940E1420F095239D
:1029A00011F00C94D7130C94DD1311240C944914DA
:1029B0000E94261470F3959FC1F3950F50E0551FA8
:1029C000629FF001729FBB27F00DB11D639FAA2784
:1029D000F00DB11DAA1F649F6627B00DA11D661FD3
:1029E000829F2227B00DA11D621F739FB00DA11DF4
:1029F000621F839FA00D611D221F749F3327A00DAE
:102A0000611D231F849F600D211D822F762F6A2F49
:102A100011249F5750409AF0F1F088234AF0EE0FAE
:102A2000FF1FBB1F661F771F881F91505040A9F7DB
:102A30009E3F510580F00C94D7130C9449145F3FCE
:102A4000E4F3983ED4F3869577956795B795F79517
:102A5000E7959F5FC1F7FE2B880F911D969587958F
:102A600097F90895FA01EE0FFF1F30962105310501
:102A7000A1F16115710561F48038BFE39B0749F14D
:102A800068949038810561F08038BFEF9B0741F072
:102A900099234AF5FF3FE1053105210519F1E89435
:102AA0000894E795D901AA2329F4AB2FBE2FF85F2C
:102AB000D0F310C0FF5F70F4A695E0F7F73950F03F
:102AC00019F0FF3A38F49F779F930DD00F9007FCD1
:102AD0009058089546F00C94DD1360E070E080E8B3
:102AE0009FE308954FE79F775F934F933F932F9313
:102AF0000E94E5152F913F914F915F910E94C5145F
:102B00000C940E1319F416F40C94DD130C94C815E0
:102B10000E942E14B8F39923C9F3B6F39F57550BAF
:102B200087FF0E94D6150024A0E640EA9001805855
:102B30005695979528F4805C660F771F881F20F0C4
:102B400026173707480730F4621B730B840B2029C4
:102B500031294A2BA69517940794202531254A2719
:102B600058F7660F771F881F20F02617370748078A
:102B700030F4620B730B840B200D311D411DA095A9
:102B800081F7B901842F9158880F969587950895FC
:102B90009F3F31F0915020F4879577956795B795D1
:102BA000880F911D9695879597F9089591505040FB
:102BB000660F771F881FD2F7089516F00C94C8157A
:102BC0000C94DD1368940C94D7130E942E14A8F370
:102BD0009923C1F3AEF3DF93CF931F930F93FF922B
:102BE000C92FDD2788232AF02197660F771F881FBA
:102BF000DAF720E030E040E85FEB9FE3883920F02F
:102C0000803E38F021968F770E942312E0E9F0E0B1
:102C100004C00E942312EDEBF0E00E94E0138B0150
:102C2000BE01EC01FB2E6F5771097595771F880B5C
:102C3000990B0E94781328E132E741E35FE30E9499
:102C4000D814AF2D9801AE01FF900F911F91CF9135
:102C5000DF910E943A120C9415140F931F93CF9397
:102C6000DF938230910510F482E090E0E0915B0305
:102C7000F0915C0330E020E0B0E0A0E0309799F400
:102C80002115310509F44AC0281B390B24303105C0
:102C9000D8F58A819B816115710589F1FB019383C8
:102CA0008283FE0111C04081518102811381481746
:102CB0005907E0F04817590799F4109761F01296F8
:102CC0000C93129713961C933296CF01DF91CF91FC
:102CD0001F910F91089500935B0310935C03F4CF51
:102CE0002115310551F04217530738F0A901DB01D6
:102CF0009A01BD01DF01F801C1CFEF01F9CF909337
:102D00005C0380935B03CDCFFE01E20FF31F819341
:102D100091932250310939832883D7CF20915903C9
:102D200030915A03232B41F4209104013091050185
:102D300030935A03209359032091020130910301EB
:102D40002115310541F42DB73EB740910601509150
:102D50000701241B350BE0915903F0915A03E21748
:102D6000F307A0F42E1B3F0B2817390778F0AC01AE
:102D70004E5F5F4F2417350748F04E0F5F1F50938B
:102D80005A0340935903819391939FCFF0E0E0E081
:102D90009CCFCF93DF930097E9F0FC013297138229
:102DA0001282A0915B03B0915C03ED0130E020E062
:102DB0001097A1F420813181820F931F2091590334
:102DC00030915A032817390709F061C0F0935A036C
:102DD000E0935903DF91CF910895EA01CE17DF0701
:102DE000E8F54A815B819E0141155105B1F7E90182
:102DF000FB83EA8349915991C40FD51FEC17FD0756
:102E000061F4808191810296840F951FE901998375
:102E10008883828193819B838A83F0E0E0E012962D
:102E20008D919C9113970097B9F52D913C91119735
:102E3000CD010296820F931F2091590330915A03BE
:102E40002817390739F6309751F510925C03109224
:102E50005B03B0935A03A0935903BCCFD383C283BF
:102E600040815181840F951FC817D90761F44E5FC7
:102E70005F4F88819981480F591F518340838A8110
:102E80009B81938382832115310509F0B0CFF093A4
:102E90005C03E0935B039ECFFD01DC01C0CF138296
:082EA0001282D7CFF894FFCF96
:102EA800E80400005D038000000017000000010036
:102EB80018002E00000000002F004500010000004F
:102EC80046005C00000000005D0073000000010087
:102ED80074008A00000000008B00A20001000000BE
:102EE800A300B90000000000BA00D00000000100F3
:102EF800D100E70000000000E800FE00010000002B
:102F0800FF0015010000000000012C010000010075
:102F18002D0143010000000044015A010100000096
:102F28005B017101000000007201880100000100CE
:102F380089019F0100000000A001B6010100000006
:102F4800B701CE0100000000CF01E501000001003B
:102F5800E601FC0100000000FD0113020100000071
:102F680014022A02000000002B02410200000100A6
:102F7800420258020000000059026F0201000000DE
:102F8800700286020000000087029D020000010016
:102F98009E02B40200000000B502CB02010000004E
:102FA800CC02E20200000000E302FA020000010085
:102FB800FB021103000000001203280301000000B7
:102FC80029033F03000000004003560300000100EE
:102FD80057036D03000000006E0384030100000026
:102FE8008503E80301000000000000008905E904EA
:0E2FF8001605F1054705250539050D0A0000EF
:00000001FF
