:100000000C9454030C947C030C947C030C947C039C
:100010000C947C030C947C030C947C030C947C0364
:100020000C947C030C947C030C947C030C947C0354
:100030000C947C030C94960D0C947C030C947C0320
:100040000C94F40C0C947C030C94640D0C943E0DF5
:100050000C947C030C947C030C947C030C947C0324
:100060000C947C030C947C0307634236B79BD8A79F
:100070001A39685618AEBAAB558C1D3CB7CC5763CD
:10008000BD6DEDFD753EF6177231BF000000803F7B
:1000900008000000BE922449123EABAAAA2ABECD97
:1000A000CCCC4C3E00000080BEABAAAAAA3E000009
:1000B0000000BF000000803F000000000008417801
:1000C000D3BB4387D1133D190E3CC3BD4282AD2B38
:1000D0003E68EC8276BED98FE1A93E4C80EFFFBE30
:1000E00001C4FF7F3F000000000020494E48472028
:1000F0002A2A2A002A2A2A20414354494F4E3A20CC
:100100004D414E55414C4C59205345542050524579
:10011000535355524520544F200028432920616EE7
:100120006479406272697469736869646561732E89
:10013000636F6D20323032310056657273696F6EB5
:1001400020004D6572636564657320563820444A0B
:100150006574204543552054657374657200293ACF
:10016000002D00456E746572206E6577206477659A
:100170006C6C20696E206465677265657320280069
:10018000293A002D00456E746572206E65772074E3
:1001900068726F74746C6520706F736974696F6EC8
:1001A000202800293A002D00456E746572206E6586
:1001B0007720656E67696E65207370656564206978
:1001C0006E2052504D202800293A002D00456E74B3
:1001D0006572206E6577206169722074656D70208C
:1001E000696E206465672046202800293A002D00AA
:1001F000456E746572206E657720636F6F6C616EFB
:10020000742074656D7020696E20646567204620D7
:100210002800456E7465722061206E756D6265728E
:1002200020616E6420707265737320456E74657210
:100230003A00202031352E205365742070756C7380
:10024000652067656E657261746F72206477656C96
:100250006C00202031342E20536574207468726F36
:1002600074746C6500202031332E20536574206532
:100270006E67696E65207370656564002020313299
:100280002E20536574206169722074656D700020A2
:100290002031312E2053657420636F6F6C616E7452
:1002A0002074656D7000437573746F6D697A653A7B
:1002B00000202031302E2048617264206163636524
:1002C0006C65726174696F6E00202020392E204D9C
:1002D0006F64657261746520616363656C657261EA
:1002E00074696F6E00202020382E2047656E746C74
:1002F0006520616363656C65726174696F6E00206F
:100300002020372E204372756973652037304D5099
:100310004800202020362E204372756973652033F3
:10032000304D504800202020352E20486F74206921
:10033000646C6500202020342E20436F6C6420699B
:10034000646C6500202020332E204372616E6B693F
:100350006E6700202020322E204F666600507265A6
:10036000736574733A00202020312E2053686F7714
:100370002063757272656E742073657474696E673C
:1003800073004D41494E204D454E55006E6F00792A
:100390006573002C2070756C736567656E64776596
:1003A0006C6C3D002C206372616E6B696E673D0062
:1003B0002C20656E6773706565643D0064656365D8
:1003C0006C00616363656C00252C207468726F7427
:1003D000746C656469723D002C207468726F74746B
:1003E0006C65706F733D002C20636F6F6C616E7471
:1003F00074656D703D0053657474696E67733A205F
:1004000061697274656D703D005468726F74746CCC
:100410006520706F736974696F6E20736574004531
:1004200052524F523A20456E74657265642076616F
:100430006C7565206973206F757473696465206FCE
:100440006620616C6C6F7765642072616E67650011
:1004500050756C736520616E676C6520666F7220E5
:1004600070756C73652067656E657261746F72205C
:10047000736574004552524F523A20456E7465724E
:1004800065642076616C7565206973206F7574737F
:10049000696465206F6620616C6C6F77656420729B
:1004A000616E676500456E67696E6520737065658E
:1004B0006420736574004552524F523A20456E7461
:1004C000657265642076616C7565206973206F754F
:1004D0007473696465206F6620616C6C6F77656406
:1004E0002072616E6765004169722074656D706588
:1004F00072617475726520736574004552524F5273
:100500003A20456E74657265642076616C7565206D
:100510006973206F757473696465206F6620616C00
:100520006C6F7765642072616E676500436F6F6CF6
:10053000616E742074656D7065726174757265208A
:10054000736574004552524F523A20456E7465727D
:1005500065642076616C7565206973206F757473AE
:10056000696465206F6620616C6C6F7765642072CA
:10057000616E6765004552524F523A20496E76616E
:100580006C696420696E7075740053657420746FB3
:10059000206861726420616363656C65726174696F
:1005A0006F6E0053657420746F206D6F64657261A7
:1005B000746520616363656C65726174696F6E0058
:1005C00053657420746F2067656E746C6520616379
:1005D00063656C65726174696F6E00536574207435
:1005E0006F206372756973652061742037304D50D8
:1005F000480053657420746F2063727569736520B9
:1006000061742033304D50480053657420746F205E
:10061000686F742069646C650053657420746F2082
:10062000636F6C642069646C650053657420746F3B
:10063000206372616E6B696E6700456E67696E65F7
:10064000207475726E6564206F666600000000009D
:10065000230026002900000000080002010000031A
:10066000040700000000000000000000000025005A
:1006700028002B0000000000240027002A000404AA
:10068000040404040404020202020202030303033A
:100690000303010204081020408001020408102016
:1006A000010204081020321111241FBECFEFD8E040
:1006B000DEBFCDBF12E0A0E0B1E0E4EAFEE202C09E
:1006C00005900D92AE35B107D9F723E0AEE5B2E063
:1006D00001C01D92AB35B207E1F713E0C4E5D3E0EA
:1006E00004C02197FE010E94F711C335D107C9F755
:1006F0000E94BD0D0C9450170C94000090E0FC017A
:10070000EE56F94F24918258994FFC018491882329
:1007100099F090E0880F991FFC01EC58F94FA591D2
:10072000B491FC01E659F94F859194918FB7F894F3
:10073000EC91E22BEC938FBF0895833081F028F485
:10074000813099F08230A9F008958730A9F088307F
:10075000C9F08430B1F4809180008F7D03C0809116
:1007600080008F7780938000089584B58F7784BD53
:10077000089584B58F7DFBCF8091B0008F778093F3
:10078000B00008958091B0008F7DF9CF1F93CF9373
:10079000DF93282F30E0F901EA5AF94F8491F901EB
:1007A000EE56F94FD491F901E258F94FC491CC2398
:1007B000A9F0162F81110E949D03EC2FF0E0EE0F9F
:1007C000FF1FE659F94FA591B4918FB7F894EC91BA
:1007D000111108C0D095DE23DC938FBFDF91CF913C
:1007E0001F910895DE2BF8CFEF92FF920F931F9386
:1007F000CF93DF93EC017B018A018D819E8101966D
:100800009E838D83019781F48CB58F7D8CBD8CB5D3
:10081000837F8CBD8CB583608CBD8DB58E7F8DBD87
:1008200060E088810E94C60384E0EE0CFF1C8A957C
:10083000E1F76894E1F8A80151705E295EBD0000FF
:100840000DB407FEFDCF11E00EB401FC14C010E0A2
:100850008D819E8101979E838D83892B21F461E098
:1008600088810E94C603812FDF91CF911F910F9144
:10087000FF90EF9008954EBD00000DB407FEFDCF30
:100880008EB5E6CF2FB7F8946091B6027091B7029B
:100890008091B8029091B9022FBF0895CF92DF9254
:1008A000EF92FF92E0917E02F0917F02EE0FFF1F28
:1008B000EE0FFF1FE25AFD4F0190F081E02DE8306E
:1008C000F10568F4EA59FB4F0C94F7116E04BC046F
:1008D000BE04C004C204C404C604C804299A80919A
:1008E0007E0290917F0201968830910509F452C0F2
:1008F00090937F0280937E02E0917E02F0917F02CE
:10090000EE0FFF1FEE0FFF1FE25AFD4F22813381D2
:10091000A0EAB0E00E94FD116B017C0124E130E00F
:1009200040E050E00E94D5112115310581E04807D3
:100930005105A8F581E080938A02309389022093C3
:100940008802809188029091890290938700809319
:10095000860080918A028061809381008EE494E019
:10096000909301018093000181E080936F00FF90DC
:10097000EF90DF90CF9008952998B1CF5E9AAFCFD6
:100980005E98ADCF5D9AABCF5D98A9CF5B9AA7CFAC
:100990005B98A5CF10927F0210927E02ADCF82E0CD
:1009A00080938A02C701B60120EA30E040E050E0BF
:1009B0000E94D511C2CF0895AF92BF92CF92DF921D
:1009C000EF92FF920F931F93CF93DF936C017B0104
:1009D0008B01040F151FEB015E01AE18BF08C01795
:1009E000D10759F06991D601ED91FC910190F08108
:1009F000E02DC6010995892B79F7C501DF91CF91CB
:100A00001F910F91FF90EF90DF90CF90BF90AF902C
:100A10000895FC01538D448D252F30E0842F90E004
:100A2000821B930B541710F0CF96089501970895E9
:100A3000FC01918D828D981761F0A28DAE0FBF2FB2
:100A4000B11D5D968C91928D9F5F9F73928F90E008
:100A500008958FEF9FEF0895FC01918D828D981777
:100A600031F0828DE80FF11D858D90E008958FEFB4
:100A70009FEF0895FC01918D228D892F90E0805C7D
:100A80009F4F821B91098F73992708958AEB92E0FB
:100A90000E943A0521E0892B09F420E0822F089575
:100AA00080E090E0892B29F00E94460581110C948A
:100AB00000000895FC01A48DA80FB92FB11DA35A01
:100AC000BF4F2C91848D90E001968F739927848F6E
:100AD000A689B7892C93A089B1898C918370806491
:100AE0008C93938D848D981306C00288F389E02D32
:100AF00080818F7D80830895EF92FF920F931F93E3
:100B0000CF93DF93EC0181E0888F9B8D8C8D9813C0
:100B10001AC0E889F989808185FF15C09FB7F894CC
:100B2000EE89FF896083E889F98980818370806418
:100B300080839FBF81E090E0DF91CF911F910F9163
:100B4000FF90EF900895F62E0B8D10E00F5F1F4F72
:100B50000F731127E02E8C8D8E110CC00FB607FC81
:100B6000FACFE889F989808185FFF5CFCE010E940F
:100B70005A05F1CFEB8DEC0FFD2FF11DE35AFF4F1E
:100B8000F0829FB7F8940B8FEA89FB89808180629D
:100B9000CFCF0F931F93CF93DF938C01D0E0C0E0B2
:100BA000F801EC0FFD1F6491662341F08AEB92E09F
:100BB0000E947C05892B11F02196F2CFCE01DF91A6
:100BC000CF911F910F910895CF93DF93EC01888D02
:100BD0008823B9F0AA89BB89E889F9898C9185FDB8
:100BE00003C0808186FD0DC00FB607FCF7CF8C9146
:100BF00085FFF2CF808185FFEDCFCE010E945A059F
:100C0000E9CFDF91CF910895CF93CFB7F89480913A
:100C10008502811124C0E8E8F6E08491ECE9F6E071
:100C20009491E82FF0E0EE0FFF1FEC58F94FA591DB
:100C3000B491EC91E92321F461E08AE00E94C603BB
:100C40008AE00E947E038CB580618CBD8CB5806487
:100C50008CBD8DE00E947E038BE00E947E0380911C
:100C600085028F5F80938502CFBFCF9108954F9209
:100C70005F926F927F928F929F92AF92BF92CF922C
:100C8000DF92EF92FF92CF93DF93CDB7DEB76497F9
:100C90000FB6F894DEBF0FBECDBF20E120938100D8
:100CA00029985E985D985B989093AC028093AB0214
:100CB000181619060CF0D9C1BC01072E000C880BC0
:100CC000990B0E94761320E030E040E752E40E9446
:100CD000921220E030E040E05FE30E94C3149B01E9
:100CE000AC0160E070E080E89FE30E94921220E097
:100CF00030E04AE754E40E94C3146B017C01609128
:100D0000970270919802072E000C880B990B0E9495
:100D100076139B01AC010E94211220E030E044E3F5
:100D200054E40E949212A70196010E94C3142B0161
:100D30003C0120E030E040E85EE3C701B6010E94DC
:100D4000C31469877A878B879C8720E030E040E076
:100D50005FE3C701B6010E94C3146D877E878F874A
:100D6000988B20E030E040E45FE3C701B6010E94C9
:100D7000C314698B7A8B8B8B9C8B20E030E0A901AC
:100D8000C301B2010E94211269837A838B839C8301
:100D90009B01AC01C701B6010E948D1287FF0CC0F8
:100DA000A701960169817A818B819C810E94201222
:100DB00069837A838B839C8329853A854B855C85FF
:100DC000C301B2010E9421126D837E838F839887B5
:100DD0009B01AC01C701B6010E948D1287FF0CC0B8
:100DE000A70196016D817E818F8198850E942012D6
:100DF0006D837E838F8398872D853E854F855889A7
:100E0000C301B2010E9421124B015C01AC019B01A4
:100E1000C701B6010E948D1287FF08C0A701960185
:100E2000C501B4010E9420124B015C0129893A8955
:100E30004B895C89C301B2010E9421122B013C0144
:100E4000AC019B01C701B6010E948D1287FF08C04B
:100E5000A7019601C301B2010E9420122B013C019F
:100E600010925F0210925E02A5019401C701B601C3
:100E70000E94201220E030E04AE754E40E94C314AC
:100E80000E943E136B01709361026093600287E0E1
:100E900090E0909363028093620220E030E04AE7A2
:100EA00054E4C301B2010E94C3140E943E13709324
:100EB00065026093640282E090E090936702809301
:100EC0006602A301920169857A858B859C850E94C3
:100ED000201220E030E04AE754E40E94C3140E944C
:100EE0003E13709369026093680281E090E09093F2
:100EF0006B0280936A0229853A854B855C856981FE
:100F00007A818B819C810E94201220E030E04AE7A8
:100F100054E40E94C3140E943E1370936D026093C8
:100F20006C0284E090E090936F0280936E022981BE
:100F30003A814B815C816D857E858F8598890E9481
:100F4000201220E030E04AE754E40E94C3140E94DB
:100F50003E13709371026093700283E090E090936F
:100F60007302809372022D853E854F8558896D816D
:100F70007E818F8198850E94201220E030E04AE730
:100F800054E40E94C3140E943E1370937502609350
:100F9000740286E090E090937702809376022D8130
:100FA0003E814F81588569897A898B899C890E9405
:100FB000201220E030E04AE754E40E94C3140E946B
:100FC0003E13709379026093780285E090E09093ED
:100FD0007B0280937A0229893A894B895C89C50111
:100FE000B4010E94201220E030E04AE754E40E945D
:100FF000C3140E943E1370937D0260937C02109292
:101000007F0210927E029601A0EAB0E00E94FD11DC
:101010006B017C0124E130E040E050E00E94D511FA
:101020002115310581E048075105A0F581E0809345
:101030008A023093890220938802809188029091DD
:101040008902909387008093860080918A02806154
:10105000809381001092810010928500109284008C
:1010600080918A0280618093810064960FB6F89423
:10107000DEBF0FBECDBFDF91CF91FF90EF90DF902D
:10108000CF90BF90AF909F908F907F906F905F9028
:101090004F90089582E080938A02C701B60120EA4A
:1010A00030E040E050E00E94D511C3CFCF93DF93F2
:1010B0002AE0AC01249FC001259F900D1124893E98
:1010C00053E0950714F088EE93E097FF02C090E09C
:1010D00080E0E8E0F1E0D0E0C0E040815181841799
:1010E00095071CF14281538148175907F4F083E0BA
:1010F000CC0FDD1F8A95E1F7FE01E85FFE4F84818A
:10110000958161E0019709F060E080E10E94C603EB
:10111000C85FDE4F8E819F8161E0019709F060E03A
:101120008FE0DF91CF910C94C60321963896C83298
:10113000D10599F6DF91CF910895CF93DF93EC011C
:10114000039734F461E08EE00E94C60360E008C0BB
:1011500060E08EE00E94C60361E0CA35D105B4F3B9
:1011600088E0DF91CF910C94C603CF92DF92EF928B
:10117000FF920F931F93CF93DF93EC0100918602B0
:10118000109187020817190789F4892B21F490E040
:1011900080E00E945608CE01DF91CF911F910F9100
:1011A000FF90EF90DF90CF900C949D0808171907DF
:1011B0006CF51092840210928302809183029091C8
:1011C0008402892BA9F5C017D1070CF442C0C801CD
:1011D0000E949D08C8010E9456080E9442046B01AB
:1011E0007C0124E1C20ED11CE11CF11C0E944204CE
:1011F0006C157D058E059F0580F06C197D098E09A3
:101200009F0997FDF3CF0F5F1F4FDDCF81E090E087
:101210009093840280938302D0CFA7019601261B6E
:10122000370B480B590BDA01C901B7FFDFCFEBCF02
:1012300060E080E10E94C60360E08FE00E94C60388
:10124000CE010E949D08209721F490E080E00E944A
:101250005608D0938702C0938602DF91CF911F91E9
:101260000F91FF90EF90DF90CF9008958F929F9213
:10127000AF92BF920F931F93CF93DF93CDB7DEB79B
:10128000A1970FB6F894DEBF0FBECDBF19A24230B2
:1012900008F44AE08E010F5D1F4F842E912CB12C73
:1012A000A12CA50194010E94D511E62FB901CA0114
:1012B000EA3044F5E05DD801EE938D01232B242B19
:1012C000252B79F790E080E0109769F0FD010190FF
:1012D0000020E9F73197AF014A1B5B0BBD018AEB98
:1012E00092E00E94DC04A1960FB6F894DEBF0FBE18
:1012F000CDBFDF91CF911F910F91BF90AF909F9085
:101300008F900895E95CD7CF42E050E06AE572E043
:101310008AEB92E00C94DC04CF93DF930E94C90522
:10132000EC010E9484098C0F9D1FDF91CF910895DD
:10133000CF92DF92EF92FF92CF93DF936C01990FE0
:10134000EE08FF08F7FE19C06DE28AEB92E00E94FA
:101350007C05EC0166277727CB016C197D098E0986
:101360009F094AE00E9436098C0F9D1FDF91CF91A3
:10137000FF90EF90DF90CF9008954AE0C701B6014B
:10138000DF91CF91FF90EF90DF90CF900C943609D2
:101390007F928F929F92AF92BF92CF92DF92EF9205
:1013A000FF920F931F93CF93DF930E948409C09104
:1013B000AB02D091AC02C0909B02D0909C02E09016
:1013C0008602F09087020091830210918402A0901F
:1013D0009902B0909A02709080028090970290904B
:1013E000980286EF93E00E94C905C5010E94980902
:1013F00087EE93E00E94C905C6010E94980988ED16
:1014000093E00E94C905C7010E94980988EC93E007
:101410000E94C90582EC93E00130110511F48CEBB8
:1014200093E00E94C90580EB93E00E94C905CE01BC
:101430000E94980984EA93E00E94C9058CE893E031
:10144000772011F08FE893E00E94C90583E993E0CB
:101450000E94C905C4010E949809DF91CF911F9194
:101460000F91FF90EF90DF90CF90BF90AF909F9043
:101470008F907F900C94840980919D0290919E02A0
:101480008C30910509F475C034F4009771F00B9716
:1014900009F45BC008958E30910509F490C00CF4F6
:1014A0007BC00F9709F49EC008950E94840982E8CA
:1014B00093E00E948C0986E693E00E948C098DE5FA
:1014C00093E00E948C0983E593E00E948C0984E4F8
:1014D00093E00E948C0984E393E00E948C0985E2EA
:1014E00093E00E948C0982E193E00E948C098FEFC7
:1014F00092E00E948C0985EE92E00E948C0989ECB2
:1015000092E00E948C0981EB92E00E948C0986EAAD
:1015100092E00E948C098FE892E00E948C098CE78F
:1015200092E00E948C0985E692E00E948C0982E597
:1015300092E00E948C0982E392E00E948C090E9452
:10154000840982E192E00C948C0980EF91E00E9482
:10155000C90587E290E00E9498098EEE91E00E9412
:10156000C90581EC90E00E9498098BEE91E00C9403
:10157000C9058DEC91E00E94C90590E080E00E94D1
:1015800098098BEC91E00E94C9058DE490E00E94DF
:10159000980988EC91E0EBCF88EA91E00E94C905B8
:1015A00084EF91E00E94980986EA91E00E94C905C3
:1015B00084E699E10E94980983EA91E0D8CF85E812
:1015C00091E00E94C90590E080E00E94980983E8BC
:1015D00091E00E94C90584E690E00E94980980E8A5
:1015E00091E0C5CF83E691E00E94C90588E790E0CD
:1015F0000E94980981E691E00E94C9058FEA90E077
:101600000E9498098EE591E0B2CF82E491E00E94B9
:101610008C0989E391E00E94C90582E090E00E9474
:1016200098090E9484098AE191E00E948C090C9437
:1016300084094F925F926F927F928F929F92AF92A6
:10164000BF92CF92DF92EF92FF9290939C02809391
:101650009B029C012052310945E0429FC001439FFB
:10166000900D112469E070E00E94C111072E000C5A
:10167000880B990B0E94761323E333E948E853E47F
:101680000E9421129B01AC0160E070E080E89FE3C2
:101690000E9492129B01AC0169EE7EE98AEA9AE30C
:1016A0000E94201221EE31EC49E354E30E94921291
:1016B0006B017C01AC019B010E94C31420E030E06F
:1016C00040E85EE30E94C31421E23EE44CEE5CE499
:1016D0000E9421120E9486154B015C0120E030E03F
:1016E00040E05FE3C701B6010E94C3146B017C01B7
:1016F000AC019B01C501B4010E9420122BEA3AEA19
:101700004AEA5EE30E9430152B013C01A7019601D5
:10171000C501B4010E9421122BEA3AEA4AEA5EE3CB
:101720000E9430159B01AC01C301B2010E9420123E
:101730000E940C130E943E13683782E1780714F070
:1017400067E772E16F30710514F46FE070E0695E75
:101750007109072E000C880B990B0E9476132091BB
:101760008B0230918C0240918D0250918E020E942A
:1017700092120E943E1377FF02C070E060E08091F9
:101780009302909194026F3F710519F014F06FEF7E
:1017900070E0FC0123813481AB012617370708F480
:1017A000A901FC0161817281FF90EF90DF90CF90E1
:1017B000BF90AF909F908F907F906F905F904F9071
:1017C0000C94F403CF92DF92EF92FF920F93CF939A
:1017D000DF937B016A01E9010E94370680919B0239
:1017E00090919C02E816F90619F0C7010E94190BA6
:1017F000C6010E94B508CF3FDC0759F084EF90E0A6
:101800000E94C905CE010E9498098AEE90E00E94CC
:101810008C09D0938202C09381020093800261E020
:10182000011101C060E087E0DF91CF910F91FF903F
:10183000EF90DF90CF900C94C6030F9300E02FEF52
:101840003FEF50E040E068E470E090E080E00E940C
:10185000E20B0F9108954F925F926F927F928F9259
:101860009F92AF92BF92CF92DF92EF92FF929093AE
:101870009A02809399029C012052310945E0429FCF
:10188000C001439F900D112469E070E00E94C111D6
:10189000072E000C880B990B0E94761323E333E983
:1018A00048E853E40E9421129B01AC0160E070E023
:1018B00080E89FE30E9492129B01AC0160E075ED0D
:1018C0008CEE9AE30E9420122AE736E145E255E3C6
:1018D0000E9492126B017C01AC019B010E94C31417
:1018E00020E030E040E85EE30E94C31428EE3BE4D1
:1018F0004DE25AE40E9421120E9486154B015C01C0
:1019000020E030E040E05FE3C701B6010E94C3146D
:101910006B017C01AC019B01C501B4010E94201246
:101920002BEA3AEA4AEA5EE30E9430152B013C01B9
:10193000A7019601C501B4010E9421122BEA3AEADF
:101940004AEA5EE30E9430159B01AC01C301B2017B
:101950000E9420120E940C130E943E13693782E1FC
:10196000780714F068E772E16031710514F460E102
:1019700070E0685E7109072E000C880B990B0E94BD
:10198000761320918F0230919002409191025091F4
:1019900092020E9492120E943E1377FF02C070E0F2
:1019A00060E080919502909196026F3F710519F069
:1019B00014F06FEF70E0FC0123813481AB01261736
:1019C000370708F4A901FC0161817281FF90EF9053
:1019D000DF90CF90BF90AF909F908F907F906F904F
:1019E0005F904F900C94F4031F920F920FB60F92DA
:1019F00011242F933F938F939F93AF93BF93809125
:101A0000B6029091B702A091B802B091B90230919C
:101A1000B50223E0230F2D3758F50196A11DB11D06
:101A20002093B5028093B6029093B702A093B802B8
:101A3000B093B9028091B1029091B202A091B30229
:101A4000B091B4020196A11DB11D8093B102909393
:101A5000B202A093B302B093B402BF91AF919F9131
:101A60008F913F912F910F900FBE0F901F9018955F
:101A700026E8230F0296A11DB11DD2CF1F920F920F
:101A80000FB60F9211242F933F934F935F936F9351
:101A90007F938F939F93AF93BF93EF93FF938AEBC3
:101AA00092E00E945A05FF91EF91BF91AF919F91F3
:101AB0008F917F916F915F914F913F912F910F90F7
:101AC0000FBE0F901F9018951F920F920FB60F9296
:101AD00011242F938F939F93EF93FF93E091CA026A
:101AE000F091CB028081E091D002F091D10282FD91
:101AF0001BC090818091D3028F5F8F732091D4029D
:101B0000821741F0E091D302F0E0E654FD4F958F4B
:101B10008093D302FF91EF919F918F912F910F901E
:101B20000FBE0F901F9018958081F4CF1F920F92D7
:101B30000FB60F9211242F933F934F935F936F93A0
:101B40007F938F939F93AF93BF93EF93FF93E09116
:101B50000001F09101010995FF91EF91BF91AF91C3
:101B60009F918F917F916F915F914F913F912F91B5
:101B70000F900FBE0F901F901895789484B58260D7
:101B800084BD84B5816084BD85B5826085BD85B521
:101B9000816085BD80916E00816080936E0010929F
:101BA000810080918100826080938100809181001A
:101BB00081608093810080918000816080938000AB
:101BC0008091B10084608093B1008091B000816009
:101BD0008093B00080917A00846080937A00809135
:101BE0007A00826080937A0080917A00816080938D
:101BF0007A0080917A00806880937A001092C10008
:101C0000E091CA02F091CB0282E08083E091CA02A7
:101C1000F091CB021082E091C602F091C7021082CF
:101C2000E091C802F091C90210E110831092D20233
:101C3000E091CE02F091CF0286E08083E091CC0269
:101C4000F091CD02808180618083E091CC02F0919F
:101C5000CD02808188608083E091CC02F091CD023A
:101C6000808180688083E091CC02F091CD028081F8
:101C70008F7D80838AEB92E00E94E4050E94050B31
:101C800010929E0210929D020E943C0A81E10E94E5
:101C90007E0361E081E10E94C60387E00E947E032B
:101CA00060E087E00E94C603219A2998569A5E98C0
:101CB000559A5D98539A5B9888E00E947E0360E095
:101CC00088E00E94C6038EE00E947E0360E08EE002
:101CD0000E94C60380E10E947E0360E080E10E94D2
:101CE000C6038FE00E947E0360E08FE00E94C6037F
:101CF00084E00E947E0360E084E00E94C60382E0EC
:101D00000E947E0360E082E00E94C60383E10E949D
:101D10007E0361E083E10E94C60382E10E947E03AC
:101D200061E082E10E94C60387E090E00E942B16EA
:101D3000EC0183E188831A821982E12CFF24F39459
:101D4000FC82EB821E821D820E94040688810E9412
:101D50007E0361E088810E94C603D0939602C093FF
:101D6000950287E090E00E942B16EC0182E18883C7
:101D70001A821982FC82EB821E821D820E94040656
:101D800088810E947E0361E088810E94C603D0930F
:101D90009402C093930280E090E4A3E9B1E48093BD
:101DA0008F0290939002A0939102B093920280933D
:101DB0008B0290938C02A0938D02B0938E021093AD
:101DC00081001092800081E080938A021092890243
:101DD00010928802109287001092860091E19093F1
:101DE00081002EE434E030930101209300018093C0
:101DF0006F001093810087E890E0909398028093A1
:101E0000970210928702109286020E941D0C809108
:101E1000990290919A028834910521F088E490E02B
:101E20000E942B0C0E94420468517C4F8F4F9F4FA1
:101E30006093AD027093AE028093AF029093B002B4
:101E400093EA692E96E0792E2FE8C22E26E0D22E54
:101E500030E0E32E30E0F32E4FEAA42EB12C58E709
:101E6000852E912C8AEB92E00E942C05019619F1A7
:101E70008AEB92E00E9418058C01682F8AEB92E0B1
:101E80000E947C050A301105B1F0C091A902D091E1
:101E9000AA02003311058CF1CE0101969093AA029B
:101EA0008093A902C156DD4F0883099721F410924F
:101EB000AA021092A9022090AD023090AE0240908A
:101EC000AF025090B0020E9442046215730584056F
:101ED000950508F488C1621973098409950997FF6B
:101EE00088C1E114F10409F4BDCF0E94460588239E
:101EF00009F4B8CF0E940000B5CF0830110549F4AD
:101F00001C161D06C4F62197D093AA02C093A902FD
:101F1000D2CF8AEB92E00E94E405C156DD4F1882D1
:101F20001092AA021092A90280919F02811107C00B
:101F30000E94050B10929E0210929D02A1C08091FA
:101F40009D0290919E02009709F0A2C08FE992E055
:101F50000E945F11FC013197EF30F10508F093C04A
:101F6000EC54F04F0C94F711C90FC30FCC0FDA0FDC
:101F7000E80FF60F0410121020102E103C103C1029
:101F80003C103C103C100E941D0C8AE396E00E941D
:101F90008C090E94C809CECF01E02FEF3FEF50E03F
:101FA00040E068E470E08CE291E00E94E20B8AE29B
:101FB00096E0EDCF00E02FE030E050E040E068E454
:101FC00070E080EB94E00E94E20B89E196E0DFCFC5
:101FD00000E02FE030E050E040E069EB70E08CEB97
:101FE00092E00E94E20B89E096E0D1CF00E02BE086
:101FF00030E041E150E069EB70E088E795E00E9455
:10200000E20B82EF95E0C3CF00E02BE030E049E146
:1020100050E069EB70E088EB9BE00E94E20B8BEDF7
:1020200095E0B5CF00E029E030E04EE150E069EB0B
:1020300070E088E097E00E94E20B80EC95E0A7CF8B
:1020400000E027E030E042E350E069EB70E08CEA2A
:102050009DE00E94E20B83EA95E099CF00E022E048
:1020600030E04FE550E069EB70E080E797E10E94D7
:10207000E20B8AE895E08BCF90939E0280939D02BD
:102080000E943C0A18CF85E795E00E948C09F8CFA2
:102090008D30910509F45CC0ACF48B30910559F199
:1020A0000C9709F008CF8FE992E00E947D116E3401
:1020B000710508F440C00E9484090E9484098BEFD6
:1020C00094E029C08E30910509F479C00F9709F08A
:1020D000F2CE8FE992E00E947D119B0128573109D1
:1020E0002833310508F44BC00E9484090E948409FA
:1020F00084E794E010C08FE992E00E947D119B017B
:10210000275231092B39310548F00E9484090E9479
:10211000840984E495E00E948C090CCF20919B02F5
:1021200030919C022617370719F0CB010E94190B3A
:102130008CE295E02CCF2091990230919A022617DB
:10214000370719F0CB010E942B0C87EE94E01FCFCC
:102150008FE992E00E947D119B01245F314021377D
:10216000374138F00E9484090E94840986EB94E08C
:10217000D2CFCB010E94370685EA94E008CF6837BA
:102180007105C4F070939802609397028091970252
:1021900090919802803B910524F0B0929802A09211
:1021A00097028091AB029091AC020E94370680E5C5
:1021B00094E0EDCE9092980280929702E7CF8FE95B
:1021C00092E00E947D116536710538F00E94840905
:1021D0000E9484098FE194E09ECFCB010E94B50854
:1021E00089E094E0D4CE261A370A480A590A57FEE5
:1021F00078CEE7E6F6E08491F301C491F601D4913C
:10220000DD2379F081110E949D03ED2FF0E0EE0FA8
:10221000FF1FE45BF94FA591B4918C91C82360E056
:1022200009F461E081E10E94C6038091AB029091C4
:10223000AC02181619067CF40E94420466507F4FC7
:102240008F4F9F4F6093AD027093AE028093AF02A9
:102250009093B00246CE0E94420468517C4F8F4F4B
:102260009F4FF0CFEAEBF2E01382128288EE93E008
:10227000A0E0B0E084839583A683B7838CE492E0EA
:102280009183808385EC90E09587848784EC90E04F
:102290009787868780EC90E0918B808B81EC90E033
:1022A000938B828B82EC90E0958B848B86EC90E014
:1022B000978B868B118E128E138E148E0895FC01CF
:1022C00088279927E89421912032E9F3293010F0EA
:1022D0002E30C8F32B3241F02D3239F4689404C00B
:1022E0000E94B911820F911D219120532A30C0F311
:1022F0001EF4909581959F4F08951F93FC01992797
:102300008827BC01E89411911032E9F3193010F0DC
:102310001E30C8F31B3251F01D3249F4689406C0D8
:102320000E94A411610F711D811D911D1191105307
:102330001A30B0F33EF490958095709561957F4F7B
:102340008F4F9F4F1F910895592F482F372F262FBA
:10235000660F771F881F991F660F771F881F991FA9
:10236000620F731F841F951F660F771F881F991FA9
:1023700008957AE0979F902D879F802D910D1124CD
:10238000089597FB072E16F4009407D077FD09D027
:102390000E940C1207FC05D03EF4909581959F4F4A
:1023A0000895709561957F4F0895A1E21A2EAA1B9A
:1023B000BB1BFD010DC0AA1FBB1FEE1FFF1FA217F5
:1023C000B307E407F50720F0A21BB30BE40BF50BF2
:1023D000661F771F881F991F1A9469F7609570957B
:1023E000809590959B01AC01BD01CF010895EE0F42
:1023F000FF1F0590F491E02D0994A29FB001B39FB7
:10240000C001A39F700D811D1124911DB29F700DFD
:10241000811D1124911D0895AA1BBB1B51E107C00A
:10242000AA1FBB1FA617B70710F0A61BB70B881F64
:10243000991F5A95A9F780959095BC01CD010895F3
:102440005058BB27AA270E9438120C9413140E94DC
:10245000051438F00E940C1420F039F49F3F19F451
:1024600026F40C94DB130EF4E095E7FB0C94D513E3
:10247000E92F0E94241458F3BA17620773078407E0
:10248000950720F079F4A6F50C9446140EF4E09527
:102490000B2EBA2FA02D0B01B90190010C01CA011E
:1024A000A0011124FF27591B99F0593F50F4503EC9
:1024B00068F11A16F040A22F232F342F4427585FBB
:1024C000F3CF469537952795A795F0405395C9F7D3
:1024D0007EF41F16BA0B620B730B840BBAF091508B
:1024E000A1F0FF0FBB1F661F771F881FC2F70EC02A
:1024F000BA0F621F731F841F48F4879577956795FD
:10250000B795F7959E3F08F0B0CF9395880F08F0E8
:102510009927EE0F9795879508950E94B11308F4B7
:1025200081E008950E94A6120C9413140E940C14CA
:1025300058F00E94051440F029F45F3F29F00C94F4
:10254000D51351110C9447140C94DB130E942414DE
:1025500068F39923B1F3552391F3951B550BBB27D2
:10256000AA2762177307840738F09F5F5F4F220F17
:10257000331F441FAA1FA9F335D00E2E3AF0E0E80E
:1025800032D091505040E695001CCAF72BD0FE2F58
:1025900029D0660F771F881FBB1F261737074807EC
:1025A000AB07B0E809F0BB0B802DBF01FF279358A4
:1025B0005F4F3AF09E3F510578F00C94D5130C9480
:1025C00047145F3FE4F3983ED4F38695779567957B
:1025D000B795F7959F5FC9F7880F911D96958795D9
:1025E00097F90895E1E0660F771F881FBB1F6217F8
:1025F00073078407BA0720F0621B730B840BBA0BB6
:10260000EE1F88F7E095089529F416F00C94D51381
:102610000C9446140C94DB130E942C14A8F39638E7
:10262000A0F707F80F92E8942BE33AEA48EB5FE74C
:102630000E94D9140F920F920F924DB75EB70F926E
:102640000E948F14E8E6F0E00E94DE134F915F9144
:10265000EF91FF91E595EE1FFF1F49F0FE57E068EF
:102660004427EE0F441FFA95E1F74195550B0E9460
:1026700059140F9007FE0C944D1408950E944513B1
:102680006894B1110C94471408950E942C1488F09A
:102690009F5798F0B92F9927B751B0F0E1F0660F26
:1026A000771F881F991F1AF0BA95C9F714C0B13067
:1026B00091F00E944614B1E008950C944614672FDF
:1026C000782F8827B85F39F0B93FCCF38695779596
:1026D0006795B395D9F73EF490958095709561957F
:1026E0007F4F8F4F9F4F0895E89409C097FB3EF4AA
:1026F00090958095709561957F4F8F4F9F4F99234F
:10270000A9F0F92F96E9BB279395F69587957795CC
:102710006795B795F111F8CFFAF4BB0F11F460FF8C
:102720001BC06F5F7F4F8F4F9F4F16C0882311F0E4
:1027300096E911C0772321F09EE8872F762F05C0F8
:10274000662371F096E8862F70E060E02AF09A9593
:10275000660F771F881FDAF7880F9695879597F988
:102760000895990F0008550FAA0BE0E8FEEF161622
:102770001706E807F907C0F012161306E407F50775
:1027800098F0621B730B840B950B39F40A2661F0E9
:10279000232B242B252B21F408950A2609F4A1408C
:1027A000A6958FEF811D811D089597F99F6780E899
:1027B00070E060E008959FEF80EC0895DF93CF9381
:1027C0001F930F93FF92EF92DF927B018C0168942D
:1027D00006C0DA2EEF010E94D614FE01E894A591FE
:1027E0002591359145915591A6F3EF010E9438123C
:1027F000FE019701A801DA9469F7DF90EF90FF904E
:102800000F911F91CF91DF91089500240A9416161D
:10281000170618060906089500240A9412161306CE
:10282000140605060895092E0394000C11F488235C
:1028300052F0BB0F40F4BF2B11F460FF04C06F5F78
:102840007F4F8F4F9F4F089557FD9058440F551F4E
:1028500059F05F3F71F04795880F97FB991F61F022
:102860009F3F79F087950895121613061406551F99
:10287000F2CF4695F1DF08C0161617061806991F05
:10288000F1CF86957105610508940895E894BB27FA
:1028900066277727CB0197F908959B01AC0160E08B
:1028A00070E080E89FE30C9492120C94D5130C9482
:1028B000C6150E942C14D8F39923C9F3940F511D07
:1028C000A3F39150504094F059F0882332F0660FF2
:1028D000771F881F91505040C1F79E3F51052CF73C
:1028E000880F911D9695879597F908955F3FACF0F5
:1028F000983E9CF0BB27869577956795B79508F429
:10290000B1609395C1F7BB0F58F711F460FFE8CFA2
:102910006F5F7F4F8F4F9F4FE3CF0C944714FA01A7
:10292000DC01AA0FBB1F9B01AC01BF5728F4222773
:1029300033274427507820C0B75190F4AB2F0024A0
:10294000469537952795011CA395D2F3002071F089
:10295000220F331F441FB395DAF30ED00C942012CC
:1029600061307105A0E88A07B94630F49B01AC01DB
:102970006627772788279078309621F02083318347
:102980004283538308950E94D6140C9413140E941A
:10299000051438F00E940C1420F0952311F00C94CB
:1029A000D5130C94DB1311240C9447140E942414A7
:1029B00070F3959FC1F3950F50E0551F629FF00192
:1029C000729FBB27F00DB11D639FAA27F00DB11DAB
:1029D000AA1F649F6627B00DA11D661F829F222734
:1029E000B00DA11D621F739FB00DA11D621F839FBB
:1029F000A00D611D221F749F3327A00D611D231F91
:102A0000849F600D211D822F762F6A2F11249F57DE
:102A100050409AF0F1F088234AF0EE0FFF1FBB1FE1
:102A2000661F771F881F91505040A9F79E3F5105A0
:102A300080F00C94D5130C9447145F3FE4F3983E58
:102A4000D4F3869577956795B795F795E7959F5F4A
:102A5000C1F7FE2B880F911D9695879597F90895DC
:102A6000FA01EE0FFF1F309621053105A1F1611526
:102A7000710561F48038BFE39B0749F16894903891
:102A8000810561F08038BFEF9B0741F099234AF53B
:102A9000FF3FE1053105210519F1E8940894E79518
:102AA000D901AA2329F4AB2FBE2FF85FD0F310C0B1
:102AB000FF5F70F4A695E0F7F73950F019F0FF3A90
:102AC00038F49F779F930DD00F9007FC905808958E
:102AD00046F00C94DB1360E070E080E89FE308951B
:102AE0004FE79F775F934F933F932F930E94E31598
:102AF0002F913F914F915F910E94C3140C940C133E
:102B000019F416F40C94DB130C94C6150E942C14C3
:102B1000B8F39923C9F3B6F39F57550B87FF0E946B
:102B2000D4150024A0E640EA900180585695979568
:102B300028F4805C660F771F881F20F02617370760
:102B4000480730F4621B730B840B202931294A2B70
:102B5000A69517940794202531254A2758F7660F24
:102B6000771F881F20F026173707480730F4620BBD
:102B7000730B840B200D311D411DA09581F7B90108
:102B8000842F9158880F9695879508959F3F31F02F
:102B9000915020F4879577956795B795880F911D8B
:102BA0009695879597F9089591505040660F771F35
:102BB000881FD2F7089516F00C94C6150C94DB13F9
:102BC00068940C94D5130E942C14A8F39923C1F394
:102BD000AEF3DF93CF931F930F93FF92C92FDD279F
:102BE00088232AF02197660F771F881FDAF720E0E5
:102BF00030E040E85FEB9FE3883920F0803E38F01A
:102C000021968F770E942112E0E9F0E004C00E9433
:102C10002112EDEBF0E00E94DE138B01BE01EC010E
:102C2000FB2E6F5771097595771F880B990B0E94C2
:102C3000761328E132E741E35FE30E94D614AF2D1B
:102C40009801AE01FF900F911F91CF91DF910E94EB
:102C500038120C9413140F931F93CF93DF93823089
:102C6000910510F482E090E0E0915903F0915A034D
:102C700030E020E0B0E0A0E0309799F42115310574
:102C800009F44AC0281B390B24303105D8F58A8154
:102C90009B816115710589F1FB0193838283FE019C
:102CA00011C0408151810281138148175907E0F01A
:102CB0004817590799F4109761F012960C931297E0
:102CC00013961C933296CF01DF91CF911F910F91F4
:102CD00008950093590310935A03F4CF2115310539
:102CE00051F04217530738F0A901DB019A01BD01E9
:102CF000DF01F801C1CFEF01F9CF90935A03809320
:102D00005903CDCFFE01E20FF31F8193919322501F
:102D1000310939832883D7CF209157033091580345
:102D2000232B41F420910401309105013093580385
:102D300020935703209102013091030121153105A1
:102D400041F42DB73EB74091060150910701241B75
:102D5000350BE0915703F0915803E217F307A0F405
:102D60002E1B3F0B2817390778F0AC014E5F5F4FE1
:102D70002417350748F04E0F5F1F509358034093B8
:102D80005703819391939FCFF0E0E0E09CCFCF93E6
:102D9000DF930097E9F0FC01329713821282A09131
:102DA0005903B0915A03ED0130E020E01097A1F4EF
:102DB00020813181820F931F209157033091580356
:102DC0002817390709F061C0F0935803E0935703BF
:102DD000DF91CF910895EA01CE17DF07E8F54A8128
:102DE0005B819E0141155105B1F7E901FB83EA833F
:102DF00049915991C40FD51FEC17FD0761F48081EB
:102E000091810296840F951FE901998388838281BD
:102E100093819B838A83F0E0E0E012968D919C91F0
:102E200013970097B9F52D913C911197CD0102961A
:102E3000820F931F209157033091580328173907A9
:102E400039F6309751F510925A0310925903B09306
:102E50005803A0935703BCCFD383C28340815181D1
:102E6000840F951FC817D90761F44E5F5F4F8881A3
:102E70009981480F591F518340838A819B81938395
:102E800082832115310509F0B0CFF0935A03E09306
:102E900059039ECFFD01DC01C0CF13821282D7CF30
:042EA000F894FFCFD4
:102EA400DB0400005B038000000017000000010049
:102EB40018002E00000000002F0045000100000053
:102EC40046005C00000000005D007300000001008B
:102ED40074008A00000000008B00A20001000000C2
:102EE400A300B90000000000BA00D00000000100F7
:102EF400D100E70000000000E800FE00010000002F
:102F0400FF0015010000000000012C010000010079
:102F14002D0143010000000044015A01010000009A
:102F24005B017101000000007201880100000100D2
:102F340089019F0100000000A001B601010000000A
:102F4400B701CE0100000000CF01E501000001003F
:102F5400E601FC0100000000FD0113020100000075
:102F640014022A02000000002B02410200000100AA
:102F7400420258020000000059026F0201000000E2
:102F8400700286020000000087029D02000001001A
:102F94009E02B40200000000B502CB020100000052
:102FA400CC02E20200000000E302FA020000010089
:102FB400FB021103000000001203280301000000BB
:102FC40029033F03000000004003560300000100F2
:102FD40057036D03000000006E038403010000002A
:102FE4008503E80301000000000000007C05DC0408
:0E2FF4000905E4053A0518052C050D0A000034
:00000001FF
