:100000000C9454030C947C030C947C030C947C039C
:100010000C947C030C947C030C947C030C947C0364
:100020000C947C030C947C030C947C030C947C0354
:100030000C947C030C94FE0D0C947C030C947C03B8
:100040000C945C0D0C947C030C94CC0D0C94A60DBC
:100050000C947C030C947C030C947C030C947C0324
:100060000C947C030C947C0307634236B79BD8A79F
:100070001A39685618AEBAAB558C1D3CB7CC5763CD
:10008000BD6DEDFD753EF6177231BF000000803F7B
:1000900008000000BE922449123EABAAAA2ABECD97
:1000A000CCCC4C3E00000080BEABAAAAAA3E000009
:1000B0000000BF000000803F000000000008417801
:1000C000D3BB4387D1133D190E3CC3BD4282AD2B38
:1000D0003E68EC8276BED98FE1A93E4C80EFFFBE30
:1000E00001C4FF7F3F000000000020494E48472028
:1000F0002A2A2A002A2A2A20414354494F4E3A20CC
:100100004D414E55414C4C59205345542050524579
:10011000535355524520544F200028432920616EE7
:100120006479406272697469736869646561732E89
:10013000636F6D20323032310056657273696F6EB5
:1001400020004D6572636564657320563820444A0B
:100150006574204543552054657374657200293ACF
:10016000002D00456E746572206E6577206477659A
:100170006C6C20696E206465677265657320280069
:10018000293A002D00456E746572206E65772074E3
:1001900068726F74746C6520706F736974696F6EC8
:1001A000202800293A002D00456E746572206E6586
:1001B0007720656E67696E65207370656564206978
:1001C0006E2052504D202800293A002D00456E74B3
:1001D0006572206E6577206169722074656D70208C
:1001E000696E206465672046202800293A002D00AA
:1001F000456E746572206E657720636F6F6C616EFB
:10020000742074656D7020696E20646567204620D7
:100210002800456E7465722061206E756D6265728E
:1002200020616E6420707265737320456E74657210
:100230003A00202031352E205365742070756C7380
:10024000652067656E657261746F72206477656C96
:100250006C00202031342E20536574207468726F36
:1002600074746C6500202031332E20536574206532
:100270006E67696E65207370656564002020313299
:100280002E20536574206169722074656D700020A2
:100290002031312E2053657420636F6F6C616E7452
:1002A0002074656D7000437573746F6D697A653A7B
:1002B00000202031302E2048617264206163636524
:1002C0006C65726174696F6E00202020392E204D9C
:1002D0006F64657261746520616363656C657261EA
:1002E00074696F6E00202020382E2047656E746C74
:1002F0006520616363656C65726174696F6E00206F
:100300002020372E204372756973652037304D5099
:100310004800202020362E204372756973652033F3
:10032000304D504800202020352E20486F74206921
:10033000646C6500202020342E20436F6C6420699B
:10034000646C6500202020332E204372616E6B693F
:100350006E6700202020322E204F666600507265A6
:10036000736574733A00202020312E2053686F7714
:100370002063757272656E742073657474696E673C
:1003800073004D41494E204D454E55006E6F00792A
:100390006573002C2070756C736567656E64776596
:1003A0006C6C3D002C206372616E6B696E673D0062
:1003B0002C20656E6773706565643D0064656365D8
:1003C0006C00616363656C00252C207468726F7427
:1003D000746C656469723D002C207468726F74746B
:1003E0006C65706F733D002C20636F6F6C616E7471
:1003F00074656D703D0053657474696E67733A205F
:1004000061697274656D703D005468726F74746CCC
:100410006520706F736974696F6E20736574004531
:1004200052524F523A20456E74657265642076616F
:100430006C7565206973206F757473696465206FCE
:100440006620616C6C6F7765642072616E67650011
:1004500050756C736520616E676C6520666F7220E5
:1004600070756C73652067656E657261746F72205C
:10047000736574004552524F523A20456E7465724E
:1004800065642076616C7565206973206F7574737F
:10049000696465206F6620616C6C6F77656420729B
:1004A000616E676500456E67696E6520737065658E
:1004B0006420736574004552524F523A20456E7461
:1004C000657265642076616C7565206973206F754F
:1004D0007473696465206F6620616C6C6F77656406
:1004E0002072616E6765004169722074656D706588
:1004F00072617475726520736574004552524F5273
:100500003A20456E74657265642076616C7565206D
:100510006973206F757473696465206F6620616C00
:100520006C6F7765642072616E676500436F6F6CF6
:10053000616E742074656D7065726174757265208A
:10054000736574004552524F523A20456E7465727D
:1005500065642076616C7565206973206F757473AE
:10056000696465206F6620616C6C6F7765642072CA
:10057000616E6765004552524F523A20496E76616E
:100580006C696420696E7075740053657420746FB3
:10059000206861726420616363656C65726174696F
:1005A0006F6E0053657420746F206D6F64657261A7
:1005B000746520616363656C65726174696F6E0058
:1005C00053657420746F2067656E746C6520616379
:1005D00063656C65726174696F6E00536574207435
:1005E0006F206372756973652061742037304D50D8
:1005F000480053657420746F2063727569736520B9
:1006000061742033304D50480053657420746F205E
:10061000686F742069646C650053657420746F2082
:10062000636F6C642069646C650053657420746F3B
:10063000206372616E6B696E6700456E67696E65F7
:10064000207475726E6564206F666600000000009D
:10065000230026002900000000080002010000031A
:10066000040700000000000000000000000025005A
:1006700028002B0000000000240027002A000404AA
:10068000040404040404020202020202030303033A
:100690000303010204081020408001020408102016
:1006A000010204081020961111241FBECFEFD8E0DC
:1006B000DEBFCDBF12E0A0E0B1E0E2E6FFE202C0A3
:1006C00005900D92AA37B107D9F723E0AAE7B2E067
:1006D00001C01D92A736B207E1F713E0C4E5D3E0ED
:1006E00004C02197FE010E945B12C335D107C9F7F0
:1006F0000E94250E0C94AF170C94000090E0FC01B2
:10070000EE56F94F24918258994FFC018491882329
:1007100099F090E0880F991FFC01EC58F94FA591D2
:10072000B491FC01E659F94F859194918FB7F894F3
:10073000EC91E22BEC938FBF0895833081F028F485
:10074000813099F08230A9F008958730A9F088307F
:10075000C9F08430B1F4809180008F7D03C0809116
:1007600080008F7780938000089584B58F7784BD53
:10077000089584B58F7DFBCF8091B0008F778093F3
:10078000B00008958091B0008F7DF9CF1F93CF9373
:10079000DF93282F30E0F901EA5AF94F8491F901EB
:1007A000EE56F94FD491F901E258F94FC491CC2398
:1007B000A9F0162F81110E949D03EC2FF0E0EE0F9F
:1007C000FF1FE659F94FA591B4918FB7F894EC91BA
:1007D000111108C0D095DE23DC938FBFDF91CF913C
:1007E0001F910895DE2BF8CFEF92FF920F931F9386
:1007F000CF93DF93EC017B018A018D819E8101966D
:100800009E838D83019781F48CB58F7D8CBD8CB5D3
:10081000837F8CBD8CB583608CBD8DB58E7F8DBD87
:1008200060E088810E94C60384E0EE0CFF1C8A957C
:10083000E1F76894E1F8A80151705E295EBD0000FF
:100840000DB407FEFDCF11E00EB401FC14C010E0A2
:100850008D819E8101979E838D83892B21F461E098
:1008600088810E94C603812FDF91CF911F910F9144
:10087000FF90EF9008954EBD00000DB407FEFDCF30
:100880008EB5E6CF2FB7F8946091C2027091C30283
:100890008091C4029091C5022FBF089520918C02CF
:1008A00030918D0280918802909189022817390732
:1008B00009F4299A20918C0230918D028091860250
:1008C000909187022817390709F4299820918C0202
:1008D00030918D028091840290918502281739070A
:1008E00009F45E9A20918C0230918D0280918202EF
:1008F000909183022817390709F45E9820918C02A1
:1009000030918D02809180029091810228173907E1
:1009100009F45D9A20918C0230918D0280917E02C3
:1009200090917F022817390709F45D9820918C0275
:1009300030918D0280917C0290917D0228173907B9
:1009400009F45B9A20918C0230918D0280917A0299
:1009500090917B022817390709F45B9880918C02EB
:1009600090918D02019690938D0280938C0220913C
:100970008A0230918B028217930720F010928D0229
:1009800010928C0281E08093960220E43FE1309344
:1009900087002093860091E1909381002EE434E05B
:1009A000309301012093000180936F000895089512
:1009B000AF92BF92CF92DF92EF92FF920F931F936D
:1009C000CF93DF936C017B018B01040F151FEB01AB
:1009D0005E01AE18BF08C017D10759F06991D60162
:1009E000ED91FC910190F081E02DC6010995892BD4
:1009F00079F7C501DF91CF911F910F91FF90EF9093
:100A0000DF90CF90BF90AF900895FC01538D448D3F
:100A1000252F30E0842F90E0821B930B541710F0A9
:100A2000CF96089501970895FC01918D828D9817B6
:100A300061F0A28DAE0FBF2FB11D5D968C91928D8E
:100A40009F5F9F73928F90E008958FEF9FEF0895BF
:100A5000FC01918D828D981731F0828DE80FF11D88
:100A6000858D90E008958FEF9FEF0895FC01918DA3
:100A7000228D892F90E0805C9F4F821B91098F739C
:100A80009927089586EC92E00E94360521E0892B93
:100A900009F420E0822F089580E090E0892B29F06E
:100AA0000E94420581110C9400000895FC01A48D60
:100AB000A80FB92FB11DA35ABF4F2C91848D90E080
:100AC00001968F739927848FA689B7892C93A08963
:100AD000B1898C91837080648C93938D848D9813ED
:100AE00006C00288F389E02D80818F7D8083089580
:100AF000EF92FF920F931F93CF93DF93EC0181E06E
:100B0000888F9B8D8C8D98131AC0E889F989808114
:100B100085FF15C09FB7F894EE89FF896083E88947
:100B2000F98980818370806480839FBF81E090E039
:100B3000DF91CF911F910F91FF90EF900895F62EC6
:100B40000B8D10E00F5F1F4F0F731127E02E8C8D60
:100B50008E110CC00FB607FCFACFE889F9898081A5
:100B600085FFF5CFCE010E945605F1CFEB8DEC0F3E
:100B7000FD2FF11DE35AFF4FF0829FB7F8940B8FC2
:100B8000EA89FB8980818062CFCF0F931F93CF9337
:100B9000DF938C01D0E0C0E0F801EC0FFD1F649101
:100BA000662341F086EC92E00E947805892B11F0D3
:100BB0002196F2CFCE01DF91CF911F910F91089531
:100BC000CF93DF93EC01888D8823B9F0AA89BB8984
:100BD000E889F9898C9185FD03C0808186FD0DC06F
:100BE0000FB607FCF7CF8C9185FFF2CF808185FF90
:100BF000EDCFCE010E945605E9CFDF91CF91089548
:100C0000CF93CFB7F89480919302811124C0E8E884
:100C1000F6E08491ECE9F6E09491E82FF0E0EE0F35
:100C2000FF1FEC58F94FA591B491EC91E92321F401
:100C300061E08AE00E94C6038AE00E947E038CB5D0
:100C400080618CBD8CB580648CBD8DE00E947E037C
:100C50008BE00E947E03809193028F5F80939302CA
:100C6000CFBFCF910895CF93DF932AE0AC01249FAB
:100C7000C001259F900D1124893E53E0950714F083
:100C800088EE93E097FF02C090E080E0E8E0F1E0BA
:100C9000D0E0C0E040815181841795071CF142816A
:100CA000538148175907F4F083E0CC0FDD1F8A9574
:100CB000E1F7FE01E85FFE4F8481958161E00197D5
:100CC00009F060E080E10E94C603C85FDE4F8E81BC
:100CD0009F8161E0019709F060E08FE0DF91CF91A3
:100CE0000C94C60321963896C832D10599F6DF9147
:100CF000CF910895CF93DF93EC01039734F461E033
:100D00008EE00E94C60360E008C060E08EE00E94B2
:100D1000C60361E0CA35D105B4F388E0DF91CF9115
:100D20000C94C603CF92DF92EF92FF920F931F9322
:100D3000CF93DF93EC010091940210919502081774
:100D4000190789F4892B21F490E080E00E94330692
:100D5000CE01DF91CF911F910F91FF90EF90DF9027
:100D6000CF900C947A06081719076CF5109292022E
:100D7000109291028091910290919202892BA9F593
:100D8000C017D1070CF442C0C8010E947A06C801FE
:100D90000E9433060E9442046B017C0124E1C20ED2
:100DA000D11CE11CF11C0E9442046C157D058E05CE
:100DB0009F0580F06C197D098E099F0997FDF3CF7F
:100DC0000F5F1F4FDDCF81E090E090939202809300
:100DD0009102D0CFA7019601261B370B480B590B68
:100DE000DA01C901B7FFDFCFEBCF60E080E10E94FD
:100DF000C60360E08FE00E94C603CE010E947A061F
:100E0000209721F490E080E00E943306D093950271
:100E1000C0939402DF91CF911F910F91FF90EF90BB
:100E2000DF90CF900895FC0101900020E9F7319701
:100E3000AF01481B590BBC0186EC92E00C94D8041E
:100E40008AE592E00C941307CF93DF930E94C505C7
:100E5000EC010E9420078C0F9D1FDF91CF91089518
:100E60008F929F92AF92BF920F931F93CF93DF9376
:100E7000CDB7DEB7A1970FB6F894DEBF0FBECDBFDA
:100E800019A2423008F44AE08E010F5D1F4F842EF4
:100E9000912CB12CA12CA50194010E943912E62FAE
:100EA000B901CA01EA30F4F4E05DD801EE938D0196
:100EB000232B242B252B79F790E080E0109719F055
:100EC000CD010E941307A1960FB6F894DEBF0FBEA6
:100ED000CDBFDF91CF911F910F91BF90AF909F90A9
:100EE0008F900895E95CE1CF0C941307BC0190E06A
:100EF00080E04AE00C9430074F925F926F927F92AD
:100F00008F929F92AF92BF92CF92DF92EF92FF9219
:100F1000CF93DF93CDB7DEB768970FB6F894DEBFF7
:100F20000FBECDBF20E12093810029985E985D9887
:100F30005B989093B8028093B702181619060CF0CC
:100F4000BDC1E090A302F090A402BC01990F880BF0
:100F5000990B0E94CB1320E030E040E752E40E945E
:100F6000E71220E030E040E05FE30E941D159B01A6
:100F7000AC0160E070E080E89FE30E94E71220E0AF
:100F800030E04AE754E40E941D150E949A134B0179
:100F900070938B0260938A02B701FF0C880B990B48
:100FA0000E94CB139B01AC010E94761220E030E03E
:100FB00044E354E40E94E7122B013C01B40190E0A9
:100FC00080E00E94C9136B017C01AC019B01C3014D
:100FD000B2010E941D154B015C0120E030E040E8A9
:100FE0005EE3C701B6010E941D156D877E878F875E
:100FF000988B20E030E040E05FE3C701B6010E943B
:101000001D15698B7A8B8B8B9C8B20E030E040E444
:101010005FE3C701B6010E941D156D8B7E8B8F8B20
:10102000988F20E030E0A901C501B4010E9476123A
:1010300069837A838B839C839B01AC01C701B601D2
:101040000E94E21287FF0CC0A701960169817A8194
:101050008B819C810E94751269837A838B839C8328
:101060002D853E854F855889C501B4010E947612B1
:101070006D837E838F8398879B01AC01C701B60186
:101080000E94E21287FF0CC0A70196016D817E814C
:101090008F8198850E9475126D837E838F839887D8
:1010A00029893A894B895C89C501B4010E9476126D
:1010B00069877A878B879C879B01AC01C701B60142
:1010C0000E94E21287FF0CC0A701960169857A850C
:1010D0008B859C850E94751269877A878B879C8790
:1010E0002D893E894F89588DC501B4010E94761221
:1010F0004B015C01AC019B01C701B6010E94E212E9
:1011000087FF08C0A7019601C501B4010E947512AE
:101110004B015C01109289021092880269817A81E8
:101120008B819C810E949A13709387026093860240
:101130006D857E858F8598890E949A1370938502AC
:10114000609384026D817E818F8198850E949A13BD
:10115000709383026093820269897A898B899C8962
:101160000E949A13709381026093800269857A8548
:101170008B859C850E949A1370937F0260937E02F8
:101180006D897E898F89988D0E949A1370937D0254
:1011900060937C02C501B4010E949A1370937B0294
:1011A00060937A028DE592E00E94740785E692E0F2
:1011B0000E94740780918A0290918B020E947607A8
:1011C00089E692E00E947407A3019201C301B20173
:1011D0000E942016882309F486C08EE692E00E94C1
:1011E000130783E692E00E94740780918802909131
:1011F00089020E94760783E692E00E94740780913C
:101200008602909187020E94760783E692E00E9410
:10121000740780918402909185020E94760783E68C
:1012200092E00E94740780918202909183020E9452
:10123000760783E692E00E94740780918002909185
:1012400081020E94760783E692E00E9474078091F3
:101250007E0290917F020E94760783E692E00E94D0
:10126000740780917C0290917D020E94760783E64C
:1012700092E00E94740780917A0290917B020E9412
:1012800076070E94200710928D0210928C0281E056
:101290008093960280E49FE190938700809386007C
:1012A00081E180938100109281001092850010925C
:1012B00084008091960280618093810068960FB6C9
:1012C000F894DEBF0FBECDBFDF91CF91FF90EF90BE
:1012D000DF90CF90BF90AF909F908F907F906F9056
:1012E0005F904F90089573016201E894F7F82FEF33
:1012F0003FEF4FE75FE7C701B6010E94201681115B
:101300000DC02FEF3FEF4FE75FE7C701B6010E9427
:10131000E21218161CF482E792E061CF2FEF3FEF44
:101320004FE75FE4C301B2010E94A21418161CF437
:1013300086E792E054CF2FEF3FEF4FE75FECC3011A
:10134000B2010E94E21287FDF3CF20E030E0A90154
:10135000C301B2010E94E21287FF09C06DE286EC70
:1013600092E00E94780577FA709477F870942AE0FA
:1013700037ED43EA5BE3C301B2010E9476124B01F1
:101380005C010E949A136B017C010E94C9139B01AE
:10139000AC01C501B4010E9475124B015C014AE029
:1013A000C701B6010E9430076EE286EC92E00E940F
:1013B000780520E030E040E251E4C501B4010E942C
:1013C0001D154B015C010E949A136B01CB010E9419
:1013D0007607B60190E080E00E94C9139B01AC0142
:1013E000C501B4010E94751220E030E040E251E4F2
:1013F0000E941D150E949A13CB010E947607F1CE20
:10140000CF92DF92EF92FF92CF93DF936C01990F0F
:10141000EE08FF08F7FE19C06DE286EC92E00E942C
:101420007805EC0166277727CB016C197D098E09B9
:101430009F094AE00E9430078C0F9D1FDF91CF91DA
:10144000FF90EF90DF90CF9008954AE0C701B6017A
:10145000DF91CF91FF90EF90DF90CF900C94300709
:101460007F928F929F92AF92BF92CF92DF92EF9234
:10147000FF920F931F93CF93DF930E942007C09199
:10148000B702D091B802C090A702D090A802E09015
:101490009402F09095020091910210919202A09016
:1014A000A502B090A60270908E028090A302909048
:1014B000A40286EF93E00E94C505C5010E94000AC0
:1014C00087EE93E00E94C505C6010E94000A88EDE0
:1014D00093E00E94C505C7010E94000A88EC93E0D2
:1014E0000E94C50582EC93E00130110511F48CEBEC
:1014F00093E00E94C50580EB93E00E94C505CE01F4
:101500000E94000A84EA93E00E94C5058CE893E0FB
:10151000772011F08FE893E00E94C50583E993E0FE
:101520000E94C505C4010E94000ADF91CF911F915E
:101530000F91FF90EF90DF90CF90BF90AF909F9072
:101540008F907F900C9420078091A9029091AA021D
:101550008C30910509F475C034F4009771F00B9745
:1015600009F45BC008958E30910509F490C00CF425
:101570007BC00F9709F49EC008950E94200782E85F
:1015800093E00E94240786E693E00E9424078DE5FD
:1015900093E00E94240783E593E00E94240784E4FB
:1015A00093E00E94240784E393E00E94240785E2ED
:1015B00093E00E94240782E193E00E9424078FEFCA
:1015C00092E00E94240785EE92E00E94240789ECB5
:1015D00092E00E94240781EB92E00E94240786EAB1
:1015E00092E00E9424078FE892E00E9424078CE793
:1015F00092E00E94240785E692E00E94240782E59B
:1016000092E00E94240782E392E00E9424070E9455
:10161000200782E192E00C94240780EF91E00E9481
:10162000C50587E290E00E94000A8EEE91E00E94DC
:10163000C50581EC90E00E94000A8BEE91E00C94CD
:10164000C5058DEC91E00E94C50590E080E00E9408
:10165000000A8BEC91E00E94C5058DE490E00E94A9
:10166000000A88EC91E0EBCF88EA91E00E94C50582
:1016700084EF91E00E94000A86EA91E00E94C5058D
:1016800084E699E10E94000A83EA91E0D8CF85E8D8
:1016900091E00E94C50590E080E00E94000A83E886
:1016A00091E00E94C50584E690E00E94000A80E86F
:1016B00091E0C5CF83E691E00E94C50588E790E000
:1016C0000E94000A81E691E00E94C5058FEA90E041
:1016D0000E94000A8EE591E0B2CF82E491E00E9480
:1016E000240789E391E00E94C50585E090E00E940F
:1016F000000A0E9420078AE191E00E9424070C94CE
:1017000020074F925F926F927F928F929F92AF923B
:10171000BF92CF92DF92EF92FF929093A8028093B4
:10172000A7029C012052310945E0429FC001439F1E
:10173000900D112469E070E00E942512072E000C24
:10174000880B990B0E94CB1323E333E948E853E459
:101750000E9476129B01AC0160E070E080E89FE39C
:101760000E94E7129B01AC0169EE7EE98AEA9AE3E6
:101770000E94751221EE31EC49E354E30E94E71216
:101780006B017C01AC019B010E941D1520E030E043
:1017900040E85EE30E941D1521E23EE44CEE5CE46D
:1017A0000E9476120E94E0154B015C0120E030E0BF
:1017B00040E05FE3C701B6010E941D156B017C018B
:1017C000AC019B01C501B4010E9475122BEA3AEAF3
:1017D0004AEA5EE30E948A152B013C01A7019601AB
:1017E000C501B4010E9476122BEA3AEA4AEA5EE3A6
:1017F0000E948A159B01AC01C301B2010E947512BF
:101800000E9461130E949313683782E1780714F0F5
:1018100067E772E16F30710514F46FE070E0695EA4
:101820007109072E000C880B990B0E94CB13209195
:101830009702309198024091990250919A020E9429
:10184000E7120E94931377FF02C070E060E080917E
:101850009F029091A0026F3F710519F014F06FEF95
:1018600070E0FC0123813481AB012617370708F4AF
:10187000A901FC0161817281FF90EF90DF90CF9010
:10188000BF90AF909F908F907F906F905F904F90A0
:101890000C94F403CF92DF92EF92FF920F93CF93C9
:1018A000DF937B016A01E9010E947C078091A70216
:1018B0009091A802E816F90619F0C7010E94810B61
:1018C000C6010E949206CF3FDC0759F084EF90E0FA
:1018D0000E94C505CE010E94000A8AEE90E00E9497
:1018E0002407D0939002C0938F0200938E0261E090
:1018F000011101C060E087E0DF91CF910F91FF906F
:10190000EF90DF90CF900C94C6030F9300E02FEF81
:101910003FEF50E040E068E470E090E080E00E943B
:101920004A0C0F9108954F925F926F927F928F921F
:101930009F92AF92BF92CF92DF92EF92FF929093DD
:10194000A6028093A5029C012052310945E0429FE6
:10195000C001439F900D112469E070E00E942512A0
:10196000072E000C880B990B0E94CB1323E333E95D
:1019700048E853E40E9476129B01AC0160E070E0FD
:1019800080E89FE30E94E7129B01AC0160E075EDE7
:101990008CEE9AE30E9475122AE736E145E255E3A0
:1019A0000E94E7126B017C01AC019B010E941D1596
:1019B00020E030E040E85EE30E941D1528EE3BE4A5
:1019C0004DE25AE40E9476120E94E0154B015C0140
:1019D00020E030E040E05FE3C701B6010E941D1542
:1019E0006B017C01AC019B01C501B4010E94751221
:1019F0002BEA3AEA4AEA5EE30E948A152B013C018F
:101A0000A7019601C501B4010E9476122BEA3AEAB9
:101A10004AEA5EE30E948A159B01AC01C301B20150
:101A20000E9475120E9461130E949313693782E12C
:101A3000780714F068E772E16031710514F460E131
:101A400070E0685E7109072E000C880B990B0E94EC
:101A5000CB1320919B0230919C0240919D025091AA
:101A60009E020E94E7120E94931377FF02C070E06B
:101A700060E08091A1029091A2026F3F710519F080
:101A800014F06FEF70E0FC0123813481AB01261765
:101A9000370708F4A901FC0161817281FF90EF9082
:101AA000DF90CF90BF90AF909F908F907F906F907E
:101AB0005F904F900C94F4031F920F920FB60F9209
:101AC00011242F933F938F939F93AF93BF93809154
:101AD000C2029091C302A091C402B091C50230919C
:101AE000C10223E0230F2D3758F50196A11DB11D2A
:101AF0002093C1028093C2029093C302A093C402B8
:101B0000B093C5028091BD029091BE02A091BF0228
:101B1000B091C0020196A11DB11D8093BD029093AA
:101B2000BE02A093BF02B093C002BF91AF919F913C
:101B30008F913F912F910F900FBE0F901F9018958E
:101B400026E8230F0296A11DB11DD2CF1F920F923E
:101B50000FB60F9211242F933F934F935F936F9380
:101B60007F938F939F93AF93BF93EF93FF9386ECF5
:101B700092E00E945605FF91EF91BF91AF919F9126
:101B80008F917F916F915F914F913F912F910F9026
:101B90000FBE0F901F9018951F920F920FB60F92C5
:101BA00011242F938F939F93EF93FF93E091D6028D
:101BB000F091D7028081E091DC02F091DD0282FD9C
:101BC0001BC090818091DF028F5F8F732091E002B4
:101BD000821741F0E091DF02F0E0EA53FD4F958F6C
:101BE0008093DF02FF91EF919F918F912F910F9042
:101BF0000FBE0F901F9018958081F4CF1F920F9207
:101C00000FB60F9211242F933F934F935F936F93CF
:101C10007F938F939F93AF93BF93EF93FF93E09145
:101C20000001F09101010995FF91EF91BF91AF91F2
:101C30009F918F917F916F915F914F913F912F91E4
:101C40000F900FBE0F901F901895789484B5826006
:101C500084BD84B5816084BD85B5826085BD85B550
:101C6000816085BD80916E00816080936E001092CE
:101C70008100809181008260809381008091810049
:101C800081608093810080918000816080938000DA
:101C90008091B10084608093B1008091B000816038
:101CA0008093B00080917A00846080937A00809164
:101CB0007A00826080937A0080917A0081608093BC
:101CC0007A0080917A00806880937A001092C10037
:101CD000E091D602F091D70282E08083E091D602B3
:101CE000F091D7021082E091D202F091D3021082DB
:101CF000E091D402F091D50210E110831092DE023F
:101D0000E091DA02F091DB0286E08083E091D80274
:101D1000F091D902808180618083E091D802F091B6
:101D2000D902808188608083E091D802F091D90245
:101D3000808180688083E091D802F091D90280810F
:101D40008F7D808386EC92E00E94E0050E946D0BFF
:101D50001092AA021092A9020E94A40A81E10E9494
:101D60007E0361E081E10E94C60387E00E947E035A
:101D700060E087E00E94C603219A2998569A5E98EF
:101D8000559A5D98539A5B9888E00E947E0360E0C4
:101D900088E00E94C6038EE00E947E0360E08EE031
:101DA0000E94C60380E10E947E0360E080E10E9401
:101DB000C6038FE00E947E0360E08FE00E94C603AE
:101DC00084E00E947E0360E084E00E94C60382E01B
:101DD0000E947E0360E082E00E94C60383E10E94CD
:101DE0007E0361E083E10E94C60382E10E947E03DC
:101DF00061E082E10E94C60387E090E00E948A16BB
:101E0000EC0183E188831A821982E12CFF24F39488
:101E1000FC82EB821E821D820E94000688810E9445
:101E20007E0361E088810E94C603D093A202C09322
:101E3000A10287E090E00E948A16EC0182E188838B
:101E40001A821982FC82EB821E821D820E94000689
:101E500088810E947E0361E088810E94C603D0933E
:101E6000A002C0939F0280E090E4A3E9B1E48093D4
:101E70009B0290939C02A0939D02B0939E0280933C
:101E8000970290939802A0939902B0939A021093AC
:101E900081001092800081E080939602109287006A
:101EA0001092860091E1909381002EE434E030930B
:101EB00001012093000180936F001093810087E857
:101EC00090E09093A4028093A30210929502109246
:101ED00094020E94850C8091A5029091A6028834FC
:101EE000910521F088E490E00E94930C0E94420446
:101EF00068517C4F8F4F9F4F6093B9027093BA0225
:101F00008093BB029093BC0293EA692E96E0792EEF
:101F10002FE8C22E26E0D22E30E0E32E30E0F32E62
:101F20004FEAA42EB12C58E7852E912C86EC92E036
:101F30000E942805019619F186EC92E00E94140592
:101F40008C01682F86EC92E00E9478050A3011051A
:101F5000B1F0C091B502D091B602003311058CF1F9
:101F6000CE0101969093B6028093B502C555DD4F20
:101F70000883099721F41092B6021092B5022090BE
:101F8000B9023090BA024090BB025090BC020E944D
:101F90004204621573058405950508F488C1621929
:101FA00073098409950997FF88C1E114F10409F4C4
:101FB000BDCF0E944205882309F4B8CF0E940000DB
:101FC000B5CF0830110549F41C161D06C4F621973B
:101FD000D093B602C093B502D2CF86EC92E00E94B5
:101FE000E005C555DD4F18821092B6021092B50279
:101FF0008091AB02811107C00E946D0B1092AA0262
:102000001092A902A1C08091A9029091AA02009702
:1020100009F0A2C08BEA92E00E94C311FC01319743
:10202000EF30F10508F093C0E85EFF4E0C945B12B0
:102030002D10271030103E104C105A1068107610DA
:1020400084109210A010A010A010A010A0100E9448
:10205000850C8AE396E00E9424070E94300ACECFC6
:1020600001E02FEF3FEF50E040E068E470E08CE2E9
:1020700091E00E944A0C8AE296E0EDCF00E02FE06A
:1020800030E050E040E068E470E080EB94E00E94D3
:102090004A0C89E196E0DFCF00E02FE030E050E02D
:1020A00040E069EB70E08CEB92E00E944A0C89E022
:1020B00096E0D1CF00E02BE030E041E150E069EB69
:1020C00070E088E795E00E944A0C82EF95E0C3CF6C
:1020D00000E02BE030E049E150E069EB70E088EB94
:1020E0009BE00E944A0C8BED95E0B5CF00E029E023
:1020F00030E04EE150E069EB70E088E097E00E944C
:102100004A0C80EC95E0A7CF00E027E030E042E306
:1021100050E069EB70E08CEA9DE00E944A0C83EA93
:1021200095E099CF00E022E030E04FE550E069EB28
:1021300070E080E797E10E944A0C8AE895E08BCF37
:102140009093AA028093A9020E94A40A18CF85E75F
:1021500095E00E942407F8CF8D30910509F45CC00A
:10216000ACF48B30910559F10C9709F008CF8BEA4C
:1021700092E00E94E1116E34710508F440C00E94A3
:1021800020070E9420078BEF94E029C08E30910534
:1021900009F479C00F9709F0F2CE8BEA92E00E9421
:1021A000E1119B01285731092833310508F44BC050
:1021B0000E9420070E94200784E794E010C08BEA69
:1021C00092E00E94E1119B01275231092B39310520
:1021D00048F00E9420070E94200784E495E00E94B6
:1021E00024070CCF2091A7023091A80226173707A9
:1021F00019F0CB010E94810B8CE295E02CCF20914D
:10220000A5023091A6022617370719F0CB010E94CC
:10221000930C87EE94E01FCF8BEA92E00E94E111CD
:102220009B01245F31402137374138F00E9420075D
:102230000E94200786EB94E0D2CFCB010E947C075E
:1022400085EA94E008CF68377105C4F07093A40262
:102250006093A3028091A3029091A402803B910518
:1022600024F0B092A402A092A3028091B7029091B0
:10227000B8020E947C0780E594E0EDCE9092A40223
:102280008092A302E7CF8BEA92E00E94E1116536CB
:10229000710538F00E9420070E9420078FE194E02A
:1022A0009ECFCB010E94920689E094E0D4CE261AFC
:1022B000370A480A590A57FE78CEE7E6F6E08491D5
:1022C000F301C491F601D491DD2379F081110E94CC
:1022D0009D03ED2FF0E0EE0FFF1FE45BF94FA5919A
:1022E000B4918C91C82360E009F461E081E10E941F
:1022F000C6038091B7029091B802181619067CF4B3
:102300000E94420466507F4F8F4F9F4F6093B902E7
:102310007093BA028093BB029093BC0246CE0E9497
:10232000420468517C4F8F4F9F4FF0CFE6ECF2E0B4
:102330001382128288EE93E0A0E0B0E0848395835C
:10234000A683B7838CE492E09183808385EC90E050
:102350009587848784EC90E09787868780EC90E06F
:10236000918B808B81EC90E0938B828B82EC90E060
:10237000958B848B86EC90E0978B868B118E128EDA
:10238000138E148E0895FC0188279927E8942191D3
:102390002032E9F3293010F02E30C8F32B3241F00F
:1023A0002D3239F4689404C00E941D12820F911DD1
:1023B000219120532A30C0F31EF4909581959F4FB0
:1023C00008951F93FC0199278827BC01E894119177
:1023D0001032E9F3193010F01E30C8F31B3251F0FF
:1023E0001D3249F4689406C00E940812610F711DE5
:1023F000811D911D119110531A30B0F33EF4909548
:102400008095709561957F4F8F4F9F4F1F910895D5
:10241000592F482F372F262F660F771F881F991F98
:10242000660F771F881F991F620F731F841F951FE8
:10243000660F771F881F991F08957AE0979F902D48
:10244000879F802D910D1124089597FB072E16F478
:10245000009407D077FD09D00E94611207FC05D0D7
:102460003EF4909581959F4F0895709561957F4FAB
:102470000895A1E21A2EAA1BBB1BFD010DC0AA1FC5
:10248000BB1FEE1FFF1FA217B307E407F50720F0DD
:10249000A21BB30BE40BF50B661F771F881F991F58
:1024A0001A9469F760957095809590959B01AC01A1
:1024B000BD01CF010895EE0FFF1F0590F491E02DAF
:1024C0000994AA1BBB1B51E107C0AA1FBB1FA6177B
:1024D000B70710F0A61BB70B881F991F5A95A9F7CD
:1024E00080959095BC01CD0108955058BB27AA272F
:1024F0000E948D120C9468140E945A1438F00E94A5
:10250000611420F039F49F3F19F426F40C94301430
:102510000EF4E095E7FB0C942A14E92F0E9479143D
:1025200058F3BA17620773078407950720F079F408
:10253000A6F50C949B140EF4E0950B2EBA2FA02D4B
:102540000B01B90190010C01CA01A0011124FF2760
:10255000591B99F0593F50F4503E68F11A16F0405B
:10256000A22F232F342F4427585FF3CF469537955A
:102570002795A795F0405395C9F77EF41F16BA0B1F
:10258000620B730B840BBAF09150A1F0FF0FBB1FCD
:10259000661F771F881FC2F70EC0BA0F621F731F16
:1025A000841F48F4879577956795B795F7959E3F73
:1025B00008F0B0CF9395880F08F09927EE0F979504
:1025C000879508950E94061408F481E008950E94FA
:1025D000FB120C9468140E94611458F00E945A1463
:1025E00040F029F45F3F29F00C942A1451110C9407
:1025F0009C140C9430140E94791468F39923B1F35D
:10260000552391F3951B550BBB27AA276217730718
:10261000840738F09F5F5F4F220F331F441FAA1FAC
:10262000A9F335D00E2E3AF0E0E832D09150504068
:10263000E695001CCAF72BD0FE2F29D0660F771F16
:10264000881FBB1F261737074807AB07B0E809F0FC
:10265000BB0B802DBF01FF2793585F4F3AF09E3F81
:10266000510578F00C942A140C949C145F3FE4F309
:10267000983ED4F3869577956795B795F7959F5FC4
:10268000C9F7880F911D9695879597F90895E1E010
:10269000660F771F881FBB1F621773078407BA076F
:1026A00020F0621B730B840BBA0BEE1F88F7E095CA
:1026B000089529F416F00C942A140C949B140C948D
:1026C00030140E948114A8F39638A0F707F80F92EF
:1026D000E8942BE33AEA48EB5FE70E9433150F9248
:1026E0000F920F924DB75EB70F920E94E914E8E681
:1026F000F0E00E9433144F915F91EF91FF91E595C7
:10270000EE1FFF1F49F0FE57E0684427EE0F441FFD
:10271000FA95E1F74195550B0E94B3140F9007FE0F
:102720000C94A71408950E949A136894B1110C9404
:102730009C1408950E94811488F09F5798F0B92F37
:102740009927B751B0F0E1F0660F771F881F991FE6
:102750001AF0BA95C9F714C0B13091F00E949B14D9
:10276000B1E008950C949B14672F782F8827B85FE9
:1027700039F0B93FCCF3869577956795B395D9F73E
:102780003EF490958095709561957F4F8F4F9F4F48
:102790000895E89409C097FB3EF490958095709554
:1027A00061957F4F8F4F9F4F9923A9F0F92F96E99D
:1027B000BB279395F695879577956795B795F11112
:1027C000F8CFFAF4BB0F11F460FF1BC06F5F7F4FAF
:1027D0008F4F9F4F16C0882311F096E911C07723C1
:1027E00021F09EE8872F762F05C0662371F096E8CA
:1027F000862F70E060E02AF09A95660F771F881F99
:10280000DAF7880F9695879597F90895990F00083C
:10281000550FAA0BE0E8FEEF16161706E807F907B2
:10282000C0F012161306E407F50798F0621B730B4D
:10283000840B950B39F40A2661F0232B242B252BCE
:1028400021F408950A2609F4A140A6958FEF811D71
:10285000811D089597F99F6780E870E060E0089512
:102860009FEF80EC0895DF93CF931F930F93FF9218
:10287000EF92DF927B018C01689406C0DA2EEF01A3
:102880000E943015FE01E894A5912591359145915E
:102890005591A6F3EF010E948D12FE019701A80148
:1028A000DA9469F7DF90EF90FF900F911F91CF912D
:1028B000DF91089500240A941616170618060906D3
:1028C000089500240A9412161306140605060895A6
:1028D000092E0394000C11F4882352F0BB0F40F42E
:1028E000BF2B11F460FF04C06F5F7F4F8F4F9F4F6E
:1028F000089557FD9058440F551F59F05F3F71F0F0
:102900004795880F97FB991F61F09F3F79F0879556
:102910000895121613061406551FF2CF4695F1DFDF
:1029200008C0161617061806991FF1CF869571056F
:10293000610508940895E894BB2766277727CB01A3
:1029400097F908950E94061408F48FEF08959B01EB
:10295000AC0160E070E080E89FE30C94E7120C9417
:102960002A140C9425160E948114D8F39923C9F3D4
:10297000940F511DA3F39150504094F059F08823C7
:1029800032F0660F771F881F91505040C1F79E3F6D
:1029900051052CF7880F911D9695879597F9089505
:1029A0005F3FACF0983E9CF0BB2786957795679586
:1029B000B79508F4B1609395C1F7BB0F58F711F4C0
:1029C00060FFE8CF6F5F7F4F8F4F9F4FE3CF0C9437
:1029D0009C14FA01DC01AA0FBB1F9B01AC01BF577D
:1029E00028F4222733274427507820C0B75190F489
:1029F000AB2F0024469537952795011CA395D2F35C
:102A0000002071F0220F331F441FB395DAF30ED06C
:102A10000C94751261307105A0E88A07B94630F44C
:102A20009B01AC016627772788279078309621F0A4
:102A3000208331834283538308950E9430150C9480
:102A400068140E945A1438F00E94611420F09523F3
:102A500011F00C942A140C94301411240C949C142E
:102A60000E94791470F3959FC1F3950F50E0551FA4
:102A7000629FF001729FBB27F00DB11D639FAA27D3
:102A8000F00DB11DAA1F649F6627B00DA11D661F22
:102A9000829F2227B00DA11D621F739FB00DA11D43
:102AA000621F839FA00D611D221F749F3327A00DFD
:102AB000611D231F849F600D211D822F762F6A2F99
:102AC00011249F5750409AF0F1F088234AF0EE0FFE
:102AD000FF1FBB1F661F771F881F91505040A9F72B
:102AE0009E3F510580F00C942A140C949C145F3F77
:102AF000E4F3983ED4F3869577956795B795F79567
:102B0000E7959F5FC1F7FE2B880F911D96958795DE
:102B100097F90895FA01EE0FFF1F30962105310550
:102B2000A1F16115710561F48038BFE39B0749F19C
:102B300068949038810561F08038BFEF9B0741F0C1
:102B400099234AF5FF3FE1053105210519F1E89484
:102B50000894E795D901AA2329F4AB2FBE2FF85F7B
:102B6000D0F310C0FF5F70F4A695E0F7F73950F08E
:102B700019F0FF3A38F49F779F930DD00F9007FC20
:102B80009058089546F00C94301460E070E080E8AE
:102B90009FE308954FE79F775F934F933F932F9362
:102BA0000E9442162F913F914F915F910E941D15F7
:102BB0000C94611319F416F40C9430140C9425162B
:102BC0000E948114B8F39923C9F3B6F39F57550BAC
:102BD00087FF0E9433160024A0E640EA9001805847
:102BE0005695979528F4805C660F771F881F20F014
:102BF00026173707480730F4621B730B840B202914
:102C000031294A2BA69517940794202531254A2768
:102C100058F7660F771F881F20F0261737074807D9
:102C200030F4620B730B840B200D311D411DA095F8
:102C300081F7B901842F9158880F9695879508954B
:102C40000E940614880B990B08959F3F31F0915014
:102C500020F4879577956795B795880F911D969580
:102C6000879597F9089591505040660F771F881FF8
:102C7000D2F7089516F00C9425160C94301468942D
:102C80000C942A140E948114A8F39923C1F3AEF383
:102C9000DF93CF931F930F93FF92C92FDD278823D4
:102CA0002AF02197660F771F881FDAF720E030E0BF
:102CB00040E85FEB9FE3883920F0803E38F02196B2
:102CC0008F770E947612E0E9F0E004C00E9476124D
:102CD000EDEBF0E00E9433148B01BE01EC01FB2E02
:102CE0006F5771097595771F880B990B0E94CB134D
:102CF00028E132E741E35FE30E943015AF2D9801F0
:102D0000AE01FF900F911F91CF91DF910E948D1224
:102D10000C9468140F931F93CF93DF938230910527
:102D200010F482E090E0E0916503F091660330E0FA
:102D300020E0B0E0A0E0309799F42115310509F4C6
:102D40004AC0281B390B24303105D8F58A819B8174
:102D50006115710589F1FB0193838283FE0111C026
:102D6000408151810281138148175907E0F04817CB
:102D7000590799F4109761F012960C9312971396D5
:102D80001C933296CF01DF91CF911F910F9108953F
:102D90000093650310936603F4CF2115310551F0BC
:102DA0004217530738F0A901DB019A01BD01DF0189
:102DB000F801C1CFEF01F9CF9093660380936503CB
:102DC000CDCFFE01E20FF31F819391932250310981
:102DD00039832883D7CF2091630330916403232B59
:102DE00041F4209104013091050130936403209354
:102DF000630320910201309103012115310541F453
:102E00002DB73EB74091060150910701241B350BA9
:102E1000E0916303F0916403E217F307A0F42E1B23
:102E20003F0B2817390778F0AC014E5F5F4F24172E
:102E3000350748F04E0F5F1F5093640340936303C0
:102E4000819391939FCFF0E0E0E09CCFCF93DF930D
:102E50000097E9F0FC01329713821282A09165037A
:102E6000B0916603ED0130E020E01097A1F42081DD
:102E70003181820F931F20916303309164032817DF
:102E8000390709F061C0F0936403E0936303DF91B5
:102E9000CF910895EA01CE17DF07E8F54A815B81FB
:102EA0009E0141155105B1F7E901FB83EA83499180
:102EB0005991C40FD51FEC17FD0761F480819181F2
:102EC0000296840F951FE9019983888382819381FB
:102ED0009B838A83F0E0E0E012968D919C9113979A
:102EE0000097B9F52D913C911197CD010296820F73
:102EF000931F20916303309164032817390739F633
:102F0000309751F51092660310926503B0936403F5
:102F1000A0936303BCCFD383C28340815181840FCC
:102F2000951FC817D90761F44E5F5F4F888199815B
:102F3000480F591F518340838A819B8193838283E9
:102F40002115310509F0B0CFF0936603E0936503D6
:102F50009ECFFD01DC01C0CF13821282D7CFF8943F
:022F6000FFCFA1
:102F6200D704000067038000000017000000010082
:102F720018002E00000000002F0045000100000094
:102F820046005C00000000005D00730000000100CC
:102F920074008A00000000008B00A2000100000003
:102FA200A300B90000000000BA00D0000000010038
:102FB200D100E70000000000E800FE000100000070
:102FC200FF0015010000000000012C0100000100BB
:102FD2002D0143010000000044015A0101000000DC
:102FE2005B01710100000000720188010000010014
:102FF20089019F0100000000A001B601010000004C
:10300200B701CE0100000000CF01E5010000010080
:10301200E601FC0100000000FD01130201000000B6
:1030220014022A02000000002B02410200000100EB
:10303200420258020000000059026F020100000023
:10304200700286020000000087029D02000001005B
:103052009E02B40200000000B502CB020100000093
:10306200CC02E20200000000E302FA0200000100CA
:10307200FB021103000000001203280301000000FC
:1030820029033F0300000000400356030000010033
:1030920057036D03000000006E038403010000006B
:1030A2008503E80301000000000000007805D80451
:1030B2000505E0053605140528050D0A00444542BC
:1030C20055473A200066703D002064633D006E6102
:0A30D2006E00696E66006F766600FE
:00000001FF
