:100000000C9422030C944A030C944A030C944A0364
:100010000C944A030C944A030C944A030C944A032C
:100020000C944A030C944A030C944A030C944A031C
:100030000C944A030C9483090C944A030C944A03CD
:100040000C94E1080C944A030C9451090C942B096C
:100050000C944A030C944A030C944A030C944A03EC
:100060000C944A030C944A0307634236B79BD8A703
:100070001A39685618AEBAAB558C1D3CB7CC5763CD
:10008000BD6DEDFD753EF6177231BF000000803F7B
:1000900008000000BE922449123EABAAAA2ABECD97
:1000A000CCCC4C3E00000080BEABAAAAAA3E000009
:1000B0000000BF000000803F000000000008417801
:1000C000D3BB4387D1133D190E3CC3BD4282AD2B38
:1000D0003E68EC8276BED98FE1A93E4C80EFFFBE30
:1000E00001C4FF7F3F0000000000414354494F4ED0
:1000F0003A2052454C4541534520414C4C205052EA
:100100004553535552450020494E484700414354FA
:10011000494F4E3A204D414E55414C4C5920534584
:100120005420505245535355524520544F200028D7
:10013000432920616E6479406272697469736869E9
:10014000646561732E636F6D203230323100566505
:100150007273696F6E20004D65726365646573200C
:10016000563820444A6574204543552054657374BD
:10017000657200456E746572206E657720746872D2
:100180006F74746C6520646972656374696F6E2046
:100190002855206F722044293A00293A002D004545
:1001A0006E746572206E6577207468726F74746CFB
:1001B0006520706F736974696F6E202800293A009A
:1001C0002D00456E746572206E657720656E6769D7
:1001D0006E6520737065656420696E2052504D20F5
:1001E0002800293A002D00456E746572206E6577EF
:1001F000206169722074656D7020696E2064656786
:100200002046202800293A002D00456E7465722092
:100210006E657720636F6F6C616E742074656D70AE
:1002200020696E206465672046202800456E74654D
:10023000722061206E756D62657220616E6420703F
:100240007265737320456E7465723A0020203134F4
:100250002E20536574207468726F74746C6500206E
:100260002031332E2053657420656E67696E6520DA
:10027000737065656400202031322E205365742030
:100280006169722074656D7000202031312E205319
:10029000657420636F6F6C616E742074656D70009F
:1002A000437573746F6D697A653A00202031302E82
:1002B000204861726420616363656C657261746972
:1002C0006F6E00202020392E204D6F64657261749E
:1002D0006520616363656C65726174696F6E00208F
:1002E0002020382E2047656E746C6520616363653D
:1002F0006C65726174696F6E00202020372E204378
:1003000072756973652037304D50480020202036C3
:100310002E204372756973652033304D504800209C
:100320002020352E20486F742069646C65002020E1
:1003300020342E20436F6C642069646C650020209B
:1003400020332E204372616E6B696E67002020207F
:10035000322E204F666600507265736574733A00E2
:10036000202020312E2053686F77206375727265CC
:100370006E742073657474696E6773004D41494EE5
:10038000204D454E55006E6F00796573002C20633B
:1003900072616E6B696E673D002C20656E677370CD
:1003A0006565643D00646563656C00616363656CED
:1003B000006E6F6E65002C207468726F74746C65CB
:1003C0006469723D002C207468726F74746C65707F
:1003D0006F733D002C20636F6F6C616E7474656D7C
:1003E000703D0053657474696E67733A2061697279
:1003F00074656D703D005468726F74746C65207024
:100400006F736974696F6E20616E642064697265D0
:100410006374696F6E20736574004552524F523A8F
:1004200020456E74657265642076616C756520691F
:1004300073206F757473696465206F6620616C6CDE
:100440006F7765642072616E676500456E67696EDF
:100450006520737065656420736574004552524F62
:10046000523A20456E74657265642076616C7565DC
:10047000206973206F757473696465206F662061ED
:100480006C6C6F7765642072616E6765004169729C
:100490002074656D70657261747572652073657422
:1004A000004552524F523A20456E74657265642081
:1004B00076616C7565206973206F75747369646506
:1004C000206F6620616C6C6F7765642072616E6767
:1004D0006500436F6F6C616E742074656D7065723A
:1004E000617475726520736574004552524F523ABB
:1004F00020456E74657265642076616C756520694F
:1005000073206F757473696465206F6620616C6C0D
:100510006F7765642072616E6765004552524F5275
:100520003A20496E76616C696420696E707574005A
:1005300053657420746F2068617264206163636521
:100540006C65726174696F6E0053657420746F20FE
:100550006D6F64657261746520616363656C65725B
:100560006174696F6E0053657420746F2067656EE7
:10057000746C6520616363656C65726174696F6E2C
:100580000053657420746F20637275697365206110
:10059000742037304D50480053657420746F2063C9
:1005A00072756973652061742033304D5048005373
:1005B000657420746F20686F742069646C650053E3
:1005C000657420746F20636F6C642069646C6500CF
:1005D00053657420746F206372616E6B696E67007F
:1005E000456E67696E65207475726E6564206F660E
:1005F000660000000008000201000003040700007C
:1006000000000000000000000000250028002B0072
:1006100000000000240027002A000404040404044D
:1006200004040202020202020303030303030102A1
:100630000408102040800102040810200102040870
:1006400010203B0C11241FBECFEFD8E0DEBFCDBF82
:1006500012E0A0E0B1E0E6E4F4E202C005900D9201
:10066000AE35B107D9F723E0AEE5B2E001C01D9287
:10067000AB32B207E1F713E0C2E2D3E004C0219746
:10068000FE010E94000DC132D107C9F70E94AA09DC
:100690000C9421120C94000090E0FC01E25DF94FF3
:1006A0002491865E994FFC018491882399F090E013
:1006B000880F991FFC01E05FF94FA591B491FC01EF
:1006C000EA5FF94F859194918FB7F894EC91E22B02
:1006D000EC938FBF089590E0FC01EE50FA4F249107
:1006E000FC01E25DF94F3491FC01E65EF94FE491C3
:1006F000EE23C9F0222339F0233001F1A8F4213090
:1007000019F1223029F1F0E0EE0FFF1FEA5FF94FF7
:10071000A591B4918FB7F894EC91611126C03095F2
:100720003E233C938FBF08952730A9F02830C9F0AD
:10073000243049F7809180008F7D03C08091800034
:100740008F7780938000DFCF84B58F7784BDDBCF38
:1007500084B58F7DFBCF8091B0008F778093B00000
:10076000D2CF8091B0008F7DF9CF3E2BDACF0F939F
:100770001F93CF93DF93EC0109811A818D819E81B4
:1007800001969E838D83019781F48CB58F7D8CBDFE
:100790008CB5837F8CBD8CB583608CBD8DB58E7F11
:1007A0008DBD60E088810E946B0384E0000F111F03
:1007B0008A95E1F702600EBD00000DB407FEFDCF83
:1007C00011E00EB401FC12C010E08D819E810197F2
:1007D0009E838D83892B21F461E088810E946B03C5
:1007E000812FDF91CF911F910F9108951EBC0000C2
:1007F0000DB407FEFDCF8EB5E8CF0895E1E8F0E037
:1008000080E1808383E080936A0280E593EC90939B
:1008100087008093860083E1808310821092850098
:100820001092840080916A02806180830895AF9263
:10083000BF92CF92DF92EF92FF920F931F93CF93CD
:10084000DF936C017B018B01040F151FEB015E012F
:10085000AE18BF08C017D10759F06991D601ED91C4
:10086000FC910190F081E02DC6010995892B79F763
:10087000C501DF91CF911F910F91FF90EF90DF9015
:10088000CF90BF90AF900895FC01538D448D252FDC
:1008900030E0842F90E0821B930B541710F0CF961A
:1008A000089501970895FC01918D828D981761F04C
:1008B000A28DAE0FBF2FB11D5D968C91928D9F5F63
:1008C0009F73928F90E008958FEF9FEF0895FC0142
:1008D000918D828D981731F0828DE80FF11D858DF5
:1008E00090E008958FEF9FEF0895FC01918D228D88
:1008F000892F90E0805C9F4F821B91098F7399270D
:1009000008958AE892E00E94750421E0892B09F499
:1009100020E0822F089580E090E0892B29F00E944A
:10092000810481110C9400000895FC01A48DA80F8E
:10093000B92FB11DA35ABF4F2C91848D90E0019621
:100940008F739927848FA689B7892C93A089B18941
:100950008C91837080648C93938D848D981306C0E2
:100960000288F389E02D80818F7D80830895EF9246
:10097000FF920F931F93CF93DF93EC0181E0888F59
:100980009B8D8C8D98131AC0E889F989808185FF29
:1009900015C09FB7F894EE89FF896083E889F989CB
:1009A00080818370806480839FBF81E090E0DF91CD
:1009B000CF911F910F91FF90EF900895F62E0B8D20
:1009C00010E00F5F1F4F0F731127E02E8C8D8E11DB
:1009D0000CC00FB607FCFACFE889F989808185FF42
:1009E000F5CFCE010E949504F1CFEB8DEC0FFD2FDA
:1009F000F11DE35AFF4FF0829FB7F8940B8FEA89FD
:100A0000FB8980818062CFCF0F931F93CF93DF93B9
:100A10008C01D0E0C0E0F801EC0FFD1F649166236B
:100A200041F08AE892E00E94B704892B11F02196E8
:100A3000F2CFCE01DF91CF911F910F910895CF9307
:100A4000DF93EC01888D8823B9F0AA89BB89E889F6
:100A5000F9898C9185FD03C0808186FD0DC00FB69C
:100A600007FCF7CF8C9185FFF2CF808185FFEDCF1A
:100A7000CE010E949504E9CFDF91CF910895CF93E5
:100A8000CFB7F89480916902811124C0E4E2F6E0C6
:100A90008491E8E3F6E09491E82FF0E0EE0FFF1F79
:100AA000E05FF94FA591B491EC91E92321F461E065
:100AB0008AE00E946B038AE00E944C038CB580613F
:100AC0008CBD8CB580648CBD8DE00E944C038BE0A6
:100AD0000E944C03809169028F5F80936902CFBFAF
:100AE000CF9108950F931F93CF93DF93EC018B0168
:100AF0009093660280936502709364026093630230
:100B0000039734F461E08EE00E946B0360E008C05C
:100B100060E08EE00E946B0361E0CA35D105B4F35A
:100B200088E00E946B030230110509F448C08AE096
:100B30008C9F90018D9F300D1124293E83E0380752
:100B400014F028EE33E037FF02C030E020E0E8E0A8
:100B5000F1E0D0E0C0E040815181241735072CF14D
:100B6000428153814217530704F183E0CC0FDD1F0C
:100B70008A95E1F7FE01E85FFE4F8481958161E08F
:100B8000019709F060E080E10E946B03C85FDE4FCF
:100B90008E819F8161E0019709F060E08FE0DF9135
:100BA000CF911F910F910C946B0321963896C83208
:100BB000D10589F6DF91CF911F910F91089560E0E3
:100BC00080E10E946B03E9CFCF93DF93EC0180E1DA
:100BD0008093810060E089E00E946B0360E085E023
:100BE0000E946B0360E086E00E946B0360E083E09C
:100BF0000E946B03D0936802C09367021C161D0607
:100C0000BCF483E080936A0284E294EF90938700BF
:100C10008093860083E1809381001092810010927E
:100C200085001092840080916A0280618093810027
:100C3000DF91CF9108958F929F92AF92BF920F93C1
:100C40001F93CF93DF93CDB7DEB7A1970FB6F8947C
:100C5000DEBF0FBECDBF19A2423008F44AE08E01BC
:100C60000F5D1F4F842E912CB12CA12CA501940156
:100C70000E94DE0CE62FB901CA01EA3044F5E05DBE
:100C8000D801EE938D01232B242B252B79F790E0AF
:100C900080E0109769F0FD0101900020E9F731979D
:100CA000AF014A1B5B0BBD018AE892E00E9417046A
:100CB000A1960FB6F894DEBF0FBECDBFDF91CF91E6
:100CC0001F910F91BF90AF909F908F900895E95C16
:100CD000D7CF42E050E06AE572E08AE892E00C94F7
:100CE0001704CF93DF930E940405EC010E9469066C
:100CF0008C0F9D1FDF91CF910895CF92DF92EF92DD
:100D0000FF92CF93DF936C01990FEE08FF08F7FE77
:100D100019C06DE28AE892E00E94B704EC016627F0
:100D20007727CB016C197D098E099F094AE00E9443
:100D30001B068C0F9D1FDF91CF91FF90EF90DF90EE
:100D4000CF9008954AE0C701B601DF91CF91FF909F
:100D5000EF90DF90CF900C941B068F929F92AF92F2
:100D6000BF92CF92DF92EF92FF921F93CF93DF93C8
:100D70000E946906E0906702F0906802A0906F02FE
:100D8000B0907002C0906502D0906602C09163027C
:100D9000D091640280905F029090600210915E0298
:100DA00083EE93E00E940405C4010E947D0684ED59
:100DB00093E00E940405C5010E947D0685EC93E046
:100DC0000E940405C6010E947D0686EB93E00E9406
:100DD00004058BEA93E0C130D10531F081EB93E05B
:100DE000229711F485EA93E00E94040589E993E0D3
:100DF0000E940405C7010E947D068DE893E00E94D1
:100E0000040586E893E0112311F089E893E0DF916F
:100E1000CF911F91FF90EF90DF90CF90BF90AF9058
:100E20009F908F900C947106809173029091740240
:100E30008C30910509F472C034F4009779F00B9767
:100E400009F458C008958E30910509F48DC00CF452
:100E500078C08436910509F49AC008950E94690605
:100E60008CE793E00E94710680E693E00E94710691
:100E700087E593E00E9471068DE493E00E9471067D
:100E80008EE393E00E9471068EE293E00E94710669
:100E90008FE193E00E9471068CE093E00E9471065E
:100EA00089EF92E00E9471068FED92E00E94710638
:100EB00083EC92E00E9471068BEA92E00E94710638
:100EC00080EA92E00E94710689E892E00E94710631
:100ED00086E792E00E9471068FE592E00E9471061B
:100EE0008CE492E00E9471060E9469068CE292E016
:100EF0000C9471068AE092E00E94040590E080E084
:100F00000E947D0688E092E00E9404058AEF90E04E
:100F10000E947D0685E092E00C94040587EE91E046
:100F20000E94040590E080E00E947D0685EE91E03D
:100F30000E94040588E790E00E947D0682EE91E021
:100F4000EBCF82EC91E00E94040584EF91E00E94D7
:100F50007D0680EC91E00E94040584E699E10E9400
:100F60007D068DEB91E0D8CF8FE991E00E940405DA
:100F700090E080E00E947D068DE991E00E940405EA
:100F800084E690E00E947D068AE991E0C5CF83E780
:100F900091E0C2CF87E591E00E9471068EE491E076
:100FA0000E94040581E090E00E947D060E9469068F
:100FB0008FE291E00E9471060C94690620915F0215
:100FC000309160022817390751F0909360028093A6
:100FD0005F0280916B0290916C020C94B7030895AC
:100FE0004F925F926F927F928F929F92AF92BF9239
:100FF000CF92DF92EF92FF929C012052310945E09F
:10100000429FC001439F900D112469E070E00E944F
:10101000CA0C072E000C880B990B0E946B0E23E361
:1010200033E948E853E40E941B0D9B01AC0160E0EA
:1010300070E080E89FE30E94870D9B01AC0169EEA0
:101040007EE98AEA9AE30E941A0D21EE31EC49E327
:1010500054E30E94870D6B017C01AC019B010E944F
:10106000940F20E030E040E85EE30E94940F21E21C
:101070003EE44CEE5CE40E941B0D0E9457104B01B5
:101080005C0120E030E040E05FE3C701B6010E9470
:10109000940F6B017C01AC019B01C501B4010E945E
:1010A0001A0D2BEA3AEA4AEA5EE30E9401102B018C
:1010B0003C01A5019401C701B6010E941B0D2BEA5A
:1010C0003AEA4AEA5EE30E9401109B01AC01C301C7
:1010D000B2010E941A0D0E94010E0E94330ECB0134
:1010E000FF90EF90DF90CF90BF90AF909F908F9048
:1010F0007F906F905F904F900895AF92BF92CF9284
:10110000DF92EF920F931F93CF93DF93EB016A016E
:1011100059010E94E40580916F0290917002C817F6
:10112000D90751F0D0937002C0936F0280916D0285
:1011300090916E020E94B703B501C6010E9472052C
:101140000F3F100709F18DE091E00E940405C801EE
:101150000E947D0687E091E00E9471061093620272
:1011600000936102E0925E0261E0E11001C060E084
:1011700087E0DF91CF911F910F91EF90DF90CF909B
:10118000BF90AF900C946B038091610290916202CA
:10119000019621F38AEE90E0DFCFEF920F931F9339
:1011A000E12C0FEF1FEF30E020E050E040E068E47A
:1011B00070E090E080E00E947D081F910F91EF9019
:1011C00008951F920F920FB60F9211242F933F9301
:1011D0008F939F93AF93BF938091860290918702E4
:1011E000A0918802B09189023091850223E0230FFB
:1011F0002D3758F50196A11DB11D209385028093CE
:10120000860290938702A0938802B093890280910E
:10121000810290918202A0918302B0918402019692
:10122000A11DB11D8093810290938202A09383023D
:10123000B0938402BF91AF919F918F913F912F9175
:101240000F900FBE0F901F90189526E8230F02965F
:10125000A11DB11DD2CF1F920F920FB60F92112474
:101260002F933F934F935F936F937F938F939F93AE
:10127000AF93BF93EF93FF938AE892E00E949504A7
:10128000FF91EF91BF91AF919F918F917F916F915E
:101290005F914F913F912F910F900FBE0F901F9034
:1012A00018951F920F920FB60F9211242F938F93C0
:1012B0009F93EF93FF93E0919A02F0919B028081BC
:1012C000E091A002F091A10282FD1BC0908180916B
:1012D000A3028F5F8F732091A402821741F0E091E7
:1012E000A302F0E0E657FD4F958F8093A302FF9194
:1012F000EF919F918F912F910F900FBE0F901F90A4
:1013000018958081F4CF1F920F920FB60F9211247F
:101310002F933F934F935F936F937F938F939F93FD
:10132000AF93BF93EF93FF93E0910001F091010120
:101330000995FF91EF91BF91AF919F918F917F910F
:101340006F915F914F913F912F910F900FBE0F9032
:101350001F901895789484B5826084BD84B58160AF
:1013600084BD85B5826085BD85B5816085BD809170
:101370006E00816080936E001092810080918100E8
:1013800082608093810080918100816080938100E0
:10139000809180008160809380008091B1008460A2
:1013A0008093B1008091B00081608093B000809103
:1013B0007A00846080937A0080917A0082608093C2
:1013C0007A0080917A00816080937A0080917A001F
:1013D000806880937A001092C100E0919A02F091A7
:1013E0009B0282E08083E0919A02F0919B0210823E
:1013F000E0919602F09197021082E0919802F091AC
:10140000990210E110831092A202E0919E02F091E5
:101410009F0286E08083E0919C02F0919D02808192
:1014200080618083E0919C02F0919D0280818860C0
:101430008083E0919C02F0919D028081806880838E
:10144000E0919C02F0919D0280818F7D80838AE8EB
:1014500092E00E941F050E94CA0710927402109227
:1014600073020E94140787E090E00E94FC10EC01D8
:1014700083E188831A821982C12CDD24D394DC8213
:10148000CB821E821D820E943F0588810E944C03F0
:1014900061E088810E946B03D0936C02C0936B0261
:1014A00087E090E00E94FC10EC0182E188831A82C0
:1014B0001982DC82CB821E821D820E943F058881B8
:1014C0000E944C0361E088810E946B03D0936E02FE
:1014D000C0936D02109381001092800081E0809390
:1014E0006A02109287001092860091E19093810029
:1014F0002EEF33E0309301012093000180936F00C1
:101500001093810060E089E00E946B0360E085E059
:101510000E946B0360E086E00E946B0360E083E062
:101520000E946B0361E081E10E946B030E94CD0881
:1015300088E490E00E94DE0790E0C92E90E0D92E6A
:1015400024E6A22EB12C8AE892E00E94670401965C
:1015500019F18AE892E00E9453048C01682F8AE80E
:1015600092E00E94B7040A301105B1F0C0917F02E9
:10157000D091800200331105CCF0CE0101969093FA
:10158000800280937F02CB58DD4F0883099721F4B6
:101590001092800210927F02C114D104A1F20E9425
:1015A0008104882381F20E940000CDCF083011050C
:1015B00049F41C161D0684F72197D0938002C0932E
:1015C0007F02EACF8AE892E00E941F05CB58DD4FE8
:1015D00018821092800210927F02209175022111D0
:1015E00007C00E94CA071092740210927302B1C021
:1015F0008091730290917402009709F0B2C085E760
:1016000092E00E94680CFC013197EE30F10508F081
:10161000A3C0E35FF44F0C94000D210B1B0B240BB4
:10162000350B450B550B650B750B850B950BA50BFA
:10163000A50BA50BA50B0E94CD0880EE95E00E949E
:1016400071060E94AD06CFCFEE24E3940FEF1FEF9B
:1016500030E020E050E040E068E470E090E080E0BE
:101660000E947D0880ED95E0EACFE12C0FE010E0CC
:1016700030E020E050E040E068E470E080EB94E08F
:101680000E947D088FEB95E0DACFE12C0FE010E0AF
:1016900030E020E050E040E069EB70E08CEB92E05D
:1016A0000E947D088FEA95E0CACFE12C0BE010E0A4
:1016B00021E030E04AEA50E069EB70E088E795E02D
:1016C0000E947D0888E995E0BACFE12C0BE010E09C
:1016D00021E030E04AEF50E069EB70E088EB9BE0FE
:1016E0000E947D0881E895E0AACFE12C09E010E096
:1016F00021E030E04CE251E069EB70E088E097E0F7
:101700000E947D0886E695E09ACFE12C07E010E084
:1017100021E030E044EF51E069EB70E08CEA9DE0BD
:101720000E947D0889E495E08ACFE12C02E010E078
:1017300021E030E046EB53E069EB70E080E797E1B1
:101740000E947D0880E395E07ACF909374028093A5
:1017500073020E94140720CF8BE195E00E9471066E
:10176000F8CF8D30910509F458C0ACF48B30910559
:1017700051F10C9709F010CF85E792E00E94860C9A
:101780006937710508F443C00E9469060E94690622
:1017900081EA94E025C08E30910509F455C0843665
:1017A000910509F0F9CE2F7D62E070E0253511F446
:1017B00061E070E080917102909172020E94720566
:1017C00086EF93E03CCF85E792E00E94860C6B3F6A
:1017D000710548F00E9469060E9469068AEE94E04D
:1017E0000E94710600CF20916F023091700226177F
:1017F000370751F07093700260936F0280916D0211
:1018000090916E020E94B70382ED94E018CFCB0155
:101810000E94DE078DE894E012CF85E792E00E94F7
:10182000860C9B01245F31402137374138F00E94FC
:1018300069060E9469068CE594E0D2CFCB010E9434
:10184000E4058BE494E0FBCE85E792E00E94860CF1
:1018500070937202609371026536710538F00E94D0
:1018600069060E9469068AE194E0BACFB0927402D8
:10187000A09273026ECFEAE8F2E01382128288EE41
:1018800093E0A0E0B0E084839583A683B7838CE4E3
:1018900092E09183808385EC90E09587848784EC47
:1018A00090E09787868780EC90E0918B808B81EC2D
:1018B00090E0938B828B82EC90E0958B848B86EC0E
:1018C00090E0978B868B118E128E138E148E089556
:1018D000FC0188279927E89421912032E9F32930E7
:1018E00010F02E30C8F32B3241F02D3239F46894C9
:1018F00004C00E94C20C820F911D219120532A30F6
:10190000C0F31EF4909581959F4F08951F93FC019D
:1019100099278827BC01E89411911032E9F3193016
:1019200010F01E30C8F31B3251F01D3249F4689498
:1019300006C00E94AD0C610F711D811D911D11919A
:1019400010531A30B0F33EF49095809570956195E0
:101950007F4F8F4F9F4F1F910895592F482F372F3B
:10196000262F660F771F881F991F660F771F881F06
:10197000991F620F731F841F951F660F771F881FA3
:10198000991F08957AE0979F902D879F802D910D44
:101990001124089597FB072E16F4009407D077FDC5
:1019A00009D00E94060D07FC05D03EF49095819564
:1019B0009F4F0895709561957F4F0895A1E21A2E6B
:1019C000AA1BBB1BFD010DC0AA1FBB1FEE1FFF1FE3
:1019D000A217B307E407F50720F0A21BB30BE40B33
:1019E000F50B661F771F881F991F1A9469F760957A
:1019F0007095809590959B01AC01BD01CF01089534
:101A0000EE0FFF1F0590F491E02D0994AA1BBB1B5C
:101A100051E107C0AA1FBB1FA617B70710F0A61BEE
:101A2000B70B881F991F5A95A9F780959095BC010F
:101A3000CD0108955058BB27AA270E94320D0C945F
:101A4000E40E0E94D60E38F00E94DD0E20F039F42C
:101A50009F3F19F426F40C94AC0E0EF4E095E7FBCE
:101A60000C94A60EE92F0E94F50E58F3BA176207E0
:101A700073078407950720F079F4A6F50C94170FE7
:101A80000EF4E0950B2EBA2FA02D0B01B901900199
:101A90000C01CA01A0011124FF27591B99F0593FDD
:101AA00050F4503E68F11A16F040A22F232F342F25
:101AB0004427585FF3CF469537952795A795F04073
:101AC0005395C9F77EF41F16BA0B620B730B840B88
:101AD000BAF09150A1F0FF0FBB1F661F771F881F40
:101AE000C2F70EC0BA0F621F731F841F48F4879598
:101AF00077956795B795F7959E3F08F0B0CF93958A
:101B0000880F08F09927EE0F9795879508950E9402
:101B10009B0D0C94E40E0E94DD0E58F00E94D60E30
:101B200040F029F45F3F29F00C94A60E51110C945B
:101B3000180F0C94AC0E0E94F50E68F39923B1F3C4
:101B4000552391F3951B550BBB27AA2762177307E3
:101B5000840738F09F5F5F4F220F331F441FAA1F77
:101B6000A9F335D00E2E3AF0E0E832D09150504033
:101B7000E695001CCAF72BD0FE2F29D0660F771FE1
:101B8000881FBB1F261737074807AB07B0E809F0C7
:101B9000BB0B802DBF01FF2793585F4F3AF09E3F4C
:101BA000510578F00C94A60E0C94180F5F3FE4F3E7
:101BB000983ED4F3869577956795B795F7959F5F8F
:101BC000C9F7880F911D9695879597F90895E1E0DB
:101BD000660F771F881FBB1F621773078407BA073A
:101BE00020F0621B730B840BBA0BEE1F88F7E09595
:101BF000089529F416F00C94A60E0C94170F0C946B
:101C0000AC0E0E94FD0EA8F39638A0F707F80F92CD
:101C1000E8942BE33AEA48EB5FE70E94AA0F0F92A1
:101C20000F920F924DB75EB70F920E94600FE8E6D9
:101C3000F0E00E94AF0E4F915F91EF91FF91E5951B
:101C4000EE1FFF1F49F0FE57E0684427EE0F441FC8
:101C5000FA95E1F74195550B0E942A0F0F9007FE68
:101C60000C941E0F08950E943A0E6894B1110C94C2
:101C7000180F08950E94FD0E88F09F5798F0B92F15
:101C80009927B751B0F0E1F0660F771F881F991FB1
:101C90001AF0BA95C9F714C0B13091F00E94170F2D
:101CA000B1E008950C94170F672F782F8827B85F3D
:101CB00039F0B93FCCF3869577956795B395D9F709
:101CC0003EF490958095709561957F4F8F4F9F4F13
:101CD0000895E89409C097FB3EF49095809570951F
:101CE00061957F4F8F4F9F4F9923A9F0F92F96E968
:101CF000BB279395F695879577956795B795F111DD
:101D0000F8CFFAF4BB0F11F460FF1BC06F5F7F4F79
:101D10008F4F9F4F16C0882311F096E911C077238B
:101D200021F09EE8872F762F05C0662371F096E894
:101D3000862F70E060E02AF09A95660F771F881F63
:101D4000DAF7880F9695879597F9089597F99F6721
:101D500080E870E060E008959FEF80EC0895DF93E5
:101D6000CF931F930F93FF92EF92DF927B018C0131
:101D7000689406C0DA2EEF010E94A70FFE01E894D6
:101D8000A5912591359145915591A6F3EF010E94BA
:101D9000320DFE019701A801DA9469F7DF90EF9008
:101DA000FF900F911F91CF91DF91089500240A9425
:101DB0001616170618060906089500240A94121626
:101DC0001306140605060895092E0394000C11F459
:101DD000882352F0BB0F40F4BF2B11F460FF04C006
:101DE0006F5F7F4F8F4F9F4F089557FD9058440F5F
:101DF000551F59F05F3F71F04795880F97FB991F6A
:101E000061F09F3F79F08795089512161306140626
:101E1000551FF2CF4695F1DF08C0161617061806B3
:101E2000991FF1CF86957105610508940895E8948E
:101E3000BB2766277727CB0197F908959B01AC0153
:101E400060E070E080E89FE30C94870D0C94A60E90
:101E50000C9497100E94FD0ED8F39923C9F3940FA8
:101E6000511DA3F39150504094F059F0882332F063
:101E7000660F771F881F91505040C1F79E3F510554
:101E80002CF7880F911D9695879597F908955F3FD8
:101E9000ACF0983E9CF0BB27869577956795B795F3
:101EA00008F4B1609395C1F7BB0F58F711F460FFC8
:101EB000E8CF6F5F7F4F8F4F9F4FE3CF0C94180F8A
:101EC000FA01DC01AA0FBB1F9B01AC01BF5728F42C
:101ED000222733274427507820C0B75190F4AB2FE6
:101EE0000024469537952795011CA395D2F3002031
:101EF00071F0220F331F441FB395DAF30ED00C9408
:101F00001A0D61307105A0E88A07B94630F49B01CB
:101F1000AC016627772788279078309621F02083B8
:101F200031834283538308950E94A70F0C94E40EDB
:101F30000E94D60E38F00E94DD0E20F0952311F09D
:101F40000C94A60E0C94AC0E11240C94180F0E9445
:101F5000F50E70F3959FC1F3950F50E0551F629FEA
:101F6000F001729FBB27F00DB11D639FAA27F00DF2
:101F7000B11DAA1F649F6627B00DA11D661F829F19
:101F80002227B00DA11D621F739FB00DA11D621FFE
:101F9000839FA00D611D221F749F3327A00D611D1B
:101FA000231F849F600D211D822F762F6A2F1124FD
:101FB0009F5750409AF0F1F088234AF0EE0FFF1F30
:101FC000BB1F661F771F881F91505040A9F79E3F87
:101FD000510580F00C94A60E0C94180F5F3FE4F3AB
:101FE000983ED4F3869577956795B795F795E795DD
:101FF0009F5FC1F7FE2B880F911D9695879597F9E6
:102000000895FA01EE0FFF1F309621053105A1F169
:102010006115710561F48038BFE39B0749F168944D
:102020009038810561F08038BFEF9B0741F099231C
:102030004AF5FF3FE1053105210519F1E8940894BF
:10204000E795D901AA2329F4AB2FBE2FF85FD0F36F
:1020500010C0FF5F70F4A695E0F7F73950F019F063
:10206000FF3A38F49F779F930DD00F9007FC90585C
:10207000089546F00C94AC0E60E070E080E89FE3B9
:1020800008954FE79F775F934F933F932F930E945D
:10209000B4102F913F914F915F910E94940F0C9437
:1020A000010E19F416F40C94AC0E0C9497100E94C7
:1020B000FD0EB8F39923C9F3B6F39F57550B87FF6D
:1020C0000E94A5100024A0E640EA90018058569591
:1020D000979528F4805C660F771F881F20F02617DD
:1020E0003707480730F4621B730B840B2029312912
:1020F0004A2BA69517940794202531254A2758F78F
:10210000660F771F881F20F026173707480730F41F
:10211000620B730B840B200D311D411DA09581F7BF
:10212000B901842F9158880F9695879508959F3F00
:1021300031F0915020F4879577956795B795880F82
:10214000911D9695879597F9089591505040660F87
:10215000771F881FD2F7089516F00C9497100C94EF
:10216000AC0E68940C94A60E0E94FD0EA8F3992361
:10217000C1F3AEF3DF93CF931F930F93FF92C92F59
:10218000DD2788232AF02197660F771F881FDAF74B
:1021900020E030E040E85FEB9FE3883920F0803EAC
:1021A00038F021968F770E941B0DE0E9F0E004C023
:1021B0000E941B0DEDEBF0E00E94AF0E8B01BE0103
:1021C000EC01FB2E6F5771097595771F880B990BE2
:1021D0000E946B0E28E132E741E35FE30E94A70F04
:1021E000AF2D9801AE01FF900F911F91CF91DF911C
:1021F0000E94320D0C94E40E0F931F93CF93DF9344
:102200008230910510F482E090E0E0912903F09192
:102210002A0330E020E0B0E0A0E0309799F42115E7
:10222000310509F44AC0281B390B24303105D8F593
:102230008A819B816115710589F1FB0193838283FA
:10224000FE0111C040815181028113814817590755
:10225000E0F04817590799F4109761F012960C9323
:10226000129713961C933296CF01DF91CF911F9155
:102270000F9108950093290310932A03F4CF211599
:10228000310551F04217530738F0A901DB019A01DB
:10229000BD01DF01F801C1CFEF01F9CF90932A030F
:1022A00080932903CDCFFE01E20FF31F8193919319
:1022B0002250310939832883D7CF209127033091C9
:1022C0002803232B41F42091040130910501309320
:1022D0002803209327032091020130910301211547
:1022E000310541F42DB73EB74091060150910701E9
:1022F000241B350BE0912703F0912803E217F30725
:10230000A0F42E1B3F0B2817390778F0AC014E5F65
:102310005F4F2417350748F04E0F5F1F5093280377
:1023200040932703819391939FCFF0E0E0E09CCF0F
:10233000CF93DF930097E9F0FC013297138212826A
:10234000A0912903B0912A03ED0130E020E010971D
:10235000A1F420813181820F931F209127033091B6
:1023600028032817390709F061C0F0932803E09388
:102370002703DF91CF910895EA01CE17DF07E8F533
:102380004A815B819E0141155105B1F7E901FB834B
:10239000EA8349915991C40FD51FEC17FD0761F4E9
:1023A000808191810296840F951FE901998388832A
:1023B000828193819B838A83F0E0E0E012968D9185
:1023C0009C9113970097B9F52D913C911197CD01F0
:1023D0000296820F931F209127033091280328171C
:1023E000390739F6309751F510922A0310922903D4
:1023F000B0932803A0932703BCCFD383C28340812B
:102400005181840F951FC817D90761F44E5F5F4F44
:1024100088819981480F591F518340838A819B810C
:10242000938382832115310509F0B0CFF0932A03FD
:10243000E09329039ECFFD01DC01C0CF13821282FD
:06244000D7CFF894FFCF96
:10244600FD0300002B0380000000170000000100C0
:1024560018002E00000000002F00450001000000BB
:1024660046005C00000000005D00730000000100F3
:1024760074008A00000000008B00A200010000002A
:10248600A300B90000000000BA00D000000001005F
:10249600D100E70000000000E800FE000100000097
:1024A600FF0015010000000000012C0100000100E2
:1024B6002D0143010000000044015A010100000003
:1024C6005B0171010000000072018801000001003B
:1024D60089019F0100000000A001B6010100000073
:1024E600B701CE0100000000CF01E50100000100A8
:1024F600E601FC0100000000FD01130201000000DE
:1025060014022A02000000002B0241020000010012
:10251600420258020000000059026F02010000004A
:10252600700286020000000087029D020000010082
:102536009E02B40200000000B502CB0201000000BA
:10254600CC02E20200000000E302FA0200000100F1
:10255600FB02110300000000120328030100000023
:1025660029033F030000000040035603000001005A
:1025760057036D03000000006E0384030100000092
:102586008503E8030100000000000000B7041704FB
:0E25960044041F057504530467040D0A000079
:00000001FF
