:100000000C9484020C94AC020C94AC020C94AC02E0
:100010000C94AC020C94AC020C94AC020C94AC02A8
:100020000C94AC020C94AC020C94AC020C94AC0298
:100030000C94AC020C94AC020C94AC020C94AC0288
:100040000C94AD050C94AC020C941D060C94F705B1
:100050000C94AC020C94AC020C94AC020C94AC0268
:100060000C94AC020C94AC0220494E48470041432A
:1000700054494F4E3A204D414E55414C4C5420531B
:10008000455420505245535355524520544F20005B
:1000900028432920616E64794062726974697368CB
:1000A00069646561732E636F6D20323032310056A2
:1000B000657273696F6E20004D6572636564657368
:1000C00020563820444A65742045435520546573B2
:1000D00074657200456E746572206E657720746871
:1000E000726F74746C6520646972656374696F6E95
:1000F000202855206F722044293A00293A002D000B
:10010000456E746572206E6577207468726F7474C2
:100110006C6520706F736974696F6E202800293ACE
:10012000002D00456E746572206E657720656E67E0
:10013000696E6520737065656420696E2052504D4C
:10014000202800293A002D00456E746572206E65E6
:1001500077206169722074656D7020696E20646516
:10016000672046202800293A002D00456E746572EC
:10017000206E657720636F6F6C616E742074656D9F
:100180007020696E206465672046202800456E74E3
:1001900065722061206E756D62657220616E6420EB
:1001A000707265737320456E7465723A0020203159
:1001B000322E20536574207468726F74746C6500FD
:1001C000202031312E2053657420656E67696E657D
:1001D00020737065656400202031302E20536574D3
:1001E000206169722074656D7000202020392E20F6
:1001F00053657420636F6F6C616E742074656D70ED
:1002000000437573746F6D697A653A002020203859
:100210002E204861726420616363656C657261744D
:10022000696F6E00202020372E204D6F646572614B
:10023000746520616363656C65726174696F6E00DB
:10024000202020362E2047656E746C652061636324
:10025000656C65726174696F6E00202020352E20F8
:100260004372756973652037304D50480020202057
:10027000342E204372756973652033304D50480029
:10028000202020332E20486F742069646C65002084
:100290002020322E20436F6C642069646C6500500E
:1002A0007265736574733A00202020312E205368E4
:1002B0006F772063757272656E74207365747469EC
:1002C0006E6773004D41494E204D454E55002C2020
:1002D000656E6773706565643D00646563656C0099
:1002E000616363656C006E6F6E65002C20746872CC
:1002F0006F74746C656469723D002C207468726F51
:1003000074746C65706F733D002C20636F6F6C614B
:100310006E7474656D703D0053657474696E6773B7
:100320003A2061697274656D703D005468726F7433
:10033000746C6520706F736974696F6E20616E6490
:1003400020646972656374696F6E2073657400451B
:1003500052524F523A20456E746572656420766140
:100360006C7565206973206F757473696465206F9F
:100370006620616C6C6F7765642072616E676500E2
:10038000456E67696E65207370656564207365747A
:10039000004552524F523A20456E74657265642092
:1003A00076616C7565206973206F75747369646517
:1003B000206F6620616C6C6F7765642072616E6778
:1003C00065004169722074656D7065726174757243
:1003D0006520736574004552524F523A20456E7441
:1003E000657265642076616C7565206973206F7530
:1003F0007473696465206F6620616C6C6F776564E7
:100400002072616E676500436F6F6C616E7420745B
:10041000656D7065726174757265207365740045F1
:1004200052524F523A20456E74657265642076616F
:100430006C7565206973206F757473696465206FCE
:100440006620616C6C6F7765642072616E67650011
:100450004552524F523A20496E76616C6964206968
:100460006E7075740053657420746F2068617264D7
:1004700020616363656C65726174696F6E005365BA
:100480007420746F206D6F646572617465206163A0
:1004900063656C65726174696F6E00536574207476
:1004A0006F2067656E746C6520616363656C65724F
:1004B0006174696F6E0053657420746F2063727588
:1004C0006973652061742037304D5048005365745E
:1004D00020746F20637275697365206174203330F6
:1004E0004D50480053657420746F20686F74206904
:1004F000646C650053657420746F20636F6C6420B6
:1005000069646C6500003A0811241FBECFEFD8E083
:10051000DEBFCDBF11E0A0E0B1E0E6EEF1E102C048
:1005200005900D92A631B107D9F721E0A6E1B1E01F
:1005300001C01D92A83DB207E1F712E0C4E8D2E085
:1005400004C02197FE010E94EB08C338D107C9F708
:100550000E944F060C94F1080C940000AF92BF92D9
:10056000CF92DF92EF92FF920F931F93CF93DF937F
:100570006C017B018B01040F151FEB015E01AE18AE
:10058000BF08C017D10759F06991D601ED91FC91D0
:100590000190F081E02DC6010995892B79F7C501FD
:1005A000DF91CF911F910F91FF90EF90DF90CF904F
:1005B000BF90AF900895FC01538D448D252F30E0FE
:1005C000842F90E0821B930B541710F0CF96089560
:1005D00001970895FC01918D828D981761F0A28D8D
:1005E000AE0FBF2FB11D5D968C91928D9F5F9F7353
:1005F000928F90E008958FEF9FEF0895FC01918D09
:10060000828D981731F0828DE80FF11D858D90E075
:1006100008958FEF9FEF0895FC01918D228D892F12
:1006200090E0805C9F4F821B91098F7399270895FA
:100630008BE391E00E940C0321E0892B09F420E078
:10064000822F089580E090E0892B29F00E94180302
:1006500081110C9400000895FC01A48DA80FB92FFE
:10066000B11DA35ABF4F2C91848D90E001968F73DA
:100670009927848FA689B7892C93A089B1898C91F9
:10068000837080648C93938D848D981306C0028848
:10069000F389E02D80818F7D80830895EF92FF9212
:1006A0000F931F93CF93DF93EC0181E0888F9B8D95
:1006B0008C8D98131AC0E889F989808185FF15C04F
:1006C0009FB7F894EE89FF896083E889F989808172
:1006D0008370806480839FBF81E090E0DF91CF9141
:1006E0001F910F91FF90EF900895F62E0B8D10E063
:1006F0000F5F1F4F0F731127E02E8C8D8E110CC0D2
:100700000FB607FCFACFE889F989808185FFF5CF1C
:10071000CE010E942C03F1CFEB8DEC0FFD2FF11DCC
:10072000E35AFF4FF0829FB7F8940B8FEA89FB8959
:1007300080818062CFCF0F931F93CF93DF938C0183
:10074000D0E0C0E0F801EC0FFD1F6491662341F09A
:100750008BE391E00E944E03892B11F02196F2CF9A
:10076000CE01DF91CF911F910F910895CF93DF9329
:10077000EC01888D8823B9F0AA89BB89E889F989B9
:100780008C9185FD03C0808186FD0DC00FB607FCEE
:10079000F7CF8C9185FFF2CF808185FFEDCFCE0121
:1007A0000E942C03E9CFDF91CF9108958F929F9201
:1007B000AF92BF920F931F93CF93DF93CDB7DEB766
:1007C000A1970FB6F894DEBF0FBECDBF19A242307D
:1007D00008F44AE08E010F5D1F4F842E912CB12C3E
:1007E000A12CA50194010E94C908E62FB901CA01F4
:1007F000EA3044F5E05DD801EE938D01232B242BE4
:10080000252B79F790E080E0109769F0FD010190C9
:100810000020E9F73197AF014A1B5B0BBD018BE369
:1008200091E00E94AE02A1960FB6F894DEBF0FBE13
:10083000CDBFDF91CF911F910F91BF90AF909F904F
:100840008F900895E95CD7CF42E050E062E171E01B
:100850008BE391E00C94AE02CF93DF930E949B0355
:10086000EC010E9424048C0F9D1FDF91CF9108950D
:10087000CF92DF92EF92FF92CF93DF936C01990FAB
:10088000EE08FF08F7FE19C06DE28BE391E00E94CD
:100890004E03EC0166277727CB016C197D098E0981
:1008A0009F094AE00E94D6038C0F9D1FDF91CF91D4
:1008B000FF90EF90DF90CF9008954AE0C701B60116
:1008C000DF91CF91FF90EF90DF90CF900C94D60303
:1008D000AF92BF92CF92DF92EF92FF920F931F934E
:1008E000CF93DF930E9424040091220110912301F1
:1008F000C0902001D0902101E0901E01F0901F01D6
:10090000C0911C01D0911D01A0901601B09017015B
:1009100088E193E00E949B03C5010E94380489E0AE
:1009200093E00E949B03C6010E9438048AEF92E084
:100930000E949B03C7010E9438048BEE92E00E9444
:100940009B0380EE92E0C130D10531F086EE92E05B
:10095000229711F48AED92E00E949B038EEC92E0C4
:100960000E949B03C8010E943804DF91CF911F9120
:100970000F91FF90EF90DF90CF90BF90AF900C94CD
:10098000240480912401909125018A30910509F475
:100990006AC034F4009779F0099709F450C00895BB
:1009A0008C30910509F485C00CF470C08436910533
:1009B00009F492C008950E94240484EC92E00E94FD
:1009C0002C0488EA92E00E942C048FE992E00E94B5
:1009D0002C048FE892E00E942C0480E892E00E94B0
:1009E0002C048DE692E00E942C048AE592E00E949D
:1009F0002C0480E492E00E942C0484E292E00E94A5
:100A00002C048CE092E00E942C0481E092E00E9491
:100A10002C048AEE91E00E942C0487ED91E00E9464
:100A20002C0480EC91E00E942C048DEA91E00E945D
:100A30002C040E9424048DE891E00C942C048BE695
:100A400091E00E949B0390E080E00E94380489E6D8
:100A500091E00E949B038AEF90E00E94380486E6B2
:100A600091E00C949B0388E491E00E949B0390E04A
:100A700080E00E94380486E491E00E949B0388E7AE
:100A800090E00E94380483E491E0EBCF83E291E0B0
:100A90000E949B0384EF91E00E94380481E291E080
:100AA0000E949B0384E699E10E9438048EE191E064
:100AB000D8CF80E091E00E949B0390E080E00E940C
:100AC00038048EEF90E00E949B0384E690E00E9441
:100AD00038048BEF90E0C5CF84ED90E0C2CF88EB77
:100AE00090E00E942C048FEA90E00E949B0381E03A
:100AF00090E00E9438040E94240480E990E00E9463
:100B00002C040C9424048EE690E00E949B038091B8
:100B10001A0190911B010E94380488E690E00C9421
:100B20002C048CEB92E0909323018093220189EBBB
:100B300090E0909321018093200110921F01109268
:100B40001E0110921D0110921C018FE090E0909305
:100B50001B0180931A010C9483051F920F920FB60C
:100B60000F9211242F933F938F939F93AF93BF9333
:100B70008091370190913801A0913901B0913A01EB
:100B80003091360123E0230F2D3758F50196A11D32
:100B9000B11D209336018093370190933801A093C3
:100BA0003901B0933A018091320190913301A091C3
:100BB0003401B09135010196A11DB11D8093320120
:100BC00090933301A0933401B0933501BF91AF915D
:100BD0009F918F913F912F910F900FBE0F901F907B
:100BE000189526E8230F0296A11DB11DD2CF1F92A2
:100BF0000F920FB60F9211242F933F934F935F9351
:100C00006F937F938F939F93AF93BF93EF93FF93D4
:100C10008BE391E00E942C03FF91EF91BF91AF9184
:100C20009F918F917F916F915F914F913F912F9104
:100C30000F900FBE0F901F9018951F920F920FB636
:100C40000F9211242F938F939F93EF93FF93E09133
:100C50004B01F0914C018081E0915101F0915201E2
:100C600082FD1BC09081809154018F5F8F73209112
:100C70005501821741F0E0915401F0E0E55CFE4F30
:100C8000958F80935401FF91EF919F918F912F91B8
:100C90000F900FBE0F901F9018958081F4CF78941D
:100CA00084B5826084BD84B5816084BD85B5826071
:100CB00085BD85B5816085BD80916E008160809322
:100CC0006E0010928100809181008260809381008B
:100CD000809181008160809381008091800081609B
:100CE000809380008091B10084608093B1008091F6
:100CF000B00081608093B00080917A00846080931E
:100D00007A0080917A00826080937A0080917A00E4
:100D1000816080937A0080917A00806880937A0065
:100D20001092C100E0914B01F0914C0182E0808370
:100D3000E0914B01F0914C011082E0914701F0915C
:100D400048011082E0914901F0914A0180E18083DD
:100D500010925301E0914F01F091500186E08083A1
:100D6000E0914D01F0914E01808180618083E0919E
:100D70004D01F0914E01808188608083E0914D01AA
:100D8000F0914E01808180688083E0914D01F09167
:100D90004E0180818F7D80838BE391E00E94B603BA
:100DA0000E946F0510922501109224010E94C10437
:100DB0001092230110922201109221011092200121
:100DC00010921F0110921E0110921D0110921C0121
:100DD0008FEF9FEF90931B0180931A0188E490E0BE
:100DE000909317018093160180E0682E80E0782EA2
:100DF00094E6E92EF12C20EBC22E24E0D22E38E42A
:100E0000A32EB12C4FE0842E912C8BE391E00E9415
:100E1000FE02019621F18BE391E00E94EA02EC01CF
:100E2000682F8BE391E00E944E03CA30D105B9F0E0
:100E300080913001909131018C010A5D1E4FC033C9
:100E4000D105BCF001969093310180933001F801F7
:100E5000C083099721F4109231011092300161147E
:100E6000710499F20E941803882379F20E9400000D
:100E7000CCCF8BE391E00E94B603F8011082109270
:100E800031011092300120912601211107C00E94EA
:100E90006F05109225011092240160C080912401F9
:100EA00090912501009709F061C086E291E00E94CF
:100EB0006708FC013197EC30F10508F052C0ED599C
:100EC000F84F0C94EB0889076F078C07910796077A
:100ED0009B07A007A507AA07AA07AA07AA07D092F7
:100EE0002301C0922201B0922101A0922001109210
:100EF0001F0110921E0110921D0110921C01909270
:100F00001B0180921A010E94830584EF94E00E94E5
:100F10002C040E946804BDCF0E94910584EE94E0E9
:100F2000F6CF0E9491058DEC94E0F1CF0E949105DF
:100F300086EB94E0ECCF0E9491058BE994E0E7CF3B
:100F40000E9491058EE794E0E2CF0E94910585E62C
:100F500094E0DDCF90932501809324010E94C10489
:100F60007ECF80E594E00E942C04F8CF8B30910571
:100F700009F451C0A4F48930910579F10A9709F078
:100F80006ECF86E291E00E94850869377105E0F135
:100F90000E9424040E94240486ED93E02BC08C3030
:100FA000910509F450C08436910509F058CF2F7D82
:100FB00082E090E0253511F481E090E02091180165
:100FC0003091190130931F0120931E0190931D0150
:100FD00080931C018BE293E09ACF86E291E00E941D
:100FE00085086B3F710548F00E9424040E94240488
:100FF0008FE194E00E942C044CCF70932101609308
:10100000200187E094E083CF70931701609316016D
:1010100082EC93E07CCF86E291E00E9485089B0100
:10102000245F31402137374138F00E9424040E9468
:10103000240481E993E0DECF7093230160932201C1
:1010400080E893E064CF86E291E00E948508709387
:101050001901609318016536710538F00E94240467
:101060000E9424048FE493E0C5CFF0922501E09222
:10107000240174CFEBE3F1E01382128288EE93E057
:10108000A0E0B0E084839583A683B78384E091E0F9
:101090009183808385EC90E09587848784EC90E051
:1010A0009787868780EC90E0918B808B81EC90E035
:1010B000938B828B82EC90E0958B848B86EC90E016
:1010C000978B868B118E128E138E148E0895FC01D1
:1010D00088279927E89421912032E9F3293010F0EC
:1010E0002E30C8F32B3241F02D3239F4689404C00D
:1010F0000E94C108820F911D219120532A30C0F314
:101100001EF4909581959F4F08951F93FC01992798
:101110008827BC01E89411911032E9F3193010F0DE
:101120001E30C8F31B3251F01D3249F4689406C0DA
:101130000E94AC08610F711D811D911D119110530A
:101140001A30B0F33EF490958095709561957F4F7D
:101150008F4F9F4F1F910895592F482F372F262FBC
:10116000660F771F881F991F660F771F881F991FAB
:10117000620F731F841F951F660F771F881F991FAB
:1011800008957AE0979F902D879F802D910D1124CF
:101190000895A1E21A2EAA1BBB1BFD010DC0AA1FB8
:1011A000BB1FEE1FFF1FA217B307E407F50720F0D0
:1011B000A21BB30BE40BF50B661F771F881F991F4B
:1011C0001A9469F760957095809590959B01AC0194
:1011D000BD01CF010895EE0FFF1F0590F491E02DA2
:0611E0000994F894FFCF12
:1011E600000000004E03AE02DB02B6030C03EA0267
:0611F600FE020D0A0000DC
:00000001FF
