:100000000C94DC020C9404030C9404030C9404037D
:100010000C9404030C9404030C9404030C94040344
:100020000C9404030C9404030C9404030C94040334
:100030000C9404030C9404030C9404030C94040324
:100040000C94F9060C9404030C9469070C94430770
:100050000C9404030C9404030C9404030C94040304
:100060000C9404030C940403414354494F4E3A202A
:1000700052454C4541534520414C4C20505245532C
:10008000535552450020494E484700414354494F7B
:100090004E3A204D414E55414C4C59205345542029
:1000A000505245535355524520544F200028432960
:1000B00020616E647940627269746973686964650D
:1000C00061732E636F6D203230323100566572736A
:1000D000696F6E20004D65726365646573205638E4
:1000E00020444A65742045435520546573746572F5
:1000F00000456E746572206E6577207468726F7447
:10010000746C6520646972656374696F6E2028552C
:10011000206F722044293A00293A002D00456E7460
:100120006572206E6577207468726F74746C6520D8
:10013000706F736974696F6E202800293A002D0072
:10014000456E746572206E657720656E67696E65B1
:1001500020737065656420696E2052504D20280020
:10016000293A002D00456E746572206E6577206116
:1001700069722074656D7020696E20646567204621
:10018000202800293A002D00456E746572206E65A6
:100190007720636F6F6C616E742074656D70206979
:1001A0006E206465672046202800456E74657220C5
:1001B00061206E756D62657220616E64207072657B
:1001C000737320456E7465723A00202031342E20FE
:1001D000536574207468726F74746C6500202031EC
:1001E000332E2053657420656E67696E65207370C9
:1001F00065656400202031322E20536574206169CA
:10020000722074656D7000202031312E205365748A
:1002100020636F6F6C616E742074656D7000437540
:1002200073746F6D697A653A00202031302E204852
:1002300061726420616363656C65726174696F6E7D
:1002400000202020392E204D6F6465726174652076
:10025000616363656C65726174696F6E0020202054
:10026000382E2047656E746C6520616363656C652C
:10027000726174696F6E00202020372E20437275E2
:100280006973652037304D504800202020362E20DD
:100290004372756973652033304D5048002020202B
:1002A000352E20486F742069646C6500202020344E
:1002B0002E20436F6C642069646C6500202020331D
:1002C0002E204372616E6B696E6700202020322EF3
:1002D000204F666600507265736574733A00202083
:1002E00020312E2053686F772063757272656E74AB
:1002F0002073657474696E6773004D41494E204DDB
:10030000454E55006E6F00796573002C2063726155
:100310006E6B696E673D002C20656E677370656556
:10032000643D00646563656C00616363656C006EC9
:100330006F6E65002C207468726F74746C656469EC
:10034000723D002C207468726F74746C65706F73EA
:100350003D002C20636F6F6C616E7474656D703D31
:100360000053657474696E67733A206169727465CD
:100370006D703D005468726F74746C6520706F739B
:100380006974696F6E20616E64206469726563745C
:10039000696F6E20736574004552524F523A204582
:1003A0006E74657265642076616C75652069732072
:1003B0006F757473696465206F6620616C6C6F770C
:1003C00065642072616E676500456E67696E6520C1
:1003D000737065656420736574004552524F523ADC
:1003E00020456E74657265642076616C7565206960
:1003F00073206F757473696465206F6620616C6C1F
:100400006F7765642072616E676500416972207460
:10041000656D7065726174757265207365740045F1
:1004200052524F523A20456E74657265642076616F
:100430006C7565206973206F757473696465206FCE
:100440006620616C6C6F7765642072616E67650011
:10045000436F6F6C616E742074656D70657261744A
:1004600075726520736574004552524F523A2045AB
:100470006E74657265642076616C756520697320A1
:100480006F757473696465206F6620616C6C6F773B
:1004900065642072616E6765004552524F523A2082
:1004A000496E76616C696420696E7075740053657D
:1004B0007420746F206861726420616363656C6589
:1004C000726174696F6E0053657420746F206D6F74
:1004D00064657261746520616363656C65726174E3
:1004E000696F6E0053657420746F2067656E746C5D
:1004F0006520616363656C65726174696F6E00533A
:10050000657420746F20637275697365206174204F
:1005100037304D50480053657420746F20637275F6
:100520006973652061742033304D50480053657401
:1005300020746F20686F742069646C650053657463
:1005400020746F20636F6C642069646C6500536570
:100550007420746F206372616E6B696E6700456E04
:1005600067696E65207475726E6564206F666600DB
:1005700000000000250028002B00040404040404EB
:100580000404020202020202030303030303010242
:100590000408102040800102040810200102040811
:1005A0001020000000080002010000030407000002
:1005B000000000000000C30911241FBECFEFD8E0E7
:1005C000DEBFCDBF12E0A0E0B1E0E8EFF4E102C091
:1005D00005900D92A635B107D9F723E0A6E5B2E064
:1005E00001C01D92A931B207E1F712E0CCEDD2E0D3
:1005F00004C02197FE010E94740ACB3DD107C9F7C0
:100600000E949B070C947A0A0C94000090E0FC0175
:10061000EE55FA4F2491FC01E257FA4F3491FC0158
:10062000E658FA4FE491EE23C9F0222339F0233043
:1006300001F1A8F4213019F1223029F1F0E0EE0F98
:10064000FF1FE059FA4FA591B4918FB7F894EC9140
:10065000611126C030953E233C938FBF089527300B
:10066000A9F02830C9F0243049F7809180008F7DAF
:1006700003C0809180008F7780938000DFCF84B5A6
:100680008F7784BDDBCF84B58F7DFBCF8091B000A9
:100690008F778093B000D2CF8091B0008F7DF9CF5B
:1006A0003E2BDACFAF92BF92CF92DF92EF92FF92C2
:1006B0000F931F93CF93DF936C017B018B01040F8A
:1006C000151FEB015E01AE18BF08C017D10759F026
:1006D0006991D601ED91FC910190F081E02DC60168
:1006E0000995892B79F7C501DF91CF911F910F9162
:1006F000FF90EF90DF90CF90BF90AF900895FC01F6
:10070000538D448D252F30E0842F90E0821B930B76
:10071000541710F0CF96089501970895FC01918D1C
:10072000828D981761F0A28DAE0FBF2FB11D5D961F
:100730008C91928D9F5F9F73928F90E008958FEFC1
:100740009FEF0895FC01918D828D981731F0828D75
:10075000E80FF11D858D90E008958FEF9FEF0895CC
:10076000FC01918D228D892F90E0805C9F4F821B30
:1007700091098F73992708958CE792E00E94B00346
:1007800021E0892B09F420E0822F089580E090E099
:10079000892B29F00E94BC0381110C94000008955C
:1007A000FC01A48DA80FB92FB11DA35ABF4F2C91E6
:1007B000848D90E001968F739927848FA689B789DD
:1007C0002C93A089B1898C91837080648C93938DD4
:1007D000848D981306C00288F389E02D80818F7D77
:1007E00080830895EF92FF920F931F93CF93DF932F
:1007F000EC0181E0888F9B8D8C8D98131AC0E8895D
:10080000F989808185FF15C09FB7F894EE89FF892B
:100810006083E889F98980818370806480839FBFC9
:1008200081E090E0DF91CF911F910F91FF90EF90C9
:100830000895F62E0B8D10E00F5F1F4F0F731127D9
:10084000E02E8C8D8E110CC00FB607FCFACFE88914
:10085000F989808185FFF5CFCE010E94D003F1CFC9
:10086000EB8DEC0FFD2FF11DE35AFF4FF0829FB788
:10087000F8940B8FEA89FB8980818062CFCF0F9338
:100880001F93CF93DF938C01D0E0C0E0F801EC0F11
:10089000FD1F6491662341F08CE792E00E94F20311
:1008A000892B11F02196F2CFCE01DF91CF911F91CC
:1008B0000F910895CF93DF93EC01888D8823B9F0D1
:1008C000AA89BB89E889F9898C9185FD03C080815B
:1008D00086FD0DC00FB607FCF7CF8C9185FFF2CFD8
:1008E000808185FFEDCFCE010E94D003E9CFDF915B
:1008F000CF9108950F931F93CF93DF93EC018B015A
:1009000090935C0280935B0270935A026093590249
:10091000039734F461E08EE00E94060360E008C0B3
:1009200060E08EE00E94060361E0CA35D105B4F3B1
:1009300088E00E9406030230110509F448C08AE0ED
:100940008C9F90018D9F300D1124293E83E0380744
:1009500014F028EE33E037FF02C030E020E0E0E0A2
:10096000F1E0D0E0C0E040815181241735072CF13F
:10097000428153814217530704F183E0CC0FDD1FFE
:100980008A95E1F7FE01E050FF4F8481958161E097
:10099000019709F060E080E10E940603C050DF4F3C
:1009A0008E819F8161E0019709F060E08FE0DF9127
:1009B000CF911F910F910C94060321963896C8325F
:1009C000D10589F6DF91CF911F910F91089560E0D5
:1009D00080E10E940603E9CF8F929F92AF92BF926F
:1009E0000F931F93CF93DF93CDB7DEB7A1970FB6C9
:1009F000F894DEBF0FBECDBF19A2423008F44AE022
:100A00008E010F5D1F4F842E912CB12CA12CA501BE
:100A100094010E94520AE62FB901CA01EA3044F556
:100A2000E05DD801EE938D01232B242B252B79F744
:100A300090E080E0109769F0FD0101900020E9F757
:100A40003197AF014A1B5B0BBD018CE792E00E941E
:100A50005203A1960FB6F894DEBF0FBECDBFDF9153
:100A6000CF911F910F91BF90AF909F908F9008955D
:100A7000E95CD7CF42E050E062E572E08CE792E0BB
:100A80000C945203CF93DF930E943F04EC010E9429
:100A90003A058C0F9D1FDF91CF910895CF92DF9281
:100AA000EF92FF92CF93DF936C01990FEE08FF084E
:100AB000F7FE19C06DE28CE792E00E94F203EC01B0
:100AC00066277727CB016C197D098E099F094AE0BB
:100AD0000E94EC048C0F9D1FDF91CF91FF90EF904F
:100AE000DF90CF9008954AE0C701B601DF91CF9122
:100AF000FF90EF90DF90CF900C94EC048F929F9238
:100B0000AF92BF92CF92DF92EF92FF921F93CF935B
:100B1000DF930E943A05E0905D02F0905E02A090A3
:100B20006102B0906202C0905B02D0905C02C09102
:100B30005902D0915A0280905F0290906002109109
:100B4000560281E693E00E943F04C4010E944E05D4
:100B500082E593E00E943F04C5010E944E0583E4B4
:100B600093E00E943F04C6010E944E0584E393E097
:100B70000E943F0489E293E0C130D10531F08FE259
:100B800093E0229711F483E293E00E943F0487E10F
:100B900093E00E943F04C7010E944E058BE093E062
:100BA0000E943F0484E093E0112311F087E093E07A
:100BB000DF91CF911F91FF90EF90DF90CF90BF908A
:100BC000AF909F908F900C94420580916502909118
:100BD00066028C30910509F472C034F4009779F004
:100BE0000B9709F458C008958E30910509F48DC013
:100BF0000CF478C08436910509F49AC008950E94D7
:100C00003A058AEF92E00E9442058EED92E00E9442
:100C1000420585ED92E00E9442058BEC92E00E9435
:100C200042058CEB92E00E9442058CEA92E00E9421
:100C300042058DE992E00E9442058AE892E00E9416
:100C4000420587E792E00E9442058DE592E00E940E
:100C5000420581E492E00E94420589E292E00E940E
:100C600042058EE192E00E94420587E092E00E94F8
:100C7000420584EF91E00E9442058DED91E00E94D3
:100C800042058AEC91E00E9442050E943A058AEAF8
:100C900091E00C94420588E891E00E943F0490E0C6
:100CA00080E00E944E0586E891E00E943F048AEFB2
:100CB00090E00E944E0583E891E00C943F0485E6A5
:100CC00091E00E943F0490E080E00E944E0583E6A0
:100CD00091E00E943F0488E790E00E944E0580E684
:100CE00091E0EBCF80E491E00E943F0484EF91E03B
:100CF0000E944E058EE391E00E943F0484E699E154
:100D00000E944E058BE391E0D8CF8DE191E00E94E7
:100D10003F0490E080E00E944E058BE191E00E944C
:100D20003F0484E690E00E944E0588E191E0C5CF43
:100D300081EF90E0C2CF85ED90E00E9442058CECFF
:100D400090E00E943F0481E090E00E944E050E94E6
:100D50003A058DEA90E00E9442050C943A05EF9224
:100D60000F931F9390935E0280935D0270936202D3
:100D700060936102B901CA010E947A040F3F100713
:100D8000D9F08BE890E00E943F04C8010E944E0514
:100D900085E890E00E9442051093580200935702A4
:100DA000E092560261E0E11001C060E087E01F912F
:100DB0000F91EF900C940603809157029091580286
:100DC000019651F388E690E0E5CFEF920F931F93E1
:100DD000E12C0FEF1FEF30E020E050E040E068E44E
:100DE00070E090E080E00E94AF061F910F91EF90BD
:100DF00008951F920F920FB60F9211242F933F93D5
:100E00008F939F93AF93BF938091780290917902D3
:100E1000A0917A02B0917B023091770223E0230FF8
:100E20002D3758F50196A11DB11D209377028093AF
:100E3000780290937902A0937A02B0937B0280911A
:100E4000730290917402A0917502B091760201969E
:100E5000A11DB11D8093730290937402A09375023B
:100E6000B0937602BF91AF919F918F913F912F9157
:100E70000F900FBE0F901F90189526E8230F029633
:100E8000A11DB11DD2CF1F920F920FB60F92112448
:100E90002F933F934F935F936F937F938F939F9382
:100EA000AF93BF93EF93FF938CE792E00E94D00340
:100EB000FF91EF91BF91AF919F918F917F916F9132
:100EC0005F914F913F912F910F900FBE0F901F9008
:100ED00018951F920F920FB60F9211242F938F9394
:100EE0009F93EF93FF93E0918C02F0918D028081AC
:100EF000E0919202F091930282FD1BC0908180915B
:100F000095028F5F8F7320919602821741F0E091D6
:100F10009502F0E0E458FD4F958F80939502FF9184
:100F2000EF919F918F912F910F900FBE0F901F9077
:100F300018958081F4CF789484B5826084BD84B59F
:100F4000816084BD85B5826085BD85B5816085BDC4
:100F500080916E00816080936E001092810080917C
:100F60008100826080938100809181008160809304
:100F70008100809180008160809380008091B10029
:100F800084608093B1008091B00081608093B00054
:100F900080917A00846080937A0080917A008260E8
:100FA00080937A0080917A00816080937A008091AA
:100FB0007A00806880937A001092C100E0918C02E0
:100FC000F0918D0282E08083E0918C02F0918D029D
:100FD0001082E0918802F09189021082E0918A02E9
:100FE000F0918B0280E1808310929402E091900254
:100FF000F091910286E08083E0918E02F0918F0261
:10100000808180618083E0918E02F0918F028081E7
:1010100088608083E0918E02F0918F0280818068E9
:101020008083E0918E02F0918F0280818F7D80839A
:101030008CE792E00E945A040E949B06109266027E
:10104000109265020E94E50561E081E10E940603BD
:101050000E94E50688E490E09093600280935F022E
:1010600080E0C82E80E0D82E94E6A92EB12C8CE723
:1010700092E00E94A203019619F18CE792E00E948F
:101080008E038C01682F8CE792E00E94F2030A30F5
:101090001105B1F0C0917102D091720200331105B7
:1010A000CCF0CE0101969093720280937102C959DF
:1010B000DD4F0883099721F4109272021092710299
:1010C000C114D104A1F20E94BC03882381F20E94C2
:1010D0000000CDCF0830110549F41C161D0684F719
:1010E0002197D0937202C0937102EACF8CE792E00D
:1010F0000E945A04C959DD4F188210927202109250
:10110000710220916702211107C00E949B06109274
:10111000660210926502B1C08091650290916602EC
:10112000009709F0B2C087E692E00E94F009FC0146
:101130003197EE30F10508F0A3C0EF55F74F0C944E
:10114000740AB508AF08B808C908D908E908F90849
:1011500009091909290939093909390939090E947F
:10116000E5068EE595E00E9442050E947E05CFCF00
:10117000EE24E3940FEF1FEF30E020E050E040E07A
:1011800068E470E090E080E00E94AF068EE495E0B5
:10119000EACFE12C0FE010E030E020E050E040E04A
:1011A00068E470E080EB94E00E94AF068DE395E088
:1011B000DACFE12C0FE010E030E020E050E040E03A
:1011C00069EB70E08CEB92E00E94AF068DE295E057
:1011D000CACFE12C0BE010E021E030E04AEA50E019
:1011E00069EB70E08CED95E00E94AF0686E195E03A
:1011F000BACFE12C0BE010E021E030E04AEF50E004
:1012000069EB70E088EB9BE00E94AF068FEF94E003
:10121000AACFE12C09E010E021E030E04CE251E0FF
:1012200069EB70E088E097E00E94AF0684EE94E0FE
:101230009ACFE12C07E010E021E030E044EF51E0EC
:1012400069EB70E08CEA9DE00E94AF0687EC94E0C9
:101250008ACFE12C02E010E021E030E046EB53E0E1
:1012600069EB70E080E797E10E94AF068EEA94E0B8
:101270007ACF90936602809365020E94E50520CFA5
:1012800089E994E00E944205F8CF8D30910509F478
:101290004BC0A4F48B30910549F10C9709F010CFA5
:1012A00087E692E00E940E0A69377105B0F10E944C
:1012B0003A050E943A058FE194E025C08E309105F1
:1012C00009F44AC08436910509F0FACE2F7D62E018
:1012D00070E0253511F461E070E080916302909137
:1012E00064020E947A0484E793E03DCF87E692E0AF
:1012F0000E940E0A6B3F710548F00E943A050E9459
:101300003A0588E694E00E94420501CF709362029C
:101310006093610280E594E026CF70936002609351
:101320005F028BE094E01FCF87E692E00E940E0AF6
:101330009B01245F31402137374138F00E943A0544
:101340000E943A058AED93E0DECF70935E026093CF
:101350005D0289EC93E007CF87E692E00E940E0AD7
:1013600070936402609363026536710538F00E94E1
:101370003A050E943A0588E993E0C5CFB09266022B
:10138000A09265027ACFECE7F2E01382128288EE37
:1013900093E0A0E0B0E084839583A683B78384E4E0
:1013A00092E09183808385EC90E09587848784EC3C
:1013B00090E09787868780EC90E0918B808B81EC22
:1013C00090E0938B828B82EC90E0958B848B86EC03
:1013D00090E0978B868B118E128E138E148E08954B
:1013E000FC0188279927E89421912032E9F32930DC
:1013F00010F02E30C8F32B3241F02D3239F46894BE
:1014000004C00E944A0A820F911D219120532A3064
:10141000C0F31EF4909581959F4F08951F93FC0192
:1014200099278827BC01E89411911032E9F319300B
:1014300010F01E30C8F31B3251F01D3249F468948D
:1014400006C00E94350A610F711D811D911D119109
:1014500010531A30B0F33EF49095809570956195D5
:101460007F4F8F4F9F4F1F910895592F482F372F30
:10147000262F660F771F881F991F660F771F881FFB
:10148000991F620F731F841F951F660F771F881F98
:10149000991F08957AE0979F902D879F802D910D39
:1014A00011240895A1E21A2EAA1BBB1BFD010DC039
:1014B000AA1FBB1FEE1FFF1FA217B307E407F50704
:1014C00020F0A21BB30BE40BF50B661F771F881FE0
:1014D000991F1A9469F760957095809590959B0176
:1014E000AC01BD01CF010895EE0FFF1F0590F491EF
:0814F000E02D0994F894FFCFF0
:1014F800000017000000010018002E000000000086
:101508002F0045000100000046005C0000000000BC
:101518005D0073000000010074008A0000000000F4
:101528008B00A20001000000A300B9000000000029
:10153800BA00D00000000100D100E7000000000060
:10154800E800FE0001000000FF0015010000000097
:1015580000012C01000001002D01430100000000E2
:1015680044015A01010000005B0171010000000004
:10157800720188010000010089019F01000000003C
:10158800A001B60101000000B701CE010000000073
:10159800CF01E50100000100E601FC0100000000A8
:1015A800FD0113020100000014022A0200000000DD
:1015B8002B02410200000100420258020000000014
:1015C80059026F020100000070028602000000004C
:1015D80087029D02000001009E02B4020000000084
:1015E800B502CB0201000000CC02E20200000000BC
:1015F800E302FA0200000100FB02110300000000F0
:10160800120328030100000029033F030000000023
:10161800400356030000010057036D03000000005B
:101628006E038403010000008503E8030100000045
:1016380000000000F20352037F035A04B0038E0334
:06164800A2030D0A0000E0
:00000001FF
