:100000000C9468030C9490030C9490030C9490034C
:100010000C9490030C9490030C9490030C94900314
:100020000C9490030C9490030C9490030C94900304
:100030000C9490030C945F0C0C9490030C9490031C
:100040000C94BD0B0C9490030C942D0C0C94070C89
:100050000C9490030C9490030C9490030C949003D4
:100060000C9490030C94900307634236B79BD8A777
:100070001A39685618AEBAAB558C1D3CB7CC5763CD
:10008000BD6DEDFD753EF6177231BF000000803F7B
:1000900008000000BE922449123EABAAAA2ABECD97
:1000A000CCCC4C3E00000080BEABAAAAAA3E000009
:1000B0000000BF000000803F000000000008417801
:1000C000D3BB4387D1133D190E3CC3BD4282AD2B38
:1000D0003E68EC8276BED98FE1A93E4C80EFFFBE30
:1000E00001C4FF7F3F000000000020494E48470048
:1000F000414354494F4E3A204D414E55414C4C5985
:100100002053455420505245535355524520544F87
:10011000200028432920616E647940627269746905
:10012000736869646561732E636F6D20323032319C
:100130000056657273696F6E20004D657263656469
:10014000657320563820444A657420454355205431
:10015000657374657200456E746572206E657720F4
:100160007468726F74746C65206469726563746915
:100170006F6E202855206F722044293A00293A00DA
:100180002D00456E746572206E6577206477656C0E
:100190006C20696E2064656772656573202800298C
:1001A0003A002D00456E746572206E657720746884
:1001B000726F74746C6520706F736974696F6E20F0
:1001C0002800293A002D00456E746572206E65770F
:1001D00020656E67696E6520737065656420696E61
:1001E0002052504D202800293A002D00456E74659C
:1001F00072206E6577206169722074656D70206968
:100200006E206465672046202800293A002D0045AD
:100210006E746572206E657720636F6F6C616E74AB
:100220002074656D7020696E206465672046202803
:1002300000456E7465722061206E756D6265722076
:10024000616E6420707265737320456E7465723AD6
:1002500000202031352E205365742070756C736535
:100260002067656E657261746F72206477656C6C6F
:1002700000202031342E20536574207468726F740E
:10028000746C6500202031332E2053657420656E18
:1002900067696E6520737065656400202031322EB9
:1002A00020536574206169722074656D7000202090
:1002B00031312E2053657420636F6F6C616E742032
:1002C00074656D7000437573746F6D697A653A007B
:1002D000202031302E204861726420616363656C98
:1002E00065726174696F6E00202020392E204D6F79
:1002F00064657261746520616363656C65726174C5
:10030000696F6E00202020382E2047656E746C6562
:1003100020616363656C65726174696F6E00202093
:1003200020372E204372756973652037304D504851
:1003300000202020362E20437275697365203330EB
:100340004D504800202020352E20486F74206964CD
:100350006C6500202020342E20436F6C642069647B
:100360006C6500202020332E204372616E6B696E15
:100370006700202020322E204F6666005072657381
:100380006574733A00202020312E2053686F772047
:1003900063757272656E742073657474696E6773C9
:1003A000004D41494E204D454E55006E6F00796518
:1003B00073002C2070756C736567656E6477656C6F
:1003C0006C3D002C206372616E6B696E673D002C82
:1003D00020656E6773706565643D00646563656C78
:1003E00000616363656C006E6F6E65002C2074683D
:1003F000726F74746C656469723D002C207468724D
:100400006F74746C65706F733D002C20636F6F6C3C
:10041000616E7474656D703D0053657474696E67C8
:10042000733A2061697274656D703D005468726F33
:1004300074746C6520706F736974696F6E20616E7F
:100440006420646972656374696F6E2073657400FB
:100450004552524F523A20456E746572656420765B
:10046000616C7565206973206F75747369646520AC
:100470006F6620616C6C6F7765642072616E676572
:100480000050756C736520616E676C6520666F72D5
:100490002070756C73652067656E657261746F722C
:1004A00020736574004552524F523A20456E746570
:1004B0007265642076616C7565206973206F757450
:1004C00073696465206F6620616C6C6F776564206A
:1004D00072616E676500456E67696E652073706551
:1004E000656420736574004552524F523A20456E40
:1004F00074657265642076616C7565206973206F20
:10050000757473696465206F6620616C6C6F7765C4
:10051000642072616E6765004169722074656D7058
:100520006572617475726520736574004552524F2F
:10053000523A20456E74657265642076616C75650B
:10054000206973206F757473696465206F6620611C
:100550006C6C6F7765642072616E676500436F6FC6
:100560006C616E742074656D70657261747572650E
:1005700020736574004552524F523A20456E74659F
:100580007265642076616C7565206973206F75747F
:1005900073696465206F6620616C6C6F7765642099
:1005A00072616E6765004552524F523A20496E762D
:1005B000616C696420696E70757400536574207491
:1005C0006F206861726420616363656C6572617439
:1005D000696F6E0053657420746F206D6F6465726F
:1005E00061746520616363656C65726174696F6EC7
:1005F0000053657420746F2067656E746C652061AC
:100600006363656C65726174696F6E005365742015
:10061000746F206372756973652061742037304D83
:1006200050480053657420746F2063727569736558
:100630002061742033304D50480053657420746F2E
:1006400020686F742069646C650053657420746F52
:1006500020636F6C642069646C650053657420745A
:100660006F206372616E6B696E6700456E67696EBD
:1006700065207475726E6564206F66660000000008
:100680000800020100000304070000000000000051
:100690000000000000250028002B000000000024BE
:1006A0000027002A000404040404040404020202D3
:1006B00002020203030303030301020408102040A3
:1006C0008001020408102001020408102000A90F74
:1006D00011241FBECFEFD8E0DEBFCDBF12E0A0E0F7
:1006E000B1E0E2E9FBE202C005900D92AE35B10740
:1006F000D9F723E0AEE5B2E001C01D92A135B20703
:10070000E1F713E0C8E6D3E004C02197FE010E94A0
:100710006E10C736D107C9F70E94860C0C94C71516
:100720000C94000090E0FC01E754F94F24918B55A4
:10073000994FFC018491882399F090E0880F991FCC
:10074000FC01E556F94FA591B491FC01EF56F94F24
:10075000859194918FB7F894EC91E22BEC938FBF35
:10076000089590E0FC01E358F94F2491FC01E7540F
:10077000F94F3491FC01EB55F94FE491EE23C9F0A8
:10078000222339F0233001F1A8F4213019F122306D
:1007900029F1F0E0EE0FFF1FEF56F94FA591B4914C
:1007A0008FB7F894EC91611126C030953E233C93AD
:1007B0008FBF08952730A9F02830C9F0243049F7B9
:1007C000809180008F7D03C0809180008F7780931F
:1007D0008000DFCF84B58F7784BDDBCF84B58F7D7C
:1007E000FBCF8091B0008F778093B000D2CF809103
:1007F000B0008F7DF9CF3E2BDACF0F931F93CF93AD
:10080000DF93EC0109811A818D819E8101969E837F
:100810008D83019781F48CB58F7D8CBD8CB5837FE2
:100820008CBD8CB583608CBD8DB58E7F8DBD60E039
:1008300088810E94B10384E0000F111F8A95E1F7BF
:1008400002600EBD00000DB407FEFDCF11E00EB436
:1008500001FC12C010E08D819E8101979E838D83E3
:10086000892B21F461E088810E94B103812FDF91FF
:10087000CF911F910F9108951EBC00000DB407FE8B
:10088000FDCF8EB5E8CF0895CF92DF92EF92FF9221
:10089000CF93DF93C0917E02D0917F02FE01EE0FD5
:1008A000FF1FEE0FFF1FE25AFD4F0190F081E02D78
:1008B000E830F10580F4E15AFB4F0C946E106704A8
:1008C000B604B804BB04BD04C004C204C50461E09E
:1008D00089E00E94B1032196C830D10509F457C0C0
:1008E000D0937F02C0937E02E0917E02F0917F025E
:1008F000EE0FFF1FEE0FFF1FE25AFD4F22813381E3
:10090000A0EAB0E00E9474106B017C0124E130E0A9
:1009100040E050E00E944C102115310581E048076D
:100920005105D0F581E080938C0230938B022093A7
:100930008A0280918A0290918B0290938700809323
:10094000860080918C0280618093810084E494E031
:10095000909301018093000181E080936F00DF910B
:10096000CF91FF90EF90DF90CF90089560E0B0CFEF
:1009700061E085E0AECF60E0FCCF61E086E0A9CF2A
:1009800060E0FCCF61E083E0A4CF60E0FCCF109298
:100990007F0210927E02A8CF82E080938C02C70172
:1009A000B60120EA30E040E050E00E944C10BDCF9C
:1009B000AF92BF92CF92DF92EF92FF920F931F936D
:1009C000CF93DF936C017B018B01040F151FEB01AB
:1009D0005E01AE18BF08C017D10759F06991D60162
:1009E000ED91FC910190F081E02DC6010995892BD4
:1009F00079F7C501DF91CF911F910F91FF90EF9093
:100A0000DF90CF90BF90AF900895FC01538D448D3F
:100A1000252F30E0842F90E0821B930B541710F0A9
:100A2000CF96089501970895FC01918D828D9817B6
:100A300061F0A28DAE0FBF2FB11D5D968C91928D8E
:100A40009F5F9F73928F90E008958FEF9FEF0895BF
:100A5000FC01918D828D981731F0828DE80FF11D88
:100A6000858D90E008958FEF9FEF0895FC01918DA3
:100A7000228D892F90E0805C9F4F821B91098F739C
:100A80009927089580EB92E00E94360521E0892B9A
:100A900009F420E0822F089580E090E0892B29F06E
:100AA0000E94420581110C9400000895FC01A48D60
:100AB000A80FB92FB11DA35ABF4F2C91848D90E080
:100AC00001968F739927848FA689B7892C93A08963
:100AD000B1898C91837080648C93938D848D9813ED
:100AE00006C00288F389E02D80818F7D8083089580
:100AF000EF92FF920F931F93CF93DF93EC0181E06E
:100B0000888F9B8D8C8D98131AC0E889F989808114
:100B100085FF15C09FB7F894EE89FF896083E88947
:100B2000F98980818370806480839FBF81E090E039
:100B3000DF91CF911F910F91FF90EF900895F62EC6
:100B40000B8D10E00F5F1F4F0F731127E02E8C8D60
:100B50008E110CC00FB607FCFACFE889F9898081A5
:100B600085FFF5CFCE010E945605F1CFEB8DEC0F3E
:100B7000FD2FF11DE35AFF4FF0829FB7F8940B8FC2
:100B8000EA89FB8980818062CFCF0F931F93CF9337
:100B9000DF938C01D0E0C0E0F801EC0FFD1F649101
:100BA000662341F080EB92E00E947805892B11F0DA
:100BB0002196F2CFCE01DF91CF911F910F91089531
:100BC000CF93DF93EC01888D8823B9F0AA89BB8984
:100BD000E889F9898C9185FD03C0808186FD0DC06F
:100BE0000FB607FCF7CF8C9185FFF2CF808185FF90
:100BF000EDCFCE010E945605E9CFDF91CF91089548
:100C0000CF93CFB7F89480918902811124C0EFEA85
:100C1000F6E08491E3ECF6E09491E82FF0E0EE0F3B
:100C2000FF1FE556F94FA591B491EC91E92321F40A
:100C300061E08AE00E94B1038AE00E9492038CB5D1
:100C400080618CBD8CB580648CBD8DE00E94920368
:100C50008BE00E949203809189028F5F80938902CA
:100C6000CFBFCF9108950F931F93CF93DF93EC01E4
:100C70008B01909388028093870270938602609321
:100C80008502039734F461E08EE00E94B10360E0D6
:100C900008C060E08EE00E94B10361E0CA35D10572
:100CA000B4F388E00E94B1030230110509F448C092
:100CB0008AE08C9F90018D9F300D1124293E83E0A6
:100CC000380714F028EE33E037FF02C030E020E0B0
:100CD000E8E0F1E0D0E0C0E0408151812417350721
:100CE0002CF1428153814217530704F183E0CC0F6A
:100CF000DD1F8A95E1F7FE01E85FFE4F8481958153
:100D000061E0019709F060E080E10E94B103C85FF3
:100D1000DE4F8E819F8161E0019709F060E08FE0F6
:100D2000DF91CF911F910F910C94B10321963896CA
:100D3000C832D10589F6DF91CF911F910F910895A7
:100D400060E080E10E94B103E9CF4F925F926F9221
:100D50007F928F929F92AF92BF92CF92DF92EF924B
:100D6000FF92CF93DF93CDB7DEB764970FB6F894B9
:100D7000DEBF0FBECDBF7C0180E18093810060E0CB
:100D800089E00E94B10360E085E00E94B10360E069
:100D900086E00E94B10360E083E00E94B103F0921C
:100DA0009002E0928F021E141F040CF0D8C1B7010C
:100DB000FF0C880B990B0E94ED1120E030E040E71A
:100DC00052E40E94091120E030E040E05FE30E941D
:100DD0003A139B01AC0160E070E080E89FE30E9461
:100DE000091120E030E04AE754E40E943A136B0115
:100DF0007C016091910270919202072E000C880B89
:100E0000990B0E94ED119B01AC010E94981020E00B
:100E100030E044E354E40E940911A70196010E94C6
:100E20003A132B013C0120E030E040E85EE3C701CB
:100E3000B6010E943A1369877A878B879C8720E0E6
:100E400030E040E05FE3C701B6010E943A136D87CE
:100E50007E878F87988B20E030E040E45FE3C70116
:100E6000B6010E943A13698B7A8B8B8B9C8B20E0A6
:100E700030E0A901C301B2010E94981069837A830E
:100E80008B839C839B01AC01C701B6010E940411B6
:100E900087FF0CC0A701960169817A818B819C81B3
:100EA0000E94971069837A838B839C8329853A8576
:100EB0004B855C85C301B2010E9498106D837E83CF
:100EC0008F8398879B01AC01C701B6010E94041172
:100ED00087FF0CC0A70196016D817E818F81988567
:100EE0000E9497106D837E838F8398872D853E8522
:100EF0004F855889C301B2010E9498104B015C01D3
:100F0000AC019B01C701B6010E94041187FF08C014
:100F1000A7019601C501B4010E9497104B015C0125
:100F200029893A894B895C89C301B2010E949810D2
:100F30002B013C01AC019B01C701B6010E940411C9
:100F400087FF08C0A7019601C301B2010E94971054
:100F50002B013C0110925F0210925E02A5019401E8
:100F6000C701B6010E94971020E030E04AE754E440
:100F70000E943A130E94B5116B0170936102609355
:100F8000600287E090E0909363028093620220E029
:100F900030E04AE754E4C301B2010E943A130E94D0
:100FA000B511709365026093640282E090E09093C3
:100FB000670280936602A301920169857A858B8519
:100FC0009C850E94971020E030E04AE754E40E949C
:100FD0003A130E94B511709369026093680281E030
:100FE00090E090936B0280936A0229853A854B8545
:100FF0005C8569817A818B819C810E94971020E0B9
:1010000030E04AE754E40E943A130E94B51170930D
:101010006D0260936C0284E090E090936F02809385
:101020006E0229813A814B815C816D857E858F8539
:1010300098890E94971020E030E04AE754E40E942B
:101040003A130E94B511709371026093700283E0AD
:1010500090E090937302809372022D853E854F85B8
:1010600058896D817E818F8198850E94971020E03C
:1010700030E04AE754E40E943A130E94B51170939D
:1010800075026093740286E090E0909377028093FB
:1010900076022D813E814F81588569897A898B89B5
:1010A0009C890E94971020E030E04AE754E40E94B7
:1010B0003A130E94B511709379026093780285E02B
:1010C00090E090937B0280937A0229893A894B8938
:1010D0005C89C501B4010E94971020E030E04AE726
:1010E00054E40E943A130E94B51170937D026093FC
:1010F0007C0210927F0210927E029601A0EAB0E07C
:101100000E9474106B017C0124E130E040E050E06B
:101110000E944C102115310581E048075105A0F5CA
:1011200081E080938C0230938B0220938A0280911D
:101130008A0290918B029093870080938600809121
:101140008C02806180938100109281001092850052
:101150001092840080918C0280618093810064965B
:101160000FB6F894DEBF0FBECDBFDF91CF91FF90D9
:10117000EF90DF90CF90BF90AF909F908F907F9037
:101180006F905F904F90089582E080938C02C7012A
:10119000B60120EA30E040E050E00E944C10C3CF9E
:1011A0008F929F92AF92BF920F931F93CF93DF9333
:1011B000CDB7DEB7A1970FB6F894DEBF0FBECDBF97
:1011C00019A2423008F44AE08E010F5D1F4F842EB1
:1011D000912CB12CA12CA50194010E944C10E62F5A
:1011E000B901CA01EA3044F5E05DD801EE938D0102
:1011F000232B242B252B79F790E080E0109769F0C2
:10120000FD0101900020E9F73197AF014A1B5B0B0C
:10121000BD0180EB92E00E94D804A1960FB6F8942D
:10122000DEBF0FBECDBFDF91CF911F910F91BF9059
:10123000AF909F908F900895E95CD7CF42E050E047
:101240006AE572E080EB92E00C94D804CF93DF93D0
:101250000E94C505EC010E941E098C0F9D1FDF91A5
:10126000CF910895CF92DF92EF92FF92CF93DF93C9
:101270006C01990FEE08FF08F7FE19C06DE280EBD4
:1012800092E00E947805EC0166277727CB016C1964
:101290007D098E099F094AE00E94D0088C0F9D1F8E
:1012A000DF91CF91FF90EF90DF90CF9008954AE0CB
:1012B000C701B601DF91CF91FF90EF90DF90CF9003
:1012C0000C94D0087F928F929F92AF92BF92CF9250
:1012D000DF92EF92FF920F931F93CF93DF930E94C1
:1012E0001E0900918F0210919002C0909502D0903B
:1012F0009602E0908702F09088028090850290909C
:101300008602A0908102B090820270908002C0910B
:101310009102D091920289E194E00E94C505C50135
:101320000E9432098AE094E00E94C505C6010E942D
:1013300032098BEF93E00E94C505C7010E94320974
:101340008CEE93E00E94C50581E08816910489F136
:1013500082E08816910481F187EE93E00E94C50532
:101360008FEC93E00E94C505C8010E94320983EC0E
:1013700093E00E94C5058BEA93E0772011F08EEA96
:1013800093E00E94C50582EB93E00E94C505CE0163
:101390000E943209DF91CF911F910F91FF90EF9042
:1013A000DF90CF90BF90AF909F908F907F900C94E4
:1013B0001E0981EE93E0D2CF8BED93E0CFCF8091E9
:1013C000990290919A028D30910509F48CC04CF4E9
:1013D0008B30910509F460C00CF072C0892B61F06C
:1013E00008958F30910509F4A4C00CF48FC08436A1
:1013F000910509F4B1C008950E941E0981EA93E0A5
:101400000E94260985E893E00E9426098CE793E074
:101410000E94260982E793E00E94260983E693E072
:101420000E94260983E593E00E94260984E493E064
:101430000E94260981E393E00E9426098EE193E051
:101440000E94260984E093E00E94260988EE92E03B
:101450000E94260980ED92E00E94260985EC92E028
:101460000E9426098EEA92E00E9426098BE992E00A
:101470000E94260984E892E00E94260981E792E012
:101480000E94260981E592E00E9426090E941E0919
:1014900081E392E00C9426098FE092E00E94C5055A
:1014A00090E080E00E9432098DE092E00E94C50544
:1014B0008AEF90E00E9432098AE092E00C94C50520
:1014C0008CEE91E00E94C50590E080E00E94320918
:1014D0008AEE91E00E94C50588E790E00E943209FB
:1014E00087EE91E0EBCF87EC91E00E94C50584EF99
:1014F00091E00E94320985EC91E00E94C50584E6E6
:1015000099E10E94320982EC91E0D8CF84EA91E01F
:101510000E94C50590E080E00E94320982EA91E0D5
:101520000E94C50584E690E00E9432098FE991E0AF
:10153000C5CF82E891E00E94C50588E790E00E944F
:10154000320980E891E00E94C5058FEA90E00E9490
:1015500032098DE791E0B2CF86E591E0AFCF8AE323
:1015600091E00E94260981E391E00E94C50581E097
:1015700090E00E9432090E941E0982E191E00E94DF
:1015800026090C941E0920918102309182022817AD
:10159000390751F0909382028093810280918D02ED
:1015A00090918E020C94FD0308954F925F926F927A
:1015B0007F928F929F92AF92BF92CF92DF92EF92E3
:1015C000FF929C012052310945E0429FC001439F98
:1015D000900D112469E070E00E943810072E000C75
:1015E000880B990B0E94ED1123E333E948E853E49B
:1015F0000E9498109B01AC0160E070E080E89FE3DE
:101600000E9409119B01AC0169EE7EE98AEA9AE326
:101610000E94971021EE31EC49E354E30E94091136
:101620006B017C01AC019B010E943A1320E030E089
:1016300040E85EE30E943A1321E23EE44CEE5CE4B3
:101640000E9498100E94FD134B015C0120E030E0E5
:1016500040E05FE3C701B6010E943A136B017C01D1
:10166000AC019B01C501B4010E9497102BEA3AEA34
:101670004AEA5EE30E94A7132B013C01A5019401F5
:10168000C701B6010E9498102BEA3AEA4AEA5EE3E3
:101690000E94A7139B01AC01C301B2010E949710E5
:1016A0000E9483110E94B511CB01FF90EF90DF9053
:1016B000CF90BF90AF909F908F907F906F905F90F2
:1016C0004F900895AF92BF92CF92DF92EF920F9317
:1016D0001F93CF93DF93EB016A0159010E94A50686
:1016E0008091950290919602C817D90751F0D09336
:1016F0009602C093950280919302909194020E9469
:10170000FD03B501C6010E9433060F3F100759F0D3
:1017100080EF90E00E94C505C8010E9432098AEE60
:1017200090E00E9426091093840200938302E092C5
:10173000800261E0E11001C060E087E0DF91CF91BD
:101740001F910F91EF90DF90CF90BF90AF900C94CE
:10175000B103EF920F931F93E12C0FEF1FEF30E0D7
:1017600020E050E040E068E470E090E080E00E941B
:10177000620B1F910F91EF9008951F920F920FB679
:101780000F9211242F933F938F939F93AF93BF9307
:101790008091AC029091AD02A091AE02B091AF02E7
:1017A0003091AB0223E0230F2D3758F50196A11D90
:1017B000B11D2093AB028093AC029093AD02A09335
:1017C000AE02B093AF028091A7029091A802A091BF
:1017D000A902B091AA020196A11DB11D8093A70292
:1017E0009093A802A093A902B093AA02BF91AF91CF
:1017F0009F918F913F912F910F900FBE0F901F904F
:10180000189526E8230F0296A11DB11DD2CF1F9275
:101810000F920FB60F9211242F933F934F935F9324
:101820006F937F938F939F93AF93BF93EF93FF93A8
:1018300080EB92E00E945605FF91EF91BF91AF912E
:101840009F918F917F916F915F914F913F912F91D8
:101850000F900FBE0F901F9018951F920F920FB60A
:101860000F9211242F938F939F93EF93FF93E09107
:10187000C002F091C1028081E091C602F091C702DE
:1018800082FD1BC090818091C9028F5F8F73209170
:10189000CA02821741F0E091C902F0E0E055FD4F25
:1018A000958F8093C902FF91EF919F918F912F9116
:1018B0000F900FBE0F901F9018958081F4CF1F924C
:1018C0000F920FB60F9211242F933F934F935F9374
:1018D0006F937F938F939F93AF93BF93EF93FF93F8
:1018E000E0910001F09101010995FF91EF91BF9105
:1018F000AF919F918F917F916F915F914F913F91A8
:101900002F910F900FBE0F901F901895789484B56B
:10191000826084BD84B5816084BD85B5826085BDEB
:1019200085B5816085BD80916E00816080936E0079
:10193000109281008091810082608093810080916B
:10194000810081608093810080918000816080931C
:1019500080008091B10084608093B1008091B000DC
:1019600081608093B00080917A00846080937A00D7
:1019700080917A00826080937A0080917A00816001
:1019800080937A0080917A00806880937A00109228
:10199000C100E091C002F091C10282E08083E09139
:1019A000C002F091C1021082E091BC02F091BD0230
:1019B0001082E091BE02F091BF0210E110831092FC
:1019C000C802E091C402F091C50286E08083E091F4
:1019D000C202F091C302808180618083E091C202E3
:1019E000F091C302808188608083E091C202F0910F
:1019F000C302808180688083E091C202F091C302BB
:101A000080818F7D808380EB92E00E94E0050E94C0
:101A1000AF0A10929A02109299020E94DF0981E1A6
:101A20000E94920361E081E10E94B10387E00E947D
:101A3000920360E087E00E94B10389E00E94920374
:101A400060E089E00E94B10385E00E94920360E0BB
:101A500085E00E94B10386E00E94920360E086E088
:101A60000E94B10383E00E94920360E083E00E9441
:101A7000B10388E00E94920360E088E00E94B10315
:101A80008EE00E94920360E08EE00E94B10380E14C
:101A90000E94920360E080E10E94B1038FE00E9407
:101AA000920360E08FE00E94B10384E00E94920301
:101AB00060E084E00E94B10382E00E94920360E053
:101AC00082E00E94B10383E10E94920361E083E11E
:101AD0000E94B10382E10E94920361E082E10E94D0
:101AE000B10387E090E00E94A214EC0183E18883B7
:101AF0001A821982C12CDD24D394DC82CB821E820F
:101B00001D820E94000688810E94920361E0888104
:101B10000E94B103D0938E02C0938D0287E090E0C3
:101B20000E94A214EC0182E188831A821982DC826D
:101B3000CB821E821D820E94000688810E94920331
:101B400061E088810E94B103D0939402C093930214
:101B5000109381001092800081E080938C0210929B
:101B60008B0210928A02109287001092860091E1F7
:101B70009093810024E434E030930101209300012C
:101B800080936F001093810087E890E09093920219
:101B9000809391020E94A90B88E490E00E94C30AFE
:101BA00090E0C92E90E0D92E2FEAA22EB12C38E772
:101BB000832E912C44E6642E712C80EB92E00E94DF
:101BC0002805019619F180EB92E00E9414058C0122
:101BD000682F80EB92E00E9478050A301105B1F081
:101BE000C091A502D091A60200331105CCF0CE0120
:101BF00001969093A6028093A502C556DD4F0883F7
:101C0000099721F41092A6021092A502C114D104E2
:101C1000A1F20E944205882381F20E940000CDCFEC
:101C20000830110549F41C161D0684F72197D0933E
:101C3000A602C093A502EACF80EB92E00E94E005E5
:101C4000C556DD4F18821092A6021092A50220916F
:101C50009B02211107C00E94AF0A10929A021092B3
:101C60009902B2C08091990290919A02009709F06E
:101C7000B3C08BE992E00E94D60FFC013197EF30A0
:101C8000F10508F0A4C0E95BF14F0C946E105C0EF6
:101C9000560E5F0E700E800E900EA00EB00EC00E8F
:101CA000D00EE00EE00EE00EE00EE00E0E94A90B5A
:101CB0008BE696E00E9426090E946209CECFEE24B0
:101CC000E3940FEF1FEF30E020E050E040E068E4E5
:101CD00070E090E080E00E94620B8BE596E0EACF36
:101CE000E12C0FE010E030E020E050E040E068E45C
:101CF00070E080EB94E00E94620B8AE496E0DACF19
:101D0000E12C0FE010E030E020E050E040E069EB33
:101D100070E08CEB92E00E94620B8AE396E0CACFFF
:101D2000E12C0BE010E021E030E04AEA50E069EB02
:101D300070E088E795E00E94620B83E296E0BACFFC
:101D4000E12C0BE010E021E030E04AEF50E069EBDD
:101D500070E088EB9BE00E94620B8CE096E0AACFDB
:101D6000E12C09E010E021E030E04CE251E069EBC9
:101D700070E088E097E00E94620B81EF95E09ACFD7
:101D8000E12C07E010E021E030E044EF51E069EBA6
:101D900070E08CEA9DE00E94620B84ED95E08ACFB2
:101DA000E12C02E010E021E030E046EB53E069EB8B
:101DB00070E080E797E10E94620B8BEB95E07ACFB1
:101DC00090939A02809399020E94DF091FCF86EABE
:101DD00095E00E942609F8CF8D30910509F45AC08C
:101DE000ACF48B30910561F10C9709F00FCF8BE9C2
:101DF00092E00E94F40F6937710508F445C00E9413
:101E00001E090E941E098CE295E027C08F309105C3
:101E100009F457C00CF486C08436910509F0F6CE5B
:101E20002F7D62E070E0253511F461E070E0809173
:101E30009702909198020E9433068CE294E03ACF88
:101E40008BE992E00E94F40F6B3F710548F00E940D
:101E50001E090E941E0985E795E00E942609FDCE15
:101E600020919502309196022617370751F0709312
:101E700096026093950280919302909194020E9441
:101E8000FD038DE595E016CFCB010E94C30A88E1E2
:101E900095E010CF8BE992E00E94F40F9B01245F44
:101EA00031402137374138F00E941E090E941E0937
:101EB00087EE94E0D2CFCB010E94A50686ED94E098
:101EC000F9CE8BE992E00E94F40F9B01285731096B
:101ED0002833310538F00E941E090E941E0985EA48
:101EE00094E0BBCF68377105C4F0709392026093A1
:101EF00091028091910290919202803B910524F091
:101F0000B0929202A092910280918F0290919002E1
:101F10000E94A50681E894E0CDCE90929202809234
:101F20009102E7CF8BE992E00E94F40F7093980240
:101F3000609397026536710538F00E941E090E9471
:101F40001E0980E594E089CF70929A02609299020E
:101F50003BCFE0EBF2E01382128288EE93E0A0E048
:101F6000B0E084839583A683B7838CE492E0918369
:101F7000808385EC90E09587848784EC90E0978758
:101F8000868780EC90E0918B808B81EC90E0938B46
:101F9000828B82EC90E0958B848B86EC90E0978B23
:101FA000868B118E128E138E148E0895FC01882755
:101FB0009927E89421912032E9F3293010F02E304E
:101FC000C8F32B3241F02D3239F4689404C00E94DA
:101FD0003010820F911D219120532A30C0F31EF43E
:101FE000909581959F4F08951F93FC01992788270D
:101FF000BC01E89411911032E9F3193010F01E3051
:10200000C8F31B3251F01D3249F4689406C00E9497
:102010001B10610F711D811D911D119110531A30FC
:10202000B0F33EF490958095709561957F4F8F4FFA
:102030009F4F1F910895592F482F372F262F660F36
:10204000771F881F991F660F771F881F991F620FC0
:10205000731F841F951F660F771F881F991F089590
:102060007AE0979F902D879F802D910D11240895E0
:1020700097FB072E16F4009407D077FD09D00E9435
:10208000831007FC05D03EF4909581959F4F0895ED
:10209000709561957F4F0895A1E21A2EAA1BBB1B74
:1020A000FD010DC0AA1FBB1FEE1FFF1FA217B30724
:1020B000E407F50720F0A21BB30BE40BF50B661F3A
:1020C000771F881F991F1A9469F7609570958095FE
:1020D00090959B01AC01BD01CF010895EE0FFF1F4C
:1020E0000590F491E02D0994A29FB001B39FC00127
:1020F000A39F700D811D1124911DB29F700D811D34
:102100001124911D0895AA1BBB1B51E107C0AA1FF2
:10211000BB1FA617B70710F0A61BB70B881F991F88
:102120005A95A9F780959095BC01CD010895505816
:10213000BB27AA270E94AF100C948A120E947C121F
:1021400038F00E94831220F039F49F3F19F426F4EE
:102150000C9452120EF4E095E7FB0C944C12E92F0C
:102160000E949B1258F3BA176207730784079507FA
:1021700020F079F4A6F50C94BD120EF4E0950B2E28
:10218000BA2FA02D0B01B90190010C01CA01A001C9
:102190001124FF27591B99F0593F50F4503E68F124
:1021A0001A16F040A22F232F342F4427585FF3CF65
:1021B000469537952795A795F0405395C9F77EF436
:1021C0001F16BA0B620B730B840BBAF09150A1F07F
:1021D000FF0FBB1F661F771F881FC2F70EC0BA0F05
:1021E000621F731F841F48F4879577956795B7958D
:1021F000F7959E3F08F0B0CF9395880F08F0992788
:10220000EE0F9795879508950E94281208F481E0B3
:1022100008950E941D110C948A120E94831258F096
:102220000E947C1240F029F45F3F29F00C944C127C
:1022300051110C94BE120C9452120E949B1268F31E
:102240009923B1F3552391F3951B550BBB27AA276F
:1022500062177307840738F09F5F5F4F220F331FA9
:10226000441FAA1FA9F335D00E2E3AF0E0E832D071
:1022700091505040E695001CCAF72BD0FE2F29D074
:10228000660F771F881FBB1F261737074807AB0746
:10229000B0E809F0BB0B802DBF01FF2793585F4FBB
:1022A0003AF09E3F510578F00C944C120C94BE12FB
:1022B0005F3FE4F3983ED4F3869577956795B7959D
:1022C000F7959F5FC9F7880F911D9695879597F9A8
:1022D0000895E1E0660F771F881FBB1F6217730721
:1022E0008407BA0720F0621B730B840BBA0BEE1F36
:1022F00088F7E095089529F416F00C944C120C948C
:10230000BD120C9452120E94A312A8F39638A0F7A3
:1023100007F80F92E8942BE33AEA48EB5FE70E9454
:1023200050130F920F920F924DB75EB70F920E940B
:102330000613E8E6F0E00E9455124F915F91EF918D
:10234000FF91E595EE1FFF1F49F0FE57E068442717
:10235000EE0F441FFA95E1F74195550B0E94D012FC
:102360000F9007FE0C94C41208950E94BC1168944B
:10237000B1110C94BE1208950E94A31288F09F57C9
:1023800098F0B92F9927B751B0F0E1F0660F771F99
:10239000881F991F1AF0BA95C9F714C0B13091F08F
:1023A0000E94BD12B1E008950C94BD12672F782FE2
:1023B0008827B85F39F0B93FCCF386957795679554
:1023C000B395D9F73EF490958095709561957F4FC0
:1023D0008F4F9F4F0895E89409C097FB3EF4909566
:1023E0008095709561957F4F8F4F9F4F9923A9F0EE
:1023F000F92F96E9BB279395F6958795779567957D
:10240000B795F111F8CFFAF4BB0F11F460FF1BC0C0
:102410006F5F7F4F8F4F9F4F16C0882311F096E953
:1024200011C0772321F09EE8872F762F05C0662301
:1024300071F096E8862F70E060E02AF09A95660FBA
:10244000771F881FDAF7880F9695879597F9089573
:10245000990F0008550FAA0BE0E8FEEF16161706B5
:10246000E807F907C0F012161306E407F50798F01D
:10247000621B730B840B950B39F40A2661F0232B36
:10248000242B252B21F408950A2609F4A140A695B2
:102490008FEF811D811D089597F99F6780E870E097
:1024A00060E008959FEF80EC0895DF93CF931F9332
:1024B0000F93FF92EF92DF927B018C01689406C02C
:1024C000DA2EEF010E944D13FE01E894A5912591AB
:1024D000359145915591A6F3EF010E94AF10FE0191
:1024E0009701A801DA9469F7DF90EF90FF900F91C0
:1024F0001F91CF91DF91089500240A9416161706B4
:1025000018060906089500240A94121613061406E4
:1025100005060895092E0394000C11F4882352F047
:10252000BB0F40F4BF2B11F460FF04C06F5F7F4FFF
:102530008F4F9F4F089557FD9058440F551F59F0E6
:102540005F3F71F04795880F97FB991F61F09F3FA0
:1025500079F087950895121613061406551FF2CFC9
:102560004695F1DF08C0161617061806991FF1CF19
:1025700086957105610508940895E894BB27662740
:102580007727CB0197F908959B01AC0160E070E0DB
:1025900080E89FE30C9409110C944C120C943D14A8
:1025A0000E94A312D8F39923C9F3940F511DA3F3EA
:1025B0009150504094F059F0882332F0660F771F05
:1025C000881F91505040C1F79E3F51052CF7880F4E
:1025D000911D9695879597F908955F3FACF0983EC9
:1025E0009CF0BB27869577956795B79508F4B16001
:1025F0009395C1F7BB0F58F711F460FFE8CF6F5FF9
:102600007F4F8F4F9F4FE3CF0C94BE12FA01DC0136
:10261000AA0FBB1F9B01AC01BF5728F42227332709
:102620004427507820C0B75190F4AB2F0024469532
:1026300037952795011CA395D2F3002071F0220F46
:10264000331F441FB395DAF30ED00C94971061300A
:102650007105A0E88A07B94630F49B01AC016627F2
:10266000772788279078309621F020833183428322
:10267000538308950E944D130C948A120E947C1279
:1026800038F00E94831220F0952311F00C944C1224
:102690000C94521211240C94BE120E949B1270F3DF
:1026A000959FC1F3950F50E0551F629FF001729FF7
:1026B000BB27F00DB11D639FAA27F00DB11DAA1F06
:1026C000649F6627B00DA11D661F829F2227B00D53
:1026D000A11D621F739FB00DA11D621F839FA00DDE
:1026E000611D221F749F3327A00D611D231F849F2E
:1026F000600D211D822F762F6A2F11249F57504085
:102700009AF0F1F088234AF0EE0FFF1FBB1F661FFF
:10271000771F881F91505040A9F79E3F510580F0C8
:102720000C944C120C94BE125F3FE4F3983ED4F329
:10273000869577956795B795F795E7959F5FC1F76C
:10274000FE2B880F911D9695879597F90895FA01AC
:10275000EE0FFF1F309621053105A1F161157105BE
:1027600061F48038BFE39B0749F168949038810594
:1027700061F08038BFEF9B0741F099234AF5FF3F96
:10278000E1053105210519F1E8940894E795D9018F
:10279000AA2329F4AB2FBE2FF85FD0F310C0FF5F40
:1027A00070F4A695E0F7F73950F019F0FF3A38F4D5
:1027B0009F779F930DD00F9007FC9058089546F097
:1027C0000C94521260E070E080E89FE308954FE7B8
:1027D0009F775F934F933F932F930E945A142F91AB
:1027E0003F914F915F910E943A130C94831119F419
:1027F00016F40C9452120C943D140E94A312B8F3D8
:102800009923C9F3B6F39F57550B87FF0E944B14CA
:102810000024A0E640EA900180585695979528F448
:10282000805C660F771F881F20F026173707480740
:1028300030F4621B730B840B202931294A2BA69597
:1028400017940794202531254A2758F7660F771FDC
:10285000881F20F026173707480730F4620B730BE8
:10286000840B200D311D411DA09581F7B901842FE6
:102870009158880F9695879508959F3F31F0915014
:1028800020F4879577956795B795880F911D969554
:10289000879597F9089591505040660F771F881FCC
:1028A000D2F7089516F00C943D140C9452126894CB
:1028B0000C944C120E94A312A8F39923C1F3AEF317
:1028C000DF93CF931F930F93FF92C92FDD278823A8
:1028D0002AF02197660F771F881FDAF720E030E093
:1028E00040E85FEB9FE3883920F0803E38F0219686
:1028F0008F770E949810E0E9F0E004C00E949810E1
:10290000EDEBF0E00E9455128B01BE01EC01FB2EB5
:102910006F5771097595771F880B990B0E94ED1100
:1029200028E132E741E35FE30E944D13AF2D9801A8
:10293000AE01FF900F911F91CF91DF910E94AF10D8
:102940000C948A120F931F93CF93DF9382309105DB
:1029500010F482E090E0E0914F03F091500330E0FA
:1029600020E0B0E0A0E0309799F42115310509F49A
:102970004AC0281B390B24303105D8F58A819B8148
:102980006115710589F1FB0193838283FE0111C0FA
:10299000408151810281138148175907E0F048179F
:1029A000590799F4109761F012960C9312971396A9
:1029B0001C933296CF01DF91CF911F910F91089513
:1029C00000934F0310935003F4CF2115310551F0BC
:1029D0004217530738F0A901DB019A01BD01DF015D
:1029E000F801C1CFEF01F9CF9093500380934F03CB
:1029F000CDCFFE01E20FF31F819391932250310955
:102A000039832883D7CF20914D0330914E03232B58
:102A100041F4209104013091050130934E0320933D
:102A20004D0320910201309103012115310541F43C
:102A30002DB73EB74091060150910701241B350B7D
:102A4000E0914D03F0914E03E217F307A0F42E1B23
:102A50003F0B2817390778F0AC014E5F5F4F241702
:102A6000350748F04E0F5F1F50934E0340934D03C0
:102A7000819391939FCFF0E0E0E09CCFCF93DF93E1
:102A80000097E9F0FC01329713821282A0914F0364
:102A9000B0915003ED0130E020E01097A1F42081C7
:102AA0003181820F931F20914D0330914E032817DF
:102AB000390709F061C0F0934E03E0934D03DF91B5
:102AC000CF910895EA01CE17DF07E8F54A815B81CF
:102AD0009E0141155105B1F7E901FB83EA83499154
:102AE0005991C40FD51FEC17FD0761F480819181C6
:102AF0000296840F951FE9019983888382819381CF
:102B00009B838A83F0E0E0E012968D919C9113976D
:102B10000097B9F52D913C911197CD010296820F46
:102B2000931F20914D0330914E032817390739F632
:102B3000309751F51092500310924F03B0934E030B
:102B4000A0934D03BCCFD383C28340815181840FB6
:102B5000951FC817D90761F44E5F5F4F888199812F
:102B6000480F591F518340838A819B8193838283BD
:102B70002115310509F0B0CFF0935003E0934F03D6
:102B80009ECFFD01DC01C0CF13821282D7CFF89413
:022B9000FFCF75
:102B92004304000051038000000017000000010000
:102BA20018002E00000000002F0045000100000068
:102BB20046005C00000000005D00730000000100A0
:102BC20074008A00000000008B00A20001000000D7
:102BD200A300B90000000000BA00D000000001000C
:102BE200D100E70000000000E800FE000100000044
:102BF200FF0015010000000000012C01000001008F
:102C02002D0143010000000044015A0101000000AF
:102C12005B017101000000007201880100000100E7
:102C220089019F0100000000A001B601010000001F
:102C3200B701CE0100000000CF01E5010000010054
:102C4200E601FC0100000000FD011302010000008A
:102C520014022A02000000002B02410200000100BF
:102C6200420258020000000059026F0201000000F7
:102C7200700286020000000087029D02000001002F
:102C82009E02B40200000000B502CB020100000067
:102C9200CC02E20200000000E302FA02000001009E
:102CA200FB021103000000001203280301000000D0
:102CB20029033F0300000000400356030000010007
:102CC20057036D03000000006E038403010000003F
:102CD2008503E80301000000000000007805D80425
:0E2CE2000505E0053605140528050D0A00005D
:00000001FF
