:100000000C94C8020C94F0020C94F0020C94F002D0
:100010000C94F0020C94F0020C94F0020C94F00298
:100020000C94F0020C94F0020C94F0020C94F00288
:100030000C94F0020C94F0020C94F0020C94F00278
:100040000C9419060C94F0020C9489060C94630627
:100050000C94F0020C94F0020C94F0020C94F00258
:100060000C94F0020C94F00220494E4847004143A2
:1000700054494F4E3A204D414E55414C4C5420531B
:10008000455420505245535355524520544F20005B
:1000900028432920616E64794062726974697368CB
:1000A00069646561732E636F6D20323032310056A2
:1000B000657273696F6E20004D6572636564657368
:1000C00020563820444A65742045435520546573B2
:1000D00074657200456E746572206E657720636F7B
:1000E0006C642073746172742076616C7665207024
:1000F0006F736974696F6E20284F206F72204329D7
:100100003A00456E746572206E6577207468726F70
:1001100074746C6520646972656374696F6E2028FD
:1001200055206F722044293A00293A002D00456E6F
:10013000746572206E6577207468726F74746C6574
:1001400020706F736974696F6E202800293A002D42
:1001500000456E746572206E657720656E67696E06
:100160006520737065656420696E2052504D2028AB
:1001700000293A002D00456E746572206E65772067
:100180006169722074656D7020696E2064656720F6
:1001900046202800293A002D00456E746572206EB5
:1001A000657720636F6F6C616E742074656D70206D
:1001B000696E206465672046202800456E7465726C
:1001C0002061206E756D62657220616E64207072B0
:1001D00065737320456E7465723A00202031332EAA
:1001E0002053657420436F6C6420537461727420D3
:1001F00056616C766500202031322E2053657420C4
:100200007468726F74746C6500202031312E205335
:10021000657420656E67696E65207370656564003E
:10022000202031302E20536574206169722074655E
:100230006D7000202020392E2053657420636F6F6D
:100240006C616E742074656D7000437573746F6DAE
:10025000697A653A00202020382E20486172642097
:10026000616363656C65726174696F6E0020202044
:10027000372E204D6F64657261746520616363651C
:100280006C65726174696F6E00202020362E2047E5
:10029000656E746C6520616363656C657261746919
:1002A0006F6E00202020352E204372756973652003
:1002B00037304D504800202020342E20437275697D
:1002C00073652033304D504800202020332E2048C5
:1002D0006F742069646C6500202020322E20436FEB
:1002E0006C642069646C6500507265736574733A60
:1002F00000202020312E2053686F772063757272A2
:10030000656E742073657474696E6773004D41493E
:100310004E204D454E5500636C6F736564006F70E1
:10032000656E002C206373763D002C20656E67732C
:10033000706565643D00646563656C006163636559
:100340006C006E6F6E65002C207468726F74746C34
:10035000656469723D002C207468726F74746C65FA
:10036000706F733D002C20636F6F6C616E747465E9
:100370006D703D0053657474696E67733A206169EE
:100380007274656D703D00456E67696E65206973B6
:10039000206F6666004552524F523A20496E766190
:1003A0006C696420696E7075740053657420746F95
:1003B000206861726420616363656C657261746951
:1003C0006F6E0053657420746F206D6F6465726189
:1003D000746520616363656C65726174696F6E003A
:1003E00053657420746F2067656E746C652061635B
:1003F00063656C65726174696F6E00536574207417
:100400006F206372756973652061742037304D50B9
:10041000480053657420746F20637275697365209A
:1004200061742033304D50480053657420746F2040
:10043000686F742069646C650053657420746F2064
:10044000636F6C642069646C6500436F6C64205357
:10045000746172742056616C766520706F73697474
:10046000696F6E20736574005468726F74746C6584
:1004700020706F736974696F6E20616E64206469A7
:1004800072656374696F6E20736574004552524FD4
:10049000523A20456E74657265642076616C7565AC
:1004A000206973206F757473696465206F662061BD
:1004B0006C6C6F7765642072616E676500456E676E
:1004C000696E6520737065656420736574004552BC
:1004D000524F523A20456E74657265642076616CA5
:1004E0007565206973206F757473696465206F6624
:1004F00020616C6C6F7765642072616E6765004186
:1005000069722074656D70657261747572652073AF
:100510006574004552524F523A20456E74657265BB
:10052000642076616C7565206973206F75747369DA
:100530006465206F6620616C6C6F77656420726102
:100540006E676500436F6F6C616E742074656D70CB
:100550006572617475726520736574004552524FFF
:10056000523A20456E74657265642076616C7565DB
:10057000206973206F757473696465206F662061EC
:100580006C6C6F7765642072616E67650000C508EA
:1005900011241FBECFEFD8E0DEBFCDBF11E0A0E039
:1005A000B1E0ECEFF2E102C005900D92A631B10787
:1005B000D9F721E0A6E1B1E001C01D92AA3DB20742
:1005C000E1F712E0C8ECD2E004C02197FE010E94DE
:1005D0007609C73CD107C9F70E94BB060C947C0979
:1005E0000C940000AF92BF92CF92DF92EF92FF92F5
:1005F0000F931F93CF93DF936C017B018B01040F4B
:10060000151FEB015E01AE18BF08C017D10759F0E6
:100610006991D601ED91FC910190F081E02DC60128
:100620000995892B79F7C501DF91CF911F910F9122
:10063000FF90EF90DF90CF90BF90AF900895FC01B6
:10064000538D448D252F30E0842F90E0821B930B37
:10065000541710F0CF96089501970895FC01918DDD
:10066000828D981761F0A28DAE0FBF2FB11D5D96E0
:100670008C91928D9F5F9F73928F90E008958FEF82
:100680009FEF0895FC01918D828D981731F0828D36
:10069000E80FF11D858D90E008958FEF9FEF08958D
:1006A000FC01918D228D892F90E0805C9F4F821BF1
:1006B00091098F73992708958DE391E00E9450036B
:1006C00021E0892B09F420E0822F089580E090E05A
:1006D000892B29F00E945C0381110C94000008957D
:1006E000FC01A48DA80FB92FB11DA35ABF4F2C91A7
:1006F000848D90E001968F739927848FA689B7899E
:100700002C93A089B1898C91837080648C93938D94
:10071000848D981306C00288F389E02D80818F7D37
:1007200080830895EF92FF920F931F93CF93DF93EF
:10073000EC0181E0888F9B8D8C8D98131AC0E8891D
:10074000F989808185FF15C09FB7F894EE89FF89EC
:100750006083E889F98980818370806480839FBF8A
:1007600081E090E0DF91CF911F910F91FF90EF908A
:100770000895F62E0B8D10E00F5F1F4F0F7311279A
:10078000E02E8C8D8E110CC00FB607FCFACFE889D5
:10079000F989808185FFF5CFCE010E947003F1CFEA
:1007A000EB8DEC0FFD2FF11DE35AFF4FF0829FB749
:1007B000F8940B8FEA89FB8980818062CFCF0F93F9
:1007C0001F93CF93DF938C01D0E0C0E0F801EC0FD2
:1007D000FD1F6491662341F08DE391E00E94920336
:1007E000892B11F02196F2CFCE01DF91CF911F918D
:1007F0000F910895CF93DF93EC01888D8823B9F092
:10080000AA89BB89E889F9898C9185FD03C080811B
:1008100086FD0DC00FB607FCF7CF8C9185FFF2CF98
:10082000808185FFEDCFCE010E947003E9CFDF917B
:10083000CF9108958F929F92AF92BF920F931F9383
:10084000CF93DF93CDB7DEB7A1970FB6F894DEBF95
:100850000FBECDBF19A2423008F44AE08E010F5DF1
:100860001F4F842E912CB12CA12CA50194010E9424
:100870005409E62FB901CA01EA3044F5E05DD80118
:10088000EE938D01232B242B252B79F790E080E02C
:10089000109769F0FD0101900020E9F73197AF0151
:1008A0004A1B5B0BBD018DE391E00E94F202A19611
:1008B0000FB6F894DEBF0FBECDBFDF91CF911F9171
:1008C0000F91BF90AF909F908F900895E95CD7CF24
:1008D00042E050E062E171E08DE391E00C94F202BD
:1008E000CF93DF930E94DF03EC010E9468048C0F1A
:1008F0009D1FDF91CF910895CF92DF92EF92FF92EB
:10090000CF93DF936C01990FEE08FF08F7FE19C033
:100910006DE28DE391E00E949203EC016627772758
:10092000CB016C197D098E099F094AE00E941A04C7
:100930008C0F9D1FDF91CF91FF90EF90DF90CF90B4
:1009400008954AE0C701B601DF91CF91FF90EF9083
:10095000DF90CF900C941A048F929F92AF92BF9227
:10096000CF92DF92EF92FF920F931F93CF93DF937B
:100970000E94680400911E0110911F01C090220185
:10098000D0902301E0901C01F0901D0180901A018D
:1009900090901B01C0911801D0911901A0902001E5
:1009A000B090210184E793E00E94DF03C5010E941B
:1009B0007C0485E693E00E94DF03C6010E947C046C
:1009C00086E593E00E94DF03C7010E947C0487E470
:1009D00093E00E94DF0381E08816910439F182E000
:1009E0008816910431F182E493E00E94DF038AE2E9
:1009F00093E00E94DF03C8010E947C0483E293E03D
:100A00000E94DF0387E193E0219711F48EE193E0E8
:100A1000DF91CF911F910F91FF90EF90DF90CF90DA
:100A2000BF90AF909F908F900C9470048CE393E0F4
:100A3000DCCF86E393E0D9CF809126019091270106
:100A40008B30910509F484C04CF48930910509F488
:100A500058C00CF06AC0892B61F008958D30910563
:100A600009F49FC00CF487C08436910509F496C040
:100A700008950E9468048DE093E00E94700481EF65
:100A800092E00E94700488EE92E00E94700488ED6B
:100A900092E00E94700489EC92E00E94700486EB60
:100AA00092E00E94700483EA92E00E94700489E858
:100AB00092E00E9470048DE692E00E94700485E549
:100AC00092E00E9470048AE492E00E94700483E342
:100AD00092E00E94700480E292E00E94700489E03B
:100AE00092E00E94700486EF91E00E9470048BED0A
:100AF00091E00E9470040E9468048BEB91E00C94DA
:100B0000700489E991E00E94DF0390E080E00E9498
:100B10007C0487E991E00E94DF038AEF90E00E9465
:100B20007C0484E991E00C94DF0386E791E00E9465
:100B3000DF0390E080E00E947C0484E791E00E9463
:100B4000DF0388E790E00E947C0481E791E0EBCF2F
:100B500081E591E00E94DF0384EF91E00E947C0434
:100B60008FE491E00E94DF0384E699E10E947C0417
:100B70008CE491E0D8CF8EE291E00E94DF0390E018
:100B800080E00E947C048CE291E00E94DF0384E616
:100B900090E00E947C0489E291E0C5CF82E091E080
:100BA000C2CF84ED90E0BFCF88EB90E00E9470044C
:100BB0008FEA90E00E94DF0381E090E00E947C04D5
:100BC0000E94680480E990E00E9470040C9468041C
:100BD0008EE690E00E94DF0380911601909117014C
:100BE0000E947C0488E690E00C9470048CEB92E008
:100BF00090931F0180931E0189EB90E09093230155
:100C00008093220110921D0110921C0110921B0171
:100C100010921A018FE090E09093170180931601D3
:100C20000E94E80581E090E09093190180931801FB
:100C300008951F920F920FB60F9211242F933F9396
:100C40008F939F93AF93BF938091390190913A0115
:100C5000A0913B01B0913C013091380123E0230F7A
:100C60002D3758F50196A11DB11D209338018093B1
:100C7000390190933A01A0933B01B0933C018091DC
:100C8000340190913501A0913601B0913701019660
:100C9000A11DB11D8093340190933501A0933601BD
:100CA000B0933701BF91AF919F918F913F912F9159
:100CB0000F900FBE0F901F90189526E8230F0296F5
:100CC000A11DB11DD2CF1F920F920FB60F9211240A
:100CD0002F933F934F935F936F937F938F939F9344
:100CE000AF93BF93EF93FF938DE391E00E94700366
:100CF000FF91EF91BF91AF919F918F917F916F91F4
:100D00005F914F913F912F910F900FBE0F901F90C9
:100D100018951F920F920FB60F9211242F938F9355
:100D20009F93EF93FF93E0914D01F0914E018081ED
:100D3000E0915301F091540182FD1BC0908180919C
:100D400056018F5F8F7320915701821741F0E09118
:100D50005601F0E0E35CFE4F958F80935601FF91C2
:100D6000EF919F918F912F910F900FBE0F901F9039
:100D700018958081F4CF789484B5826084BD84B561
:100D8000816084BD85B5826085BD85B5816085BD86
:100D900080916E00816080936E001092810080913E
:100DA00081008260809381008091810081608093C6
:100DB0008100809180008160809380008091B100EB
:100DC00084608093B1008091B00081608093B00016
:100DD00080917A00846080937A0080917A008260AA
:100DE00080937A0080917A00816080937A0080916C
:100DF0007A00806880937A001092C100E0914D01E2
:100E0000F0914E0182E08083E0914D01F0914E011E
:100E10001082E0914901F0914A011082E0914B016A
:100E2000F0914C0180E1808310925501E0915101D5
:100E3000F091520186E08083E0914F01F0915001E2
:100E4000808180618083E0914F01F0915001808129
:100E500088608083E0914F01F0915001808180682B
:100E60008083E0914F01F091500180818F7D8083DC
:100E70008DE391E00E94FA030E94D40510921F01B5
:100E800010921E01109223011092220110921D0156
:100E900010921C0110921B0110921A018FEF9FEF0C
:100EA000909317018093160181E090E090931901CF
:100EB0008093180188E490E09093210180932001B1
:100EC00087E893E00E947004109227011092260197
:100ED0000E941C0580E0682E80E0782E94E6E92EC2
:100EE000F12C20EBC22E24E0D22E38E4A32EB12C1C
:100EF0004FE0842E912C8DE391E00E9442030196F5
:100F000021F18DE391E00E942E03EC01682F8DE327
:100F100091E00E949203CA30D105B9F0809132016C
:100F2000909133018C01085D1E4FC033D105BCF098
:100F300001969093330180933201F801C0830997A1
:100F400021F410923301109232016114710499F26C
:100F50000E945C03882379F20E940000CCCF8DE3CD
:100F600091E00E94FA03F80110821092330110926E
:100F7000320120912801211107C00E94D40510924E
:100F800027011092260165C08091260190912701CA
:100F9000009709F066C088E291E00E94F208FC0127
:100FA0003197ED30F10508F057C0E752F84F0C9437
:100FB00076090408E60707080C08110816081B083C
:100FC000200825082508250825082508D0921F0196
:100FD000C0921E01B0922301A092220110921D0125
:100FE00010921C0110921B0110921A01909217018D
:100FF000809216010E94E8051092190110921801C2
:1010000089E394E00E9470040E94AC04B8CF0E946F
:10101000F60589E294E0F6CF0E94F60582E194E0BD
:10102000F1CF0E94F6058BEF93E0ECCF0E94F6051E
:1010300080EE93E0E7CF0E94F60583EC93E0E2CFE9
:101040000E94F6058AEA93E0DDCF90932701809312
:1010500026010E941C0579CF85E993E00E94700467
:10106000F8CF8B30910509F453C0A4F48930910571
:1010700089F10A9709F069CF88E291E00E9410098E
:1010800069377105F0F10E9468040E94680483E1E9
:1010900095E02DC08D30910509F469C00CF450C065
:1010A0008436910509F051CF2F7D82E090E02535FF
:1010B00011F481E090E020912401309125013093DA
:1010C0001D0120931C0190931B0180931A0188E657
:1010D00094E098CF88E291E00E9410096B3F71057F
:1010E00048F00E9468040E9468048CE595E00E9424
:1010F000700445CF709323016093220184E495E04E
:1011000081CF70932101609320018FEF94E07ACF1B
:1011100088E291E00E9410099B01245F3140213751
:10112000374138F00E9468040E9468048EEC94E015
:10113000DECF70931F0160931E018DEB94E062CFB0
:1011400088E291E00E9410097093250160932401C8
:101150006536710538F00E9468040E9468048CE8C6
:1011600094E0C5CFF0922701E092260172CF2F7D47
:1011700081E090E02F3411F090E080E0909319012D
:10118000809318018AE494E03DCFEDE3F1E013820F
:10119000128288EE93E0A0E0B0E084839583A6837A
:1011A000B78384E091E09183808385EC90E095871C
:1011B000848784EC90E09787868780EC90E0918B21
:1011C000808B81EC90E0938B828B82EC90E0958B0E
:1011D000848B86EC90E0978B868B118E128E138E0B
:1011E000148E0895FC0188279927E89421912032D4
:1011F000E9F3293010F02E30C8F32B3241F02D32B4
:1012000039F4689404C00E944C09820F911D219109
:1012100020532A30C0F31EF4909581959F4F089576
:101220001F93FC0199278827BC01E8941191103283
:10123000E9F3193010F01E30C8F31B3251F01D32A3
:1012400049F4689406C00E943709610F711D811D21
:10125000911D119110531A30B0F33EF49095809582
:10126000709561957F4F8F4F9F4F1F910895592F14
:10127000482F372F262F660F771F881F991F660F5D
:10128000771F881F991F620F731F841F951F660F9A
:10129000771F881F991F08957AE0979F902D879F49
:1012A000802D910D11240895A1E21A2EAA1BBB1BBB
:1012B000FD010DC0AA1FBB1FEE1FFF1FA217B30722
:1012C000E407F50720F0A21BB30BE40BF50B661F38
:1012D000771F881F991F1A9469F7609570958095FC
:1012E00090959B01AC01BD01CF010895EE0FFF1F4A
:0C12F0000590F491E02D0994F894FFCFD4
:1012FC00000000009203F2021F03FA0350032E03B6
:06130C0042030D0A00007F
:00000001FF
