:100000000C94C1020C94E9020C94E9020C94E902EC
:100010000C94E9020C94E9020C94E9020C94E902B4
:100020000C94E9020C94E9020C94E9020C94E902A4
:100030000C94E9020C94E9020C94E9020C94E90294
:100040000C9412060C94E9020C9482060C945C0643
:100050000C94E9020C94E9020C94E9020C94E90274
:100060000C94E9020C94E90220494E4847004143B0
:1000700054494F4E3A204D414E55414C4C5420531B
:10008000455420505245535355524520544F20005B
:1000900028432920616E64794062726974697368CB
:1000A00069646561732E636F6D20323032310056A2
:1000B000657273696F6E20004D6572636564657368
:1000C00020563820444A65742045435520546573B2
:1000D00074657200456E746572206E657720636F7B
:1000E0006C642073746172742076616C7665207024
:1000F0006F736974696F6E20284F206F72204329D7
:100100003A00456E746572206E6577207468726F70
:1001100074746C6520646972656374696F6E2028FD
:1001200055206F722044293A00293A002D00456E6F
:10013000746572206E6577207468726F74746C6574
:1001400020706F736974696F6E202800293A002D42
:1001500000456E746572206E657720656E67696E06
:100160006520737065656420696E2052504D2028AB
:1001700000293A002D00456E746572206E65772067
:100180006169722074656D7020696E2064656720F6
:1001900046202800293A002D00456E746572206EB5
:1001A000657720636F6F6C616E742074656D70206D
:1001B000696E206465672046202800456E7465726C
:1001C0002061206E756D62657220616E64207072B0
:1001D00065737320456E7465723A00202031332EAA
:1001E0002053657420436F6C6420537461727420D3
:1001F00056616C766500202031322E2053657420C4
:100200007468726F74746C6500202031312E205335
:10021000657420656E67696E65207370656564003E
:10022000202031302E20536574206169722074655E
:100230006D7000202020392E2053657420636F6F6D
:100240006C616E742074656D7000437573746F6DAE
:10025000697A653A00202020382E20486172642097
:10026000616363656C65726174696F6E0020202044
:10027000372E204D6F64657261746520616363651C
:100280006C65726174696F6E00202020362E2047E5
:10029000656E746C6520616363656C657261746919
:1002A0006F6E00202020352E204372756973652003
:1002B00037304D504800202020342E20437275697D
:1002C00073652033304D504800202020332E2048C5
:1002D0006F742069646C6500202020322E20436FEB
:1002E0006C642069646C6500507265736574733A60
:1002F00000202020312E2053686F772063757272A2
:10030000656E742073657474696E6773004D41493E
:100310004E204D454E5500636C6F736564006F70E1
:10032000656E002C206373763D002C20656E67732C
:10033000706565643D00646563656C006163636559
:100340006C006E6F6E65002C207468726F74746C34
:10035000656469723D002C207468726F74746C65FA
:10036000706F733D002C20636F6F6C616E747465E9
:100370006D703D0053657474696E67733A206169EE
:100380007274656D703D00436F6C642053746172CC
:10039000742056616C766520706F736974696F6E36
:1003A00020736574005468726F74746C6520706F8C
:1003B000736974696F6E20616E642064697265632D
:1003C00074696F6E20736574004552524F523A2023
:1003D000456E74657265642076616C75652069731D
:1003E000206F757473696465206F6620616C6C6F33
:1003F0007765642072616E676500456E67696E653A
:1004000020737065656420736574004552524F52C5
:100410003A20456E74657265642076616C7565205E
:100420006973206F757473696465206F6620616CF1
:100430006C6F7765642072616E6765004169722038
:1004400074656D7065726174757265207365740092
:100450004552524F523A20456E746572656420765B
:10046000616C7565206973206F75747369646520AC
:100470006F6620616C6C6F7765642072616E676572
:1004800000436F6F6C616E742074656D706572618E
:100490007475726520736574004552524F523A204C
:1004A000456E74657265642076616C75652069734C
:1004B000206F757473696465206F6620616C6C6F62
:1004C0007765642072616E6765004552524F523AFB
:1004D00020496E76616C696420696E707574005392
:1004E000657420746F206861726420616363656C59
:1004F00065726174696F6E0053657420746F206D4E
:100500006F64657261746520616363656C657261B7
:1005100074696F6E0053657420746F2067656E7424
:100520006C6520616363656C65726174696F6E00F0
:1005300053657420746F20637275697365206174EC
:100540002037304D50480053657420746F2063721B
:10055000756973652061742033304D5048005365D0
:100560007420746F20686F742069646C6500536533
:100570007420746F20636F6C642069646C65000084
:10058000BA0811241FBECFEFD8E0DEBFCDBF11E007
:10059000A0E0B1E0E6EEF2E102C005900D92A631D6
:1005A000B107D9F721E0A6E1B1E001C01D92AA3D53
:1005B000B207E1F712E0C1ECD2E004C02197FE01DE
:1005C0000E946B09C03CD107C9F70E94B4060C9485
:1005D00071090C940000AF92BF92CF92DF92EF921C
:1005E000FF920F931F93CF93DF936C017B018B01DD
:1005F000040F151FEB015E01AE18BF08C017D1072D
:1006000059F06991D601ED91FC910190F081E02DB6
:10061000C6010995892B79F7C501DF91CF911F910B
:100620000F91FF90EF90DF90CF90BF90AF90089523
:10063000FC01538D448D252F30E0842F90E0821BE8
:10064000930B541710F0CF96089501970895FC016D
:10065000918D828D981761F0A28DAE0FBF2FB11DC5
:100660005D968C91928D9F5F9F73928F90E008951D
:100670008FEF9FEF0895FC01918D828D981731F0D7
:10068000828DE80FF11D858D90E008958FEF9FEF2B
:100690000895FC01918D228D892F90E0805C9F4F01
:1006A000821B91098F73992708958DE391E00E9431
:1006B000490321E0892B09F420E0822F089580E08E
:1006C00090E0892B29F00E94550381110C940000C1
:1006D0000895FC01A48DA80FB92FB11DA35ABF4FD7
:1006E0002C91848D90E001968F739927848FA68931
:1006F000B7892C93A089B1898C91837080648C9385
:10070000938D848D981306C00288F389E02D808133
:100710008F7D80830895EF92FF920F931F93CF9365
:10072000DF93EC0181E0888F9B8D8C8D98131AC02C
:10073000E889F989808185FF15C09FB7F894EE8913
:10074000FF896083E889F989808183708064808370
:100750009FBF81E090E0DF91CF911F910F91FF90BB
:10076000EF900895F62E0B8D10E00F5F1F4F0F7363
:100770001127E02E8C8D8E110CC00FB607FCFACF1E
:10078000E889F989808185FFF5CFCE010E94690350
:10079000F1CFEB8DEC0FFD2FF11DE35AFF4FF082EF
:1007A0009FB7F8940B8FEA89FB8980818062CFCF55
:1007B0000F931F93CF93DF938C01D0E0C0E0F8013B
:1007C000EC0FFD1F6491662341F08DE391E00E94E0
:1007D0008B03892B11F02196F2CFCE01DF91CF91BF
:1007E0001F910F910895CF93DF93EC01888D88239B
:1007F000B9F0AA89BB89E889F9898C9185FD03C084
:10080000808186FD0DC00FB607FCF7CF8C9185FF68
:10081000F2CF808185FFEDCFCE010E946903E9CF41
:10082000DF91CF9108958F929F92AF92BF920F93D5
:100830001F93CF93DF93CDB7DEB7A1970FB6F89490
:10084000DEBF0FBECDBF19A2423008F44AE08E01D0
:100850000F5D1F4F842E912CB12CA12CA50194016A
:100860000E944909E62FB901CA01EA3044F5E05D6A
:10087000D801EE938D01232B242B252B79F790E0C3
:1008800080E0109769F0FD0101900020E9F73197B1
:10089000AF014A1B5B0BBD018DE391E00E94EB02AF
:1008A000A1960FB6F894DEBF0FBECDBFDF91CF91FA
:1008B0001F910F91BF90AF909F908F900895E95C2A
:1008C000D7CF42E050E062E171E08DE391E00C941B
:1008D000EB02CF93DF930E94D803EC010E946104E6
:1008E0008C0F9D1FDF91CF910895CF92DF92EF92F1
:1008F000FF92CF93DF936C01990FEE08FF08F7FE8C
:1009000019C06DE28DE391E00E948B03EC01662734
:100910007727CB016C197D098E099F094AE00E9457
:1009200013048C0F9D1FDF91CF91FF90EF90DF900C
:10093000CF9008954AE0C701B601DF91CF91FF90B3
:10094000EF90DF90CF900C9413048F929F92AF9210
:10095000BF92CF92DF92EF92FF920F931F93CF93AC
:10096000DF930E9461040091240110912501C09041
:100970002201D0902301E0902001F090210180908D
:100980001E0190901F01C0911C01D0911D01A090EB
:100990001601B090170184E793E00E94D803C501C7
:1009A0000E94750485E693E00E94D803C6010E9468
:1009B000750486E593E00E94D803C7010E94750480
:1009C00087E493E00E94D80381E08816910439F10E
:1009D00082E08816910431F182E493E00E94D8030A
:1009E0008AE293E00E94D803C8010E94750483E262
:1009F00093E00E94D80387E193E0219711F48EE100
:100A000093E0DF91CF911F910F91FF90EF90DF90D6
:100A1000CF90BF90AF909F908F900C9469048CE31F
:100A200093E0DCCF86E393E0D9CF809126019091CB
:100A300027018B30910509F484C04CF4893091056D
:100A400009F458C00CF06AC0892B61F008958D300C
:100A5000910509F49FC00CF487C08436910509F410
:100A600096C008950E9461048DE093E00E9469049D
:100A700081EF92E00E94690488EE92E00E9469048E
:100A800088ED92E00E94690489EC92E00E9469047A
:100A900086EB92E00E94690483EA92E00E94690476
:100AA00089E892E00E9469048DE692E00E94690460
:100AB00085E592E00E9469048AE492E00E9469045C
:100AC00083E392E00E94690480E292E00E9469045C
:100AD00089E092E00E94690486EF91E00E94690437
:100AE0008BED91E00E9469040E9461048BEB91E020
:100AF0000C94690489E991E00E94D80390E080E0B9
:100B00000E94750487E991E00E94D8038AEF90E083
:100B10000E94750484E991E00C94D80386E791E083
:100B20000E94D80390E080E00E94750484E791E081
:100B30000E94D80388E790E00E94750481E791E065
:100B4000EBCF81E591E00E94D80384EF91E00E9411
:100B500075048FE491E00E94D80384E699E10E9435
:100B600075048CE491E0D8CF8EE291E00E94D80326
:100B700090E080E00E9475048CE291E00E94D8032E
:100B800084E690E00E94750489E291E0C5CF82E09E
:100B900091E0C2CF84ED90E0BFCF88EB90E00E945F
:100BA00069048FEA90E00E94D80381E090E00E94FF
:100BB00075040E94610480E990E00E9469040C942D
:100BC00061048EE690E00E94D80380911A01909112
:100BD0001B010E94750488E690E00C9469048CEB7C
:100BE00092E0909325018093240189EB90E090930B
:100BF0002301809322011092210110922001109272
:100C00001F0110921E018FE090E090931B018093D2
:100C10001A010E94E10581E090E090931D0180930C
:100C20001C0108951F920F920FB60F9211242F935B
:100C30003F938F939F93AF93BF938091390190918E
:100C40003A01A0913B01B0913C013091380123E081
:100C5000230F2D3758F50196A11DB11D20933801A2
:100C60008093390190933A01A0933B01B0933C01EA
:100C70008091340190913501A0913601B0913701F6
:100C80000196A11DB11D8093340190933501A0936D
:100C90003601B0933701BF91AF919F918F913F91F2
:100CA0002F910F900FBE0F901F90189526E8230FDD
:100CB0000296A11DB11DD2CF1F920F920FB60F92B7
:100CC00011242F933F934F935F936F937F938F9351
:100CD0009F93AF93BF93EF93FF938DE391E00E94B7
:100CE0006903FF91EF91BF91AF919F918F917F9198
:100CF0006F915F914F913F912F910F900FBE0F9089
:100D00001F9018951F920F920FB60F9211242F93D8
:100D10008F939F93EF93FF93E0914D01F0914E01DC
:100D20008081E0915301F091540182FD1BC09081BC
:100D3000809156018F5F8F7320915701821741F088
:100D4000E0915601F0E0E35CFE4F958F80935601F1
:100D5000FF91EF919F918F912F910F900FBE0F9068
:100D60001F9018958081F4CF789484B5826084BDFB
:100D700084B5816084BD85B5826085BD85B581609F
:100D800085BD80916E00816080936E00109281001D
:100D900080918100826080938100809181008160D8
:100DA0008093810080918000816080938000809199
:100DB000B10084608093B1008091B0008160809325
:100DC000B00080917A00846080937A0080917A00EC
:100DD000826080937A0080917A00816080937A00AB
:100DE00080917A00806880937A001092C100E0912F
:100DF0004D01F0914E0182E08083E0914D01F09130
:100E00004E011082E0914901F0914A011082E09177
:100E10004B01F0914C0180E1808310925501E091EB
:100E20005101F091520186E08083E0914F01F091F1
:100E30005001808180618083E0914F01F0915001E9
:100E4000808188608083E0914F01F0915001808122
:100E500080688083E0914F01F091500180818F7D07
:100E600080838DE391E00E94F3030E94CD051092F0
:100E70002701109226010E9415051092250110925B
:100E8000240110922301109222011092210110924C
:100E9000200110921F0110921E018FEF9FEF90937F
:100EA0001B0180931A0181E090E090931D018093D3
:100EB0001C0188E490E0909317018093160180E074
:100EC000682E80E0782E94E6E92EF12C20EBC22EDD
:100ED00024E0D22E38E4A32EB12C4FE0842E912CA6
:100EE0008DE391E00E943B03019621F18DE391E0B7
:100EF0000E942703EC01682F8DE391E00E948B0391
:100F0000CA30D105B9F080913201909133018C0142
:100F1000085D1E4FC033D105BCF00196909333019C
:100F200080933201F801C083099721F410923301B4
:100F3000109232016114710499F20E9455038823C2
:100F400079F20E940000CCCF8DE391E00E94F30380
:100F5000F801108210923301109232012091280181
:100F6000211107C00E94CD05109227011092260181
:100F700065C08091260190912701009709F066C015
:100F800088E291E00E94E708FC013197ED30F1051D
:100F900008F057C0E253F84F0C946B09F907DB07D0
:100FA000FC07010806080B08100815081A081A089B
:100FB0001A081A081A08D0922501C0922401B0928A
:100FC0002301A0922201109221011092200110927F
:100FD0001F0110921E0190921B0180921A010E9423
:100FE000E10510921D0110921C018EE695E00E9411
:100FF00069040E94A504B8CF0E94EF058EE595E034
:10100000F6CF0E94EF0587E495E0F1CF0E94EF054F
:1010100080E395E0ECCF0E94EF0585E195E0E7CF16
:101020000E94EF0588EF94E0E2CF0E94EF058FED7C
:1010300094E0DDCF90932701809326010E9415054F
:1010400079CF8AEC94E00E946904F8CF8B30910547
:1010500009F453C0A4F48930910589F10A9709F085
:1010600069CF88E291E00E94050969377105F0F1C6
:101070000E9461040E94610480E594E02DC08D30DF
:10108000910509F469C00CF450C08436910509F04B
:1010900051CF2F7D82E090E0253511F481E090E082
:1010A00020911801309119013093210120932001E2
:1010B00090931F0180931E0185EA93E098CF88E208
:1010C00091E00E9405096B3F710548F00E946104A0
:1010D0000E94610489E994E00E94690445CF7093FD
:1010E00023016093220181E894E081CF709317017E
:1010F000609316018CE394E07ACF88E291E00E943D
:1011000005099B01245F31402137374138F00E94A7
:1011100061040E9461048BE094E0DECF70932501AE
:10112000609324018AEF93E062CF88E291E00E940D
:10113000050970931901609318016536710538F03F
:101140000E9461040E94610489EC93E0C5CFF09293
:101150002701E092260172CF2F7D81E090E02F34AD
:1011600011F090E080E090931D0180931C0187E8CE
:1011700093E03DCFEDE3F1E01382128288EE93E03D
:10118000A0E0B0E084839583A683B78384E091E0F8
:101190009183808385EC90E09587848784EC90E050
:1011A0009787868780EC90E0918B808B81EC90E034
:1011B000938B828B82EC90E0958B848B86EC90E015
:1011C000978B868B118E128E138E148E0895FC01D0
:1011D00088279927E89421912032E9F3293010F0EB
:1011E0002E30C8F32B3241F02D3239F4689404C00C
:1011F0000E944109820F911D219120532A30C0F392
:101200001EF4909581959F4F08951F93FC01992797
:101210008827BC01E89411911032E9F3193010F0DD
:101220001E30C8F31B3251F01D3249F4689406C0D9
:101230000E942C09610F711D811D911D1191105388
:101240001A30B0F33EF490958095709561957F4F7C
:101250008F4F9F4F1F910895592F482F372F262FBB
:10126000660F771F881F991F660F771F881F991FAA
:10127000620F731F841F951F660F771F881F991FAA
:1012800008957AE0979F902D879F802D910D1124CE
:101290000895A1E21A2EAA1BBB1BFD010DC0AA1FB7
:1012A000BB1FEE1FFF1FA217B307E407F50720F0CF
:1012B000A21BB30BE40BF50B661F771F881F991F4A
:1012C0001A9469F760957095809590959B01AC0193
:1012D000BD01CF010895EE0FFF1F0590F491E02DA1
:0612E0000994F894FFCF11
:1012E600000000008B03EB021803F30349032703F6
:0612F6003B030D0A00009D
:00000001FF
