:100000000C9448010C9470010C9470010C947001D4
:100010000C9470010C9470010C9470010C9470019C
:100020000C9470010C9470010C9470010C9470018C
:100030000C9470010C9470010C9470010C9470017C
:100040000C9489030C9470010C94F9030C94D30361
:100050000C9470010C9470010C9470010C9470015C
:100060000C9470010C947001456E746572206120CF
:100070006E756D62657220616E6420707265737357
:1000800020456E7465723A002020392E2053657425
:1000900020636F6F6C616E742074656D70004375C2
:1000A00073746F6D697A653A002020382E2048619C
:1000B000726420616363656C65726174696F6E0060
:1000C0002020372E204D6F64657261746520616356
:1000D00063656C65726174696F6E002020362E2036
:1000E00047656E746C6520616363656C65726174ED
:1000F000696F6E002020352E20437275697365206C
:1001000037304D5048002020342E204372756973DB
:10011000652033304D5048002020332E20486F7426
:100120002069646C65002020322E20436F6C6420AF
:1001300069646C6500507265736574733A002020C1
:10014000312E2053686F772063757272656E74204C
:1001500073657474696E6773004D41494E204D4557
:100160004E5500293A002D00456E746572206E656B
:100170007720636F6F6C616E742074656D70206999
:100180006E206465672046202800456E67696E65AD
:10019000206973206F66660028432920616E6479A8
:1001A000406272697469736869646561732E636F14
:1001B0006D20323032310056657273696F6E2000E7
:1001C0004D6572636564657320563820444A6574D2
:1001D000204543552054657374657200436F6F6CFE
:1001E000616E742074656D706572617475726520DE
:1001F000736574004552524F523A20456E746572D1
:1002000065642076616C7565206973206F75747301
:10021000696465206F6620616C6C6F77656420721D
:10022000616E6765004552524F523A20496E7661C1
:100230006C696420696E707574002C206373763D60
:10024000002C207468726F74746C656469723D0070
:100250002C20656E6773706565643D002C207468A2
:10026000726F74746C65706F733D002C20636F6FD8
:100270006C616E7474656D703D0053657474696E65
:1002800067733A2061697274656D703D0000BB054B
:1002900011241FBECFEFD8E0DEBFCDBF11E0A0E03C
:1002A000B1E0E8EEFCE002C005900D92A232B10789
:1002B000D9F721E0A2E2B1E001C01D92A43EB2074D
:1002C000E1F711E0C8E4D1E004C02197FE010E94EB
:1002D0006C06C734D107C9F70E942B040C94720630
:1002E0000C940000AF92BF92CF92DF92EF92FF92F8
:1002F0000F931F93CF93DF936C017B018B01040F4E
:10030000151FEB015E01AE18BF08C017D10759F0E9
:100310006991D601ED91FC910190F081E02DC6012B
:100320000995892B79F7C501DF91CF911F910F9125
:10033000FF90EF90DF90CF90BF90AF900895FC01B9
:10034000538D448D252F30E0842F90E0821B930B3A
:10035000541710F0CF96089501970895FC01918DE0
:10036000828D981761F0A28DAE0FBF2FB11D5D96E3
:100370008C91928D9F5F9F73928F90E008958FEF85
:100380009FEF0895FC01918D828D981731F0828D39
:10039000E80FF11D858D90E008958FEF9FEF089590
:1003A000FC01918D228D892F90E0805C9F4F821BF4
:1003B00091098F739927089587E491E00E94D001F5
:1003C00021E0892B09F420E0822F089580E090E05D
:1003D000892B29F00E94DC0181110C940000089502
:1003E000FC01A48DA80FB92FB11DA35ABF4F2C91AA
:1003F000848D90E001968F739927848FA689B789A1
:100400002C93A089B1898C91837080648C93938D97
:10041000848D981306C00288F389E02D80818F7D3A
:1004200080830895EF92FF920F931F93CF93DF93F2
:10043000EC0181E0888F9B8D8C8D98131AC0E88920
:10044000F989808185FF15C09FB7F894EE89FF89EF
:100450006083E889F98980818370806480839FBF8D
:1004600081E090E0DF91CF911F910F91FF90EF908D
:100470000895F62E0B8D10E00F5F1F4F0F7311279D
:10048000E02E8C8D8E110CC00FB607FCFACFE889D8
:10049000F989808185FFF5CFCE010E94F001F1CF6F
:1004A000EB8DEC0FFD2FF11DE35AFF4FF0829FB74C
:1004B000F8940B8FEA89FB8980818062CFCF0F93FC
:1004C0001F93CF93DF938C01D0E0C0E0F801EC0FD5
:1004D000FD1F6491662341F087E491E00E941202BF
:1004E000892B11F02196F2CFCE01DF91CF911F9190
:1004F0000F910895CF93DF93EC01888D8823B9F095
:10050000AA89BB89E889F9898C9185FD03C080811E
:1005100086FD0DC00FB607FCF7CF8C9185FFF2CF9B
:10052000808185FFEDCFCE010E94F001E9CFDF9100
:10053000CF910895FC0101900020E9F73197AF01B8
:10054000481B590BBC0187E491E00C94720182E1D5
:1005500091E00C949A02CF93DF930E945F02EC012A
:100560000E94A7028C0F9D1FDF91CF9108958F925B
:100570009F92AF92BF92CF92DF92EF92FF920F9332
:100580001F93CF93DF93CDB7DEB7A1970FB6F89443
:10059000DEBF0FBECDBF6C01990FEE08FF08F7FE5E
:1005A00041C06DE287E491E00E9412028C01222793
:1005B0003327A9012C193D094E095F0919A2CE0163
:1005C00081967C019AE0892E912CA12CB12CCA0134
:1005D000B901A50194010E944A06605DF70162938A
:1005E0007F01211531054105510589F790E080E033
:1005F000309719F0CF010E949A02800F911FA196A7
:100600000FB6F894DEBF0FBECDBFDF91CF911F9123
:100610000F91FF90EF90DF90CF90BF90AF909F90A1
:100620008F900895A701960119A28E010F5D1F4FAB
:100630008AE0C82ED12CE12CF12CCA01B901A70106
:1006400096010E944A06605DF80162938F012115B0
:1006500031054105510589F790E080E0309779F246
:10066000CF010E949A02CBCF80913001909131014D
:10067000009719F00997C9F108950E94A70289E52A
:1006800091E00E94AB028EE391E00E94AB0285E311
:1006900091E00E94AB0286E291E00E94AB0288E109
:1006A00091E00E94AB0286E091E00E94AB0284EFF1
:1006B00090E00E94AB028BED90E00E94AB0280ECD8
:1006C00090E00E94AB0289EA90E00E94AB028EE9C2
:1006D00090E00E94AB0288E890E00E94AB020E948A
:1006E000A70288E690E00C94AB0288E691E00E94B5
:1006F0005F0290E080E00E94B70286E691E00E94EF
:100700005F028AEF90E00E94B70283E691E00C94CA
:100710005F021F920F920FB60F9211242F933F93F7
:100720008F939F93AF93BF93809143019091440126
:10073000A0914501B09146013091420123E0230F81
:100740002D3758F50196A11DB11D209342018093CC
:10075000430190934401A0934501B09346018091D9
:100760003E0190913F01A0914001B091410101965D
:10077000A11DB11D80933E0190933F01A0934001C4
:10078000B0934101BF91AF919F918F913F912F9174
:100790000F900FBE0F901F90189526E8230F02961A
:1007A000A11DB11DD2CF1F920F920FB60F9211242F
:1007B0002F933F934F935F936F937F938F939F9369
:1007C000AF93BF93EF93FF9387E491E00E94F00112
:1007D000FF91EF91BF91AF919F918F917F916F9119
:1007E0005F914F913F912F910F900FBE0F901F90EF
:1007F00018951F920F920FB60F9211242F938F937B
:100800009F93EF93FF93E0915701F09158018081FE
:10081000E0915D01F0915E0182FD1BC090818091AD
:1008200060018F5F8F7320916101821741F0E09129
:100830006001F0E0E95BFE4F958F80936001FF91CE
:10084000EF919F918F912F910F900FBE0F901F905E
:1008500018958081F4CF789484B5826084BD84B586
:10086000816084BD85B5826085BD85B5816085BDAB
:1008700080916E00816080936E0010928100809163
:1008800081008260809381008091810081608093EB
:100890008100809180008160809380008091B10010
:1008A00084608093B1008091B00081608093B0003B
:1008B00080917A00846080937A0080917A008260CF
:1008C00080937A0080917A00816080937A00809191
:1008D0007A00806880937A001092C100E0915701FD
:1008E000F091580182E08083E0915701F091580126
:1008F0001082E0915301F09154011082E091550172
:10090000F091560180E1808310925F01E0915B01DC
:10091000F0915C0186E08083E0915901F0915A01E9
:10092000808180618083E0915901F0915A0180813A
:1009300088608083E0915901F0915A01808180683C
:100940008083E0915901F0915A0180818F7D8083ED
:1009500087E491E00E947A0280EC91E00E94AB0271
:1009600087EB91E00E945F0281E090E00E94B70275
:100970000E94A70288E991E00E94AB020E94A702B0
:1009800010922F0110922E0110922D0110922C0125
:10099000109229011092280110922B0110922A0125
:1009A0008FEF9FEF909327018093260181E090E0E5
:1009B000909325018093240188E490E09093230193
:1009C000809322018AE891E00E94AB0210923101EB
:1009D000109230010E94340380E0682E80E0782E6F
:1009E00087E491E00E94C201019621F187E491E041
:1009F0000E94AE01EC01682F87E491E00E94120290
:100A0000CA30D105B9F080913C0190913D018C0133
:100A10000E5C1E4FC033D105BCF0019690933D0192
:100A200080933C01F801C083099721F410923D01A5
:100A300010923C016114710499F20E94DC01882338
:100A400079F20E940000CCCF87E491E00E947A0204
:100A5000F801108210923D0110923C018091320108
:100A6000811105C0109231011092300167C0809150
:100A7000300190913101009709F063C082E391E069
:100A80000E94E8058130910549F08930910509F40B
:100A900051C085E292E00E94AB0250C00E94A702C2
:100AA00000912E0110912F01C0902C01D0902D01AA
:100AB000E0902A01F0902B0180902801909029016C
:100AC000C0912401D0912501A0902201B090230172
:100AD0008AE792E00E945F02C5010E94B7028BE69E
:100AE00092E00E945F02C6010E94B7028CE592E08C
:100AF0000E945F02C7010E94B70280E592E00E9457
:100B00005F02C8010E94B70281E492E00E945F0286
:100B1000C4010E94B7028AE392E00E945F0285E16D
:100B200091E0219711F48CE191E00E949A020E94D9
:100B3000A70298CF90933101809330010E94340333
:100B400079CF099709F076CF82E391E00E940606FB
:100B50006B3F710548F00E94A7020E94A70284EF34
:100B600091E00E94AB027ECF70932D0160932C0127
:100B70008CED91E0F6CFE7E4F1E01382128288EE8B
:100B800093E0A0E0B0E084839583A683B78384E0FC
:100B900091E09183808385EC90E09587848784EC55
:100BA00090E09787868780EC90E0918B808B81EC3A
:100BB00090E0938B828B82EC90E0958B848B86EC1B
:100BC00090E0978B868B118E128E138E148E089563
:100BD000FC0188279927E89421912032E9F32930F4
:100BE00010F02E30C8F32B3241F02D3239F46894D6
:100BF00004C00E944206820F911D219120532A3089
:100C0000C0F31EF4909581959F4F08951F93FC01AA
:100C100099278827BC01E89411911032E9F3193023
:100C200010F01E30C8F31B3251F01D3249F46894A5
:100C300006C00E942D06610F711D811D911D11912D
:100C400010531A30B0F33EF49095809570956195ED
:100C50007F4F8F4F9F4F1F910895592F482F372F48
:100C6000262F660F771F881F991F660F771F881F13
:100C7000991F620F731F841F951F660F771F881FB0
:100C8000991F08957AE0979F902D879F802D910D51
:100C900011240895A1E21A2EAA1BBB1BFD010DC051
:100CA000AA1FBB1FEE1FFF1FA217B307E407F5071C
:100CB00020F0A21BB30BE40BF50B661F771F881FF8
:100CC000991F1A9469F760957095809590959B018E
:100CD000AC01BD01CF010895EE0FFF1F0590F49107
:080CE000E02D0994F894FFCF08
:100CE80000000000120272019F017A02D001AE01D9
:100CF800C2010D0A00636C6F736564006F70656EE6
:020D08000000E9
:00000001FF
