:100000000C94AB020C94D3020C94D3020C94D30244
:100010000C94D3020C94D3020C94D3020C94D3020C
:100020000C94D3020C94D3020C94D3020C94D302FC
:100030000C94D3020C94D3020C94D3020C94D302EC
:100040000C9406060C94D3020C9476060C9450067D
:100050000C94D3020C94D3020C94D3020C94D302CC
:100060000C94D3020C94D30220494E4847004143DC
:1000700054494F4E3A204D414E55414C4C5420531B
:10008000455420505245535355524520544F20005B
:1000900028432920616E64794062726974697368CB
:1000A00069646561732E636F6D20323032310056A2
:1000B000657273696F6E20004D6572636564657368
:1000C00020563820444A65742045435520546573B2
:1000D00074657200456E746572206E657720746871
:1000E000726F74746C6520646972656374696F6E95
:1000F000202855206F722044293A00293A002D000B
:10010000456E746572206E6577207468726F7474C2
:100110006C6520706F736974696F6E202800293ACE
:10012000002D00456E746572206E657720656E67E0
:10013000696E6520737065656420696E2052504D4C
:10014000202800293A002D00456E746572206E65E6
:1001500077206169722074656D7020696E20646516
:10016000672046202800293A002D00456E746572EC
:10017000206E657720636F6F6C616E742074656D9F
:100180007020696E206465672046202800456E74E3
:1001900065722061206E756D62657220616E6420EB
:1001A000707265737320456E7465723A0020203159
:1001B000342E20536574207468726F74746C6500FB
:1001C000202031332E2053657420656E67696E657B
:1001D00020737065656400202031322E20536574D1
:1001E000206169722074656D7000202031312E20ED
:1001F00053657420636F6F6C616E742074656D70ED
:1002000000437573746F6D697A653A002020313050
:100210002E204861726420616363656C657261744D
:10022000696F6E00202020392E204D6F6465726149
:10023000746520616363656C65726174696F6E00DB
:10024000202020382E2047656E746C652061636322
:10025000656C65726174696F6E00202020372E20F6
:100260004372756973652037304D50480020202057
:10027000362E204372756973652033304D50480027
:10028000202020352E20486F742069646C65002082
:100290002020342E20436F6C642069646C6500203C
:1002A0002020332E204372616E6B696E6700202020
:1002B00020322E204F666600507265736574733A63
:1002C00000202020312E2053686F772063757272D2
:1002D000656E742073657474696E6773004D41496F
:1002E0004E204D454E55006E6F00796573002C20F1
:1002F0006372616E6B696E673D002C20656E67737B
:10030000706565643D00646563656C006163636589
:100310006C006E6F6E65002C207468726F74746C64
:10032000656469723D002C207468726F74746C652A
:10033000706F733D002C20636F6F6C616E74746519
:100340006D703D0053657474696E67733A2061691E
:100350007274656D703D005468726F74746C6520C2
:10036000706F736974696F6E20616E642064697266
:10037000656374696F6E20736574004552524F5205
:100380003A20456E74657265642076616C756520EF
:100390006973206F757473696465206F6620616C82
:1003A0006C6F7765642072616E676500456E676982
:1003B0006E652073706565642073657400455252E4
:1003C0004F523A20456E74657265642076616C7593
:1003D00065206973206F757473696465206F66208A
:1003E000616C6C6F7765642072616E67650041694E
:1003F000722074656D7065726174757265207365C5
:1004000074004552524F523A20456E7465726564CD
:100410002076616C7565206973206F7574736964EB
:1004200065206F6620616C6C6F7765642072616E09
:10043000676500436F6F6C616E742074656D7065E5
:1004400072617475726520736574004552524F5223
:100450003A20456E74657265642076616C7565201E
:100460006973206F757473696465206F6620616CB1
:100470006C6F7765642072616E6765004552524FFC
:10048000523A20496E76616C696420696E707574A9
:100490000053657420746F20686172642061636327
:1004A000656C65726174696F6E0053657420746F5A
:1004B000206D6F64657261746520616363656C654E
:1004C000726174696F6E0053657420746F20676584
:1004D0006E746C6520616363656C65726174696FCD
:1004E0006E0053657420746F2063727569736520A4
:1004F00061742037304D50480053657420746F206C
:100500006372756973652061742033304D50480003
:1005100053657420746F20686F742069646C650083
:1005200053657420746F20636F6C642069646C651C
:100530000053657420746F206372616E6B696E671F
:1005400000456E67696E65207475726E6564206F14
:1005500066660000B20811241FBECFEFD8E0DEBFF0
:10056000CDBF11E0A0E0B1E0E6EDF2E102C0059000
:100570000D92A631B107D9F721E0A6E1B1E001C0A3
:100580001D92A93DB207E1F712E0CBEAD2E004C028
:100590002197FE010E946309CA3AD107C9F70E9458
:1005A000A8060C9469090C940000AF92BF92CF92F8
:1005B000DF92EF92FF920F931F93CF93DF936C0123
:1005C0007B018B01040F151FEB015E01AE18BF0804
:1005D000C017D10759F06991D601ED91FC910190B6
:1005E000F081E02DC6010995892B79F7C501DF91CE
:1005F000CF911F910F91FF90EF90DF90CF90BF9020
:10060000AF900895FC01538D448D252F30E0842F49
:1006100090E0821B930B541710F0CF96089501972A
:100620000895FC01918D828D981761F0A28DAE0F17
:10063000BF2FB11D5D968C91928D9F5F9F73928F9E
:1006400090E008958FEF9FEF0895FC01918D828DCA
:10065000981731F0828DE80FF11D858D90E0089597
:100660008FEF9FEF0895FC01918D228D892F90E0EF
:10067000805C9F4F821B91098F73992708958CE3AB
:1006800091E00E94330321E0892B09F420E0822FBE
:10069000089580E090E0892B29F00E943F038111AA
:1006A0000C9400000895FC01A48DA80FB92FB11D72
:1006B000A35ABF4F2C91848D90E001968F73992798
:1006C000848FA689B7892C93A089B1898C91837076
:1006D00080648C93938D848D981306C00288F3896F
:1006E000E02D80818F7D80830895EF92FF920F939C
:1006F0001F93CF93DF93EC0181E0888F9B8D8C8DCE
:1007000098131AC0E889F989808185FF15C09FB7C1
:10071000F894EE89FF896083E889F9898081837084
:10072000806480839FBF81E090E0DF91CF911F9133
:100730000F91FF90EF900895F62E0B8D10E00F5F54
:100740001F4F0F731127E02E8C8D8E110CC00FB62A
:1007500007FCFACFE889F989808185FFF5CFCE01C2
:100760000E945303F1CFEB8DEC0FFD2FF11DE35AE7
:10077000FF4FF0829FB7F8940B8FEA89FB89808145
:100780008062CFCF0F931F93CF93DF938C01D0E084
:10079000C0E0F801EC0FFD1F6491662341F08CE38B
:1007A00091E00E947503892B11F02196F2CFCE01C2
:1007B000DF91CF911F910F910895CF93DF93EC01BB
:1007C000888D8823B9F0AA89BB89E889F9898C9139
:1007D00085FD03C0808186FD0DC00FB607FCF7CFF5
:1007E0008C9185FFF2CF808185FFEDCFCE010E94F5
:1007F0005303E9CFDF91CF9108958F929F92AF92EB
:10080000BF920F931F93CF93DF93CDB7DEB7A1971E
:100810000FB6F894DEBF0FBECDBF19A2423008F468
:100820004AE08E010F5D1F4F842E912CB12CA12C1C
:10083000A50194010E944109E62FB901CA01EA30DD
:1008400044F5E05DD801EE938D01232B242B252B5D
:1008500079F790E080E0109769F0FD0101900020A9
:10086000E9F73197AF014A1B5B0BBD018CE391E0C7
:100870000E94D502A1960FB6F894DEBF0FBECDBF81
:10088000DF91CF911F910F91BF90AF909F908F906C
:100890000895E95CD7CF42E050E062E171E08CE37B
:1008A00091E00C94D502CF93DF930E94C203EC0138
:1008B0000E944B048C0F9D1FDF91CF910895CF9222
:1008C000DF92EF92FF92CF93DF936C01990FEE08C6
:1008D000FF08F7FE19C06DE28CE391E00E947503FA
:1008E000EC0166277727CB016C197D098E099F09DA
:1008F0004AE00E94FD038C0F9D1FDF91CF91FF9076
:10090000EF90DF90CF9008954AE0C701B601DF91E4
:10091000CF91FF90EF90DF90CF900C94FD038F92DA
:100920009F92AF92BF92CF92DF92EF92FF921F936E
:10093000CF93DF930E944B04E0902301F0902401B9
:10094000A0902101B0902201C0901F01D090200101
:10095000C0911D01D0911E01809016019090170149
:1009600010911C0184E493E00E94C203C4010E9420
:100970005F0485E393E00E94C203C5010E945F0407
:1009800086E293E00E94C203C6010E945F0487E1F1
:1009900093E00E94C2038CE093E0C130D10531F0B6
:1009A00082E193E0229711F486E093E00E94C20373
:1009B0008AEF92E00E94C203C7010E945F048EEE9C
:1009C00092E00E94C20387EE92E0112311F08AEEBA
:1009D00092E0DF91CF911F91FF90EF90DF90CF9049
:1009E000BF90AF909F908F900C94530480912501FD
:1009F000909126018C30910509F472C034F400976F
:100A000079F00B9709F458C008958E30910509F4D8
:100A10008DC00CF478C08436910509F49AC008950D
:100A20000E944B048DED92E00E94530481EC92E011
:100A30000E94530488EB92E00E9453048EEA92E0F5
:100A40000E9453048FE992E00E9453048FE892E0E1
:100A50000E94530480E892E00E9453048DE692E0E5
:100A60000E9453048AE592E00E94530480E492E0DD
:100A70000E94530484E292E00E9453048CE092E0CE
:100A80000E94530481E092E00E9453048AEE91E0B8
:100A90000E94530487ED91E00E94530480EC91E0A2
:100AA0000E9453048DEA91E00E9453040E944B047B
:100AB0008DE891E00C9453048BE691E00E94C20310
:100AC00090E080E00E945F0489E691E00E94C2030A
:100AD0008AEF90E00E945F0486E691E00C94C203E6
:100AE00088E491E00E94C20390E080E00E945F04ED
:100AF00086E491E00E94C20388E790E00E945F04D0
:100B000083E491E0EBCF83E291E00E94C20384EFA3
:100B100091E00E945F0481E291E00E94C20384E6BA
:100B200099E10E945F048EE191E0D8CF80E091E0EE
:100B30000E94C20390E080E00E945F048EEF90E08C
:100B40000E94C20384E690E00E945F048BEF90E075
:100B5000C5CF84ED90E0C2CF88EB90E00E945304B3
:100B60008FEA90E00E94C20381E090E00E945F045F
:100B70000E944B0480E990E00E9453040C944B04C3
:100B80008EE690E00E94C20380911A0190911B01B1
:100B90000E945F0488E690E00C9453048CEB92E092
:100BA000909324018093230189EB90E0909322019C
:100BB000809321011092200110921F0110921E01BA
:100BC00010921D018FE090E090931B0180931A0119
:100BD0000E94C00510921C010895109224011092E9
:100BE00023011092220110922101109220011092F3
:100BF0001F0110921E0110921D018FEF9FEF909325
:100C00001B0180931A0110921C0108951F920F92EC
:100C10000FB60F9211242F933F938F939F93AF930F
:100C2000BF938091380190913901A0913A01B09120
:100C30003B013091370123E0230F2D3758F5019602
:100C4000A11DB11D20933701809338019093390184
:100C5000A0933A01B0933B0180913301909134010C
:100C6000A0913501B09136010196A11DB11D80936F
:100C7000330190933401A0933501B0933601BF91B5
:100C8000AF919F918F913F912F910F900FBE0F9039
:100C90001F90189526E8230F0296A11DB11DD2CFF3
:100CA0001F920F920FB60F9211242F933F934F93E1
:100CB0005F936F937F938F939F93AF93BF93EF93C4
:100CC000FF938CE391E00E945303FF91EF91BF915A
:100CD000AF919F918F917F916F915F914F913F91D4
:100CE0002F910F900FBE0F901F9018951F920F928B
:100CF0000FB60F9211242F938F939F93EF93FF932F
:100D0000E0914C01F0914D018081E0915201F09110
:100D1000530182FD1BC09081809155018F5F8F73BD
:100D200020915601821741F0E0915501F0E0E45C1A
:100D3000FE4F958F80935501FF91EF919F918F9179
:100D40002F910F900FBE0F901F9018958081F4CFB8
:100D5000789484B5826084BD84B5816084BD85B596
:100D6000826085BD85B5816085BD80916E008160A2
:100D700080936E0010928100809181008260809348
:100D8000810080918100816080938100809180004A
:100D90008160809380008091B10084608093B10075
:100DA0008091B00081608093B00080917A0084606F
:100DB00080937A0080917A00826080937A0080919B
:100DC0007A00816080937A0080917A0080688093B5
:100DD0007A001092C100E0914C01F0914D0182E047
:100DE0008083E0914C01F0914D011082E091480127
:100DF000F09149011082E0914A01F0914B0180E1AC
:100E0000808310925401E0915001F091510186E0ED
:100E10008083E0914E01F0914F0180818061808359
:100E2000E0914E01F0914F01808188608083E091D4
:100E30004E01F0914F01808180688083E0914E01E6
:100E4000F0914F0180818F7D80838CE391E00E943F
:100E5000DD030E94AC0510922601109225010E942C
:100E6000F6040E94ED0588E490E0909317018093CA
:100E7000160180E0482E80E0582E94E6692E712CF1
:100E800020EBE22E24E0F22E38E4C32ED12C4FE0EA
:100E9000A42EB12C88248A94982C332433948CE388
:100EA00091E00E942503019619F18CE391E00E94E4
:100EB00011038C01682F8CE391E00E9475030A30C6
:100EC0001105B1F0C0913101D0913201003311050B
:100ED000CCF0CE0101969093320180933101C95D2F
:100EE000DE4F0883099721F41092320110923101EC
:100EF00041145104A1F20E943F03882371F20E9421
:100F00000000CBCF0830110549F41C161D0684F7EC
:100F10002197D0933201C0933101EACF8CE391E065
:100F20000E94DD03C95DDE4F1882109232011092DB
:100F3000310120912701211107C00E94AC051092B8
:100F400026011092250182C08091250190912601F1
:100F5000009709F083C087E291E00E94DF08FC015E
:100F60003197EE30F10508F074C0E754F84F0C9457
:100F70006309CD07C707D007E907040809080E0869
:100F8000130818081D0822082208220822080E94B7
:100F9000ED0581E495E00E9453040E948F04CFCFB9
:100FA000109224011092230110922201109221012B
:100FB0001092200110921F0110921E0110921D012B
:100FC00090921B0180921A0130921C0181E395E0FE
:100FD000E2CFF0922401E0922301D0922201C0924C
:100FE00021011092200110921F0110921E011092F7
:100FF0001D01B0921B01A0921A010E94C00510921F
:101000001C0180E295E0C7CF0E94CE0580E195E00B
:10101000C2CF0E94CE0589EF94E0BDCF0E94CE05DD
:1010200082EE94E0B8CF0E94CE0587EC94E0B3CF77
:101030000E94CE058AEA94E0AECF0E94CE0581E9F7
:1010400094E0A9CF90932601809325010E94F60495
:101050004FCF8CE794E00E945304F8CF8D30910578
:1010600009F451C0A4F48B30910579F10C9709F083
:101070003FCF87E291E00E94FD0869377105E0F1FA
:101080000E944B040E944B0482E094E02BC08E30FF
:10109000910509F450C08436910509F029CF2F7DC0
:1010A00082E090E0253511F481E090E02091180174
:1010B000309119013093200120931F0190931E015C
:1010C00080931D0187E593E066CF87E291E00E945F
:1010D000FD086B3F710548F00E944B040E944B04D1
:1010E0008BE494E00E9453042ACF70932201609312
:1010F000210183E394E04FCF7093170160931601B1
:101100008EEE93E048CF87E291E00E94FD089B01BC
:10111000245F31402137374138F00E944B040E9450
:101120004B048DEB93E0DECF709324016093230199
:101130008CEA93E030CF87E291E00E94FD08709343
:101140001901609318016536710538F00E944B044F
:101150000E944B048BE793E0C5CF7092260160920A
:10116000250174CFECE3F1E01382128288EE93E064
:10117000A0E0B0E084839583A683B78384E091E008
:101180009183808385EC90E09587848784EC90E060
:101190009787868780EC90E0918B808B81EC90E044
:1011A000938B828B82EC90E0958B848B86EC90E025
:1011B000978B868B118E128E138E148E0895FC01E0
:1011C00088279927E89421912032E9F3293010F0FB
:1011D0002E30C8F32B3241F02D3239F4689404C01C
:1011E0000E943909820F911D219120532A30C0F3AA
:1011F0001EF4909581959F4F08951F93FC019927A8
:101200008827BC01E89411911032E9F3193010F0ED
:101210001E30C8F31B3251F01D3249F4689406C0E9
:101220000E942409610F711D811D911D11911053A0
:101230001A30B0F33EF490958095709561957F4F8C
:101240008F4F9F4F1F910895592F482F372F262FCB
:10125000660F771F881F991F660F771F881F991FBA
:10126000620F731F841F951F660F771F881F991FBA
:1012700008957AE0979F902D879F802D910D1124DE
:101280000895A1E21A2EAA1BBB1BFD010DC0AA1FC7
:10129000BB1FEE1FFF1FA217B307E407F50720F0DF
:1012A000A21BB30BE40BF50B661F771F881F991F5A
:1012B0001A9469F760957095809590959B01AC01A3
:1012C000BD01CF010895EE0FFF1F0590F491E02DB1
:0612D0000994F894FFCF21
:1012D600000000007503D5020203DD03330311038A
:0612E60025030D0A0000C3
:00000001FF
