:100000000C947D030C94A5030C94A5030C94A503F8
:100010000C94A5030C94A5030C94A5030C94A503C0
:100020000C94A5030C94A5030C94A5030C94A503B0
:100030000C94A5030C94820C0C94A5030C94A503BA
:100040000C94E00B0C94A5030C94500C0C942A0C0B
:100050000C94A5030C94A5030C94A5030C94A50380
:100060000C94A5030C94A50307634236B79BD8A74D
:100070001A39685618AEBAAB558C1D3CB7CC5763CD
:10008000BD6DEDFD753EF6177231BF000000803F7B
:1000900008000000BE922449123EABAAAA2ABECD97
:1000A000CCCC4C3E00000080BEABAAAAAA3E000009
:1000B0000000BF000000803F000000000008417801
:1000C000D3BB4387D1133D190E3CC3BD4282AD2B38
:1000D0003E68EC8276BED98FE1A93E4C80EFFFBE30
:1000E00001C4FF7F3F0000000000414354494F4ED0
:1000F0003A2052454C4541534520414C4C205052EA
:100100004553535552450020494E484700414354FA
:10011000494F4E3A204D414E55414C4C5920534584
:100120005420505245535355524520544F200028D7
:10013000432920616E6479406272697469736869E9
:10014000646561732E636F6D203230323100566505
:100150007273696F6E20004D65726365646573200C
:10016000563820444A6574204543552054657374BD
:10017000657200456E746572206E657720746872D2
:100180006F74746C6520646972656374696F6E2046
:100190002855206F722044293A00293A002D004545
:1001A0006E746572206E65772070756C7365206162
:1001B0006E676C6520696E20646567726565732083
:1001C0002800293A002D00456E746572206E65770F
:1001D000207468726F74746C6520706F73697469D1
:1001E0006F6E202800293A002D00456E746572203C
:1001F0006E657720656E67696E65207370656564EE
:1002000020696E2052504D202800293A002D0045CB
:100210006E746572206E6577206169722074656DF9
:100220007020696E206465672046202800293A0006
:100230002D00456E746572206E657720636F6F6C5C
:10024000616E742074656D7020696E20646567202E
:1002500046202800456E7465722061206E756D62BF
:10026000657220616E6420707265737320456E74D0
:1002700065723A00202031352E2053657420707548
:100280006C736520616E676C6520666F7220707597
:100290006C73652067656E657261746F72002020F3
:1002A00031342E20536574207468726F74746C65D9
:1002B00000202031332E2053657420656E67696EEF
:1002C0006520737065656400202031322E205365EF
:1002D00074206169722074656D7000202031312EA8
:1002E0002053657420636F6F6C616E742074656D4C
:1002F0007000437573746F6D697A653A0020203120
:10030000302E204861726420616363656C657261A0
:1003100074696F6E00202020392E204D6F64657245
:1003200061746520616363656C65726174696F6E89
:1003300000202020382E2047656E746C6520616394
:1003400063656C65726174696F6E00202020372EC2
:10035000204372756973652037304D504800202066
:1003600020362E204372756973652033304D504816
:1003700000202020352E20486F742069646C6500B1
:10038000202020342E20436F6C642069646C65004B
:10039000202020332E204372616E6B696E6700202F
:1003A0002020322E204F666600507265736574738C
:1003B0003A00202020312E2053686F772063757219
:1003C00072656E742073657474696E6773004D4155
:1003D000494E204D454E55006E6F00796573002CD7
:1003E0002070756C7365616E676C653D002C2063D1
:1003F00072616E6B696E673D002C20656E6773706D
:100400006565643D00646563656C00616363656C8C
:10041000006E6F6E65002C207468726F74746C656A
:100420006469723D002C207468726F74746C65701E
:100430006F733D002C20636F6F6C616E7474656D1B
:10044000703D0053657474696E67733A2061697218
:1004500074656D703D005468726F74746C652070C3
:100460006F736974696F6E20616E64206469726570
:100470006374696F6E20736574004552524F523A2F
:1004800020456E74657265642076616C75652069BF
:1004900073206F757473696465206F6620616C6C7E
:1004A0006F7765642072616E67650050756C736567
:1004B00020616E676C6520666F722070756C736565
:1004C0002067656E657261746F7220736574004594
:1004D00052524F523A20456E7465726564207661BF
:1004E0006C7565206973206F757473696465206F1E
:1004F0006620616C6C6F7765642072616E67650061
:10050000456E67696E6520737065656420736574F8
:10051000004552524F523A20456E74657265642010
:1005200076616C7565206973206F75747369646595
:10053000206F6620616C6C6F7765642072616E67F6
:1005400065004169722074656D70657261747572C1
:100550006520736574004552524F523A20456E74BF
:10056000657265642076616C7565206973206F75AE
:100570007473696465206F6620616C6C6F77656465
:100580002072616E676500436F6F6C616E742074DA
:10059000656D706572617475726520736574004570
:1005A00052524F523A20456E7465726564207661EE
:1005B0006C7565206973206F757473696465206F4D
:1005C0006620616C6C6F7765642072616E67650090
:1005D0004552524F523A20496E76616C69642069E7
:1005E0006E7075740053657420746F206861726456
:1005F00020616363656C65726174696F6E00536539
:100600007420746F206D6F6465726174652061631E
:1006100063656C65726174696F6E005365742074F4
:100620006F2067656E746C6520616363656C6572CD
:100630006174696F6E0053657420746F2063727506
:100640006973652061742037304D504800536574DC
:1006500020746F2063727569736520617420333074
:100660004D50480053657420746F20686F74206982
:10067000646C650053657420746F20636F6C642034
:1006800069646C650053657420746F206372616ED9
:100690006B696E6700456E67696E65207475726E72
:1006A0006564206F6666000000000800020100001B
:1006B0000304070000000000000000000000002507
:1006C0000028002B0000000000240027002A00045E
:1006D00004040404040404020202020202030303E9
:1006E00003030301020408102040800102040810E3
:1006F0002001020408102000CC0F11241FBECFEFF0
:10070000D8E0DEBFCDBF12E0A0E0B1E0E8EDFBE253
:1007100002C005900D92AE35B107D9F723E0AEE5E2
:10072000B2E001C01D92A135B207E1F713E0CDE7B9
:10073000D3E004C02197FE010E949110CC37D1076D
:10074000C9F70E94A90C0C94EA150C94000090E0E3
:10075000FC01ED51F94F24918153994FFC01849193
:10076000882399F090E0880F991FFC01EB53F94F13
:10077000A591B491FC01E554F94F859194918FB7FF
:10078000F894EC91E22BEC938FBF089590E0FC017C
:10079000E955F94F2491FC01ED51F94F3491FC01D9
:1007A000E153F94FE491EE23C9F0222339F02330CD
:1007B00001F1A8F4213019F1223029F1F0E0EE0F17
:1007C000FF1FE554F94FA591B4918FB7F894EC91C0
:1007D000611126C030953E233C938FBF089527308A
:1007E000A9F02830C9F0243049F7809180008F7D2E
:1007F00003C0809180008F7780938000DFCF84B525
:100800008F7784BDDBCF84B58F7DFBCF8091B00027
:100810008F778093B000D2CF8091B0008F7DF9CFD9
:100820003E2BDACF0F931F93CF93DF93EC01098117
:100830001A818D819E8101969E838D83019781F41B
:100840008CB58F7D8CBD8CB5837F8CBD8CB5836062
:100850008CBD8DB58E7F8DBD60E088810E94C60302
:1008600084E0000F111F8A95E1F702600EBD0000C1
:100870000DB407FEFDCF11E00EB401FC12C010E074
:100880008D819E8101979E838D83892B21F461E068
:1008900088810E94C603812FDF91CF911F910F9114
:1008A00008951EBC00000DB407FEFDCF8EB5E8CF45
:1008B0000895CF92DF92EF92FF92CF93DF9380E182
:1008C00080938100C0917E02D0917F02FE01EE0FE5
:1008D000FF1FEE0FFF1FE25AFD4F0190F081E02D48
:1008E000E830F10580F4E958FB4F0C9491107F0437
:1008F000D004D204D504D704DA04DC04DF0461E0B8
:1009000089E00E94C6032196C830D10509F459C078
:10091000D0937F02C0937E02E0917E02F0917F022D
:10092000EE0FFF1FEE0FFF1FE25AFD4F22813381B2
:10093000A0EAB0E00E9497106B017C0124E130E056
:1009400040E050E00E946F102115310581E048071A
:100950005105E0F581E080938C0230938B02209367
:100960008A0280918A0290918B02909387008093F3
:10097000860080918C0280618093810010928100BA
:10098000109285001092840080918C028061809387
:100990008100DF91CF91FF90EF90DF90CF9008958D
:1009A00060E0AECF61E085E0ACCF60E0FCCF61E01D
:1009B00086E0A7CF60E0FCCF61E083E0A2CF60E0FB
:1009C000FCCF10927F0210927E02A6CF82E080932D
:1009D0008C02C701B60120EA30E040E050E00E94FE
:1009E0006F10BBCFAF92BF92CF92DF92EF92FF9288
:1009F0000F931F93CF93DF936C017B018B01040F47
:100A0000151FEB015E01AE18BF08C017D10759F0E2
:100A10006991D601ED91FC910190F081E02DC60124
:100A20000995892B79F7C501DF91CF911F910F911E
:100A3000FF90EF90DF90CF90BF90AF900895FC01B2
:100A4000538D448D252F30E0842F90E0821B930B33
:100A5000541710F0CF96089501970895FC01918DD9
:100A6000828D981761F0A28DAE0FBF2FB11D5D96DC
:100A70008C91928D9F5F9F73928F90E008958FEF7E
:100A80009FEF0895FC01918D828D981731F0828D32
:100A9000E80FF11D858D90E008958FEF9FEF089589
:100AA000FC01918D228D892F90E0805C9F4F821BED
:100AB00091098F739927089580EB92E00E94500569
:100AC00021E0892B09F420E0822F089580E090E056
:100AD000892B29F00E945C0581110C940000089577
:100AE000FC01A48DA80FB92FB11DA35ABF4F2C91A3
:100AF000848D90E001968F739927848FA689B7899A
:100B00002C93A089B1898C91837080648C93938D90
:100B1000848D981306C00288F389E02D80818F7D33
:100B200080830895EF92FF920F931F93CF93DF93EB
:100B3000EC0181E0888F9B8D8C8D98131AC0E88919
:100B4000F989808185FF15C09FB7F894EE89FF89E8
:100B50006083E889F98980818370806480839FBF86
:100B600081E090E0DF91CF911F910F91FF90EF9086
:100B70000895F62E0B8D10E00F5F1F4F0F73112796
:100B8000E02E8C8D8E110CC00FB607FCFACFE889D1
:100B9000F989808185FFF5CFCE010E947005F1CFE4
:100BA000EB8DEC0FFD2FF11DE35AFF4FF0829FB745
:100BB000F8940B8FEA89FB8980818062CFCF0F93F5
:100BC0001F93CF93DF938C01D0E0C0E0F801EC0FCE
:100BD000FD1F6491662341F080EB92E00E94920534
:100BE000892B11F02196F2CFCE01DF91CF911F9189
:100BF0000F910895CF93DF93EC01888D8823B9F08E
:100C0000AA89BB89E889F9898C9185FD03C0808117
:100C100086FD0DC00FB607FCF7CF8C9185FFF2CF94
:100C2000808185FFEDCFCE010E947005E9CFDF9175
:100C3000CF910895CF93CFB7F89480918902811115
:100C400024C0E9EDF6E08491EDEEF6E09491E82F12
:100C5000F0E0EE0FFF1FEB53F94FA591B491EC912B
:100C6000E92321F461E08AE00E94C6038AE00E9441
:100C7000A7038CB580618CBD8CB580648CBD8DE084
:100C80000E94A7038BE00E94A703809189028F5FD7
:100C900080938902CFBFCF9108950F931F93CF9375
:100CA000DF93EC018B01909388028093870270930D
:100CB000860260938502039734F461E08EE00E941F
:100CC000C60360E008C060E08EE00E94C60361E0F9
:100CD000CA35D105B4F388E00E94C603023011057D
:100CE00009F448C08AE08C9F90018D9F300D11243B
:100CF000293E83E0380714F028EE33E037FF02C0C6
:100D000030E020E0E8E0F1E0D0E0C0E04081518157
:100D1000241735072CF1428153814217530704F100
:100D200083E0CC0FDD1F8A95E1F7FE01E85FFE4FFF
:100D30008481958161E0019709F060E080E10E9483
:100D4000C603C85FDE4F8E819F8161E0019709F085
:100D500060E08FE0DF91CF911F910F910C94C6035B
:100D600021963896C832D10589F6DF91CF911F912F
:100D70000F91089560E080E10E94C603E9CF4F9291
:100D80005F926F927F928F929F92AF92BF92CF921B
:100D9000DF92EF92FF92CF93DF93CDB7DEB76497E8
:100DA0000FB6F894DEBF0FBECDBF7C0180E180930B
:100DB000810060E089E00E94C60360E085E00E9457
:100DC000C60360E086E00E94C60360E083E00E9404
:100DD000C603F0929002E0928F021E141F040CF0E2
:100DE000D8C1B701FF0C880B990B0E94101220E0AC
:100DF00030E040E752E40E942C1120E030E040E077
:100E00005FE30E945D139B01AC0160E070E080E84D
:100E10009FE30E942C1120E030E04AE754E40E9456
:100E20005D136B017C016091910270919202072E1B
:100E3000000C880B990B0E9410129B01AC010E94C0
:100E4000BB1020E030E044E354E40E942C11A701E1
:100E500096010E945D132B013C0120E030E040E848
:100E60005EE3C701B6010E945D1369877A878B87AD
:100E70009C8720E030E040E05FE3C701B6010E94BC
:100E80005D136D877E878F87988B20E030E040E48C
:100E90005FE3C701B6010E945D13698B7A8B8B8B70
:100EA0009C8B20E030E0A901C301B2010E94BB107D
:100EB00069837A838B839C839B01AC01C701B60154
:100EC0000E94271187FF0CC0A701960169817A81D2
:100ED0008B819C810E94BA1069837A838B839C8367
:100EE00029853A854B855C85C301B2010E94BB1000
:100EF0006D837E838F8398879B01AC01C701B60108
:100F00000E94271187FF0CC0A70196016D817E8189
:100F10008F8198850E94BA106D837E838F83988716
:100F20002D853E854F855889C301B2010E94BB10B3
:100F30004B015C01AC019B01C701B6010E94271166
:100F400087FF08C0A7019601C501B4010E94BA102D
:100F50004B015C0129893A894B895C89C301B20143
:100F60000E94BB102B013C01AC019B01C701B601E3
:100F70000E94271187FF08C0A7019601C301B20193
:100F80000E94BA102B013C0110925F0210925E0287
:100F9000A5019401C701B6010E94BA1020E030E01B
:100FA0004AE754E40E945D130E94D8116B017093CC
:100FB00061026093600287E090E090936302809307
:100FC000620220E030E04AE754E4C301B2010E942B
:100FD0005D130E94D811709365026093640282E0F1
:100FE00090E09093670280936602A3019201698565
:100FF0007A858B859C850E94BA1020E030E04AE714
:1010000054E40E945D130E94D811709369026093AA
:10101000680281E090E090936B0280936A022985D8
:101020003A854B855C8569817A818B819C810E94A0
:10103000BA1020E030E04AE754E40E945D130E94B9
:10104000D81170936D0260936C0284E090E09093ED
:101050006F0280936E0229813A814B815C816D859C
:101060007E858F8598890E94BA1020E030E04AE79B
:1010700054E40E945D130E94D81170937102609332
:10108000700283E090E090937302809372022D854A
:101090003E854F8558896D817E818F8198850E941C
:1010A000BA1020E030E04AE754E40E945D130E9449
:1010B000D811709375026093740286E090E090936B
:1010C0007702809376022D813E814F815885698910
:1010D0007A898B899C890E94BA1020E030E04AE727
:1010E00054E40E945D130E94D811709379026093BA
:1010F000780285E090E090937B0280937A022989C0
:101100003A894B895C89C501B4010E94BA1020E07C
:1011100030E04AE754E40E945D130E94D8117093B6
:101120007D0260937C0210927F0210927E029601F3
:10113000A0EAB0E00E9497106B017C0124E130E04E
:1011400040E050E00E946F102115310581E0480712
:101150005105A0F581E080938C0230938B0220939F
:101160008A0280918A0290918B02909387008093EB
:10117000860080918C0280618093810010928100B2
:10118000109285001092840080918C02806180937F
:10119000810064960FB6F894DEBF0FBECDBFDF911D
:1011A000CF91FF90EF90DF90CF90BF90AF909F9046
:1011B0008F907F906F905F904F90089582E0809322
:1011C0008C02C701B60120EA30E040E050E00E9406
:1011D0006F10C3CF8F929F92AF92BF920F931F93C6
:1011E000CF93DF93CDB7DEB7A1970FB6F894DEBFEC
:1011F0000FBECDBF19A2423008F44AE08E010F5D48
:101200001F4F842E912CB12CA12CA50194010E947A
:101210006F10E62FB901CA01EA3044F5E05DD8014C
:10122000EE938D01232B242B252B79F790E080E082
:10123000109769F0FD0101900020E9F73197AF01A7
:101240004A1B5B0BBD0180EB92E00E94F204A19669
:101250000FB6F894DEBF0FBECDBFDF91CF911F91C7
:101260000F91BF90AF909F908F900895E95CD7CF7A
:1012700042E050E06AE572E080EB92E00C94F20408
:10128000CF93DF930E94DF05EC010E9438098C0F99
:101290009D1FDF91CF910895CF92DF92EF92FF9241
:1012A000CF93DF936C01990FEE08FF08F7FE19C08A
:1012B0006DE280EB92E00E949205EC0166277727B1
:1012C000CB016C197D098E099F094AE00E94EA084A
:1012D0008C0F9D1FDF91CF91FF90EF90DF90CF900B
:1012E00008954AE0C701B601DF91CF91FF90EF90DA
:1012F000DF90CF900C94EA087F928F929F92AF92EA
:10130000BF92CF92DF92EF92FF920F931F93CF93F2
:10131000DF930E94380900918F0210919002C090D3
:101320009502D0909602E0908702F090880280901B
:10133000850290908602A0908102B0908202709007
:101340008002C0919102D091920283E494E00E94C5
:10135000DF05C5010E944C0984E394E00E94DF058B
:10136000C6010E944C0985E294E00E94DF05C70196
:101370000E944C0986E194E00E94DF0581E0881616
:10138000910489F182E08816910481F181E194E071
:101390000E94DF0589EF93E00E94DF05C8010E94EB
:1013A0004C098DEE93E00E94DF0588ED93E07720F5
:1013B00011F08BED93E00E94DF058FED93E00E942A
:1013C000DF05CE010E944C09DF91CF911F910F9153
:1013D000FF90EF90DF90CF90BF90AF909F908F9055
:1013E0007F900C9438098BE094E0D2CF85E094E0B4
:1013F000CFCF8091990290919A028D30910509F496
:101400008CC04CF48B30910509F460C00CF072C0B4
:10141000892B61F008958F30910509F4A4C00CF474
:101420008FC08436910509F4B1C008950E9438092F
:101430008EEC93E00E94400982EB93E00E94400909
:1014400089EA93E00E9440098FE993E00E944009F5
:1014500080E993E00E94400980E893E00E944009FF
:1014600081E793E00E9440098EE593E00E944009E5
:101470008BE493E00E94400981E393E00E944009DD
:1014800085E193E00E9440098DEF92E00E944009BF
:1014900082EF92E00E9440098BED92E00E944009A9
:1014A00088EC92E00E94400981EB92E00E944009A2
:1014B0008EE992E00E94400984E792E00E94400990
:1014C0000E94380984E592E00C94400982E392E09E
:1014D0000E94DF0590E080E00E944C0980E392E0EA
:1014E0000E94DF058AEF90E00E944C098DE292E0B5
:1014F0000C94DF058FE092E00E94DF0590E080E031
:101500000E944C098DE092E00E94DF0588E790E0A0
:101510000E944C098AE092E0EBCF8AEE91E00E94B3
:10152000DF0584EF91E00E944C0988EE91E00E9473
:10153000DF0584E699E10E944C0985EE91E0D8CF61
:1015400087EC91E00E94DF0590E080E00E944C096A
:1015500085EC91E00E94DF0584E690E00E944C0952
:1015600082EC91E0C5CF8FE991E00E94DF0588E72A
:1015700090E00E944C098DE991E00E94DF058FEA1E
:1015800090E00E944C098AE991E0B2CF83E791E0B4
:10159000AFCF87E591E00E9440098EE491E00E9480
:1015A000DF0581E090E00E944C090E9438098FE23B
:1015B00091E00E9440090C943809209181023091F9
:1015C00082022817390751F090938202809381029A
:1015D00080918D0290918E020C94120408954F9286
:1015E0005F926F927F928F929F92AF92BF92CF92B3
:1015F000DF92EF92FF929C012052310945E0429F19
:10160000C001439F900D112469E070E00E945B10BF
:10161000072E000C880B990B0E94101223E333E96C
:1016200048E853E40E94BB109B01AC0160E070E00D
:1016300080E89FE30E942C119B01AC0169EE7EE9DA
:101640008AEA9AE30E94BA1021EE31EC49E354E3AE
:101650000E942C116B017C01AC019B010E945D1367
:1016600020E030E040E85EE30E945D1321E23EE4CA
:101670004CEE5CE40E94BB100E9420144B015C0104
:1016800020E030E040E05FE3C701B6010E945D1357
:101690006B017C01AC019B01C501B4010E94BA1031
:1016A0002BEA3AEA4AEA5EE30E94CA132B013C01A4
:1016B000A5019401C701B6010E94BB102BEA3AEACA
:1016C0004AEA5EE30E94CA139B01AC01C301B20166
:1016D0000E94BA100E94A6110E94D811CB01FF905F
:1016E000EF90DF90CF90BF90AF909F908F907F90C2
:1016F0006F905F904F900895AF92BF92CF92DF921C
:10170000EF920F931F93CF93DF93EB016A0159017F
:101710000E94BF068091950290919602C817D90742
:1017200051F0D0939602C0939502809193029091CC
:1017300094020E941204B501C6010E944D060F3F9B
:10174000100709F18DE091E00E94DF05C8010E94B9
:101750004C0987E091E00E944009109384020093B5
:101760008302E092800261E0E11001C060E087E066
:10177000DF91CF911F910F91EF90DF90CF90BF90AD
:10178000AF900C94C60380918302909184020196DD
:1017900021F38AEE90E0DFCFEF920F931F93E12CBD
:1017A0000FEF1FEF30E020E050E040E068E470E031
:1017B00090E080E00E947C0B1F910F91EF900895C4
:1017C0001F920F920FB60F9211242F933F938F9376
:1017D0009F93AF93BF938091AC029091AD02A09183
:1017E000AE02B091AF023091AB0223E0230F2D3750
:1017F00058F50196A11DB11D2093AB028093AC0258
:101800009093AD02A093AE02B093AF028091A70275
:101810009091A802A091A902B091AA020196A11DDF
:10182000B11D8093A7029093A802A093A902B09340
:10183000AA02BF91AF919F918F913F912F910F90ED
:101840000FBE0F901F90189526E8230F0296A11D3A
:10185000B11DD2CF1F920F920FB60F9211242F936A
:101860003F934F935F936F937F938F939F93AF9328
:10187000BF93EF93FF9380EB92E00E947005FF917E
:10188000EF91BF91AF919F918F917F916F915F91F8
:101890004F913F912F910F900FBE0F901F90189571
:1018A0001F920F920FB60F9211242F938F939F9335
:1018B000EF93FF93E091C002F091C1028081E0912B
:1018C000C602F091C70282FD1BC090818091C902BF
:1018D0008F5F8F732091CA02821741F0E091C90295
:1018E000F0E0E055FD4F958F8093C902FF91EF9195
:1018F0009F918F912F910F900FBE0F901F90189571
:101900008081F4CF1F920F920FB60F9211242F9364
:101910003F934F935F936F937F938F939F93AF9377
:10192000BF93EF93FF93E0910001F09101010995BE
:10193000FF91EF91BF91AF919F918F917F916F91A7
:101940005F914F913F912F910F900FBE0F901F907D
:101950001895789484B5826084BD84B5816084BD17
:1019600085B5826085BD85B5816085BD80916E003D
:10197000816080936E00109281008091810082606E
:1019800080938100809181008160809381008091AB
:1019900080008160809380008091B100846080939A
:1019A000B1008091B00081608093B00080917A0096
:1019B000846080937A0080917A00826080937A00BC
:1019C00080917A00816080937A0080917A008068AB
:1019D00080937A001092C100E091C002F091C102A0
:1019E00082E08083E091C002F091C1021082E09118
:1019F000BC02F091BD021082E091BE02F091BF02E4
:101A000010E110831092C802E091C402F091C50267
:101A100086E08083E091C202F091C3028081806100
:101A20008083E091C202F091C3028081886080834C
:101A3000E091C202F091C302808180688083E091CE
:101A4000C202F091C30280818F7D808380EB92E09F
:101A50000E94FA050E94C90A10929A0210929902F5
:101A60000E94F90981E10E94A70361E081E10E94DF
:101A7000C60387E00E94A70360E087E00E94C603D8
:101A800089E00E94A70360E089E00E94C60385E028
:101A90000E94A70360E085E00E94C60386E00E94E2
:101AA000A70360E086E00E94C60383E00E94A703CC
:101AB00060E083E00E94C60388E00E94A70360E024
:101AC00088E00E94C6038EE00E94A70360E08EE0DB
:101AD0000E94C60380E10E94A70360E080E10E94AB
:101AE000C6038FE00E94A70360E08FE00E94C60358
:101AF00084E00E94A70360E084E00E94C60382E0C5
:101B00000E94A70360E082E00E94C60383E10E9476
:101B1000A70361E083E10E94C60382E10E94A7035C
:101B200061E082E10E94C60387E090E00E94C51454
:101B3000EC0183E188831A821982C12CDD24D394BD
:101B4000DC82CB821E821D820E941A0688810E943E
:101B5000A70361E088810E94C603D0938E02C093E0
:101B60008D0287E090E00E94C514EC0182E1888339
:101B70001A821982DC82CB821E821D820E941A0682
:101B800088810E94A70361E088810E94C603D093E8
:101B90009402C0939302109381001092800081E020
:101BA00080938C0210928B0210928A02109287000E
:101BB0001092860091E19093810029E534E0309302
:101BC00001012093000180936F001093810087E84A
:101BD00090E090939202809391020E94CC0B88E453
:101BE00090E00E94DD0A90E0C92E90E0D92E2FEA05
:101BF000A22EB12C38E7832E912C44E6642E712C52
:101C000080EB92E00E944205019619F180EB92E090
:101C10000E942E058C01682F80EB92E00E949205B5
:101C20000A301105B1F0C091A502D091A60200338F
:101C30001105CCF0CE0101969093A6028093A502E7
:101C4000C556DD4F0883099721F41092A602109221
:101C5000A502C114D104A1F20E945C05882381F27F
:101C60000E940000CDCF0830110549F41C161D0656
:101C700084F72197D093A602C093A502EACF80EB08
:101C800092E00E94FA05C556DD4F18821092A60216
:101C90001092A50220919B02211107C00E94C90A3F
:101CA00010929A0210929902B2C08091990290917A
:101CB0009A02009709F0B3C08BE992E00E94F90FF5
:101CC000FC013197EF30F10508F0A4C0E659F14F5F
:101CD0000C9491107F0E790E820E930EA30EB30E0C
:101CE000C30ED30EE30EF30E030F030F030F030F08
:101CF000030F0E94CC0B85E996E00E9440090E94E8
:101D00007C09CECFEE24E3940FEF1FEF30E020E00C
:101D100050E040E068E470E090E080E00E947C0BDE
:101D200085E896E0EACFE12C0FE010E030E020E01B
:101D300050E040E068E470E080EB94E00E947C0BAF
:101D400084E796E0DACFE12C0FE010E030E020E00D
:101D500050E040E069EB70E08CEB92E00E947C0B7D
:101D600084E696E0CACFE12C0BE010E021E030E001
:101D70004AEA50E069EB70E088E795E00E947C0B4E
:101D80008DE496E0BACFE12C0BE010E021E030E0EA
:101D90004AEF50E069EB70E088EB9BE00E947C0B1F
:101DA00086E396E0AACFE12C09E010E021E030E0E4
:101DB0004CE251E069EB70E088E097E00E947C0B18
:101DC0008BE196E09ACFE12C07E010E021E030E0D3
:101DD00044EF51E069EB70E08CEA9DE00E947C0BDF
:101DE0008EEF95E08ACFE12C02E010E021E030E0B8
:101DF00046EB53E069EB70E080E797E10E947C0BD3
:101E000085EE95E07ACF90939A02809399020E9492
:101E1000F9091FCF80ED95E00E944009F8CF8D3081
:101E2000910509F45AC0ACF48B30910561F10C971F
:101E300009F00FCF8BE992E00E9417106937710506
:101E400008F445C00E9438090E94380986E595E0EB
:101E500027C08F30910509F457C00CF486C0843632
:101E6000910509F0F6CE2F7D62E070E0253511F482
:101E700061E070E080919702909198020E944D0677
:101E800086E594E03ACF8BE992E00E9417106B3F11
:101E9000710548F00E9438090E9438098FE995E0E1
:101EA0000E944009FDCE209195023091960226179E
:101EB000370751F0709396026093950280919302D8
:101EC000909194020E94120487E895E016CFCB010E
:101ED0000E94DD0A82E495E010CF8BE992E00E9437
:101EE00017109B01245F31402137374138F00E94A1
:101EF00038090E94380981E195E0D2CFCB010E94D8
:101F0000BF0680E095E0F9CE8BE992E00E941710C1
:101F10009B01285731092833310538F00E943809D0
:101F20000E9438098FEC94E0BBCF68377105C4F08C
:101F3000709392026093910280919102909192022B
:101F4000803B910524F0B0929202A0929102809180
:101F50008F02909190020E94BF068BEA94E0CDCE52
:101F60009092920280929102E7CF8BE992E00E94D8
:101F7000171070939802609397026536710538F0D8
:101F80000E9438090E9438098AE794E089CF70924C
:101F90009A02609299023BCFE0EBF2E01382128248
:101FA00088EE93E0A0E0B0E084839583A683B783B6
:101FB0008CE492E09183808385EC90E09587848720
:101FC00084EC90E09787868780EC90E0918B808B03
:101FD00081EC90E0938B828B82EC90E0958B848BEC
:101FE00086EC90E0978B868B118E128E138E148E5A
:101FF0000895FC0188279927E89421912032E9F37C
:10200000293010F02E30C8F32B3241F02D3239F444
:10201000689404C00E945310820F911D2191205397
:102020002A30C0F31EF4909581959F4F08951F9319
:10203000FC0199278827BC01E89411911032E9F33B
:10204000193010F01E30C8F31B3251F01D3249F424
:10205000689406C00E943E10610F711D811D911D84
:10206000119110531A30B0F33EF49095809570950D
:1020700061957F4F8F4F9F4F1F910895592F482F84
:10208000372F262F660F771F881F991F660F771F20
:10209000881F991F620F731F841F951F660F771F7C
:1020A000881F991F08957AE0979F902D879F802D14
:1020B000910D1124089597FB072E16F4009407D074
:1020C00077FD09D00E94A61007FC05D03EF490953C
:1020D00081959F4F0895709561957F4F0895A1E276
:1020E0001A2EAA1BBB1BFD010DC0AA1FBB1FEE1F92
:1020F000FF1FA217B307E407F50720F0A21BB30BDD
:10210000E40BF50B661F771F881F991F1A9469F758
:1021100060957095809590959B01AC01BD01CF01B4
:102120000895EE0FFF1F0590F491E02D0994A29FF2
:10213000B001B39FC001A39F700D811D1124911D9B
:10214000B29F700D811D1124911D0895AA1BBB1B08
:1021500051E107C0AA1FBB1FA617B70710F0A61BA7
:10216000B70B881F991F5A95A9F780959095BC01C8
:10217000CD0108955058BB27AA270E94D2100C9475
:10218000AD120E949F1238F00E94A61220F039F47E
:102190009F3F19F426F40C9475120EF4E095E7FBBA
:1021A0000C946F12E92F0E94BE1258F3BA176207FF
:1021B00073078407950720F079F4A6F50C94E012D4
:1021C0000EF4E0950B2EBA2FA02D0B01B901900152
:1021D0000C01CA01A0011124FF27591B99F0593F96
:1021E00050F4503E68F11A16F040A22F232F342FDE
:1021F0004427585FF3CF469537952795A795F0402C
:102200005395C9F77EF41F16BA0B620B730B840B40
:10221000BAF09150A1F0FF0FBB1F661F771F881FF8
:10222000C2F70EC0BA0F621F731F841F48F4879550
:1022300077956795B795F7959E3F08F0B0CF939542
:10224000880F08F09927EE0F9795879508950E94BB
:102250004B1208F481E008950E9440110C94AD12D5
:102260000E94A61258F00E949F1240F029F45F3F8E
:1022700029F00C946F1251110C94E1120C94751208
:102280000E94BE1268F39923B1F3552391F3951B75
:10229000550BBB27AA2762177307840738F09F5F87
:1022A0005F4F220F331F441FAA1FA9F335D00E2EF4
:1022B0003AF0E0E832D091505040E695001CCAF761
:1022C0002BD0FE2F29D0660F771F881FBB1F261724
:1022D00037074807AB07B0E809F0BB0B802DBF01FB
:1022E000FF2793585F4F3AF09E3F510578F00C94CA
:1022F0006F120C94E1125F3FE4F3983ED4F386959D
:1023000077956795B795F7959F5FC9F7880F911DEA
:102310009695879597F90895E1E0660F771F881FD6
:10232000BB1F621773078407BA0720F0621B730B89
:10233000840BBA0BEE1F88F7E095089529F416F088
:102340000C946F120C94E0120C9475120E94C61239
:10235000A8F39638A0F707F80F92E8942BE33AEA2F
:1023600048EB5FE70E9473130F920F920F924DB7E5
:102370005EB70F920E942913E8E6F0E00E947812FF
:102380004F915F91EF91FF91E595EE1FFF1F49F08F
:10239000FE57E0684427EE0F441FFA95E1F7419598
:1023A000550B0E94F3120F9007FE0C94E71208954C
:1023B0000E94DF116894B1110C94E11208950E94FB
:1023C000C61288F09F5798F0B92F9927B751B0F0EF
:1023D000E1F0660F771F881F991F1AF0BA95C9F7A9
:1023E00014C0B13091F00E94E012B1E008950C9455
:1023F000E012672F782F8827B85F39F0B93FCCF308
:10240000869577956795B395D9F73EF49095809525
:10241000709561957F4F8F4F9F4F0895E89409C045
:1024200097FB3EF490958095709561957F4F8F4F07
:102430009F4F9923A9F0F92F96E9BB279395F6951D
:10244000879577956795B795F111F8CFFAF4BB0F9B
:1024500011F460FF1BC06F5F7F4F8F4F9F4F16C0FF
:10246000882311F096E911C0772321F09EE8872F89
:10247000762F05C0662371F096E8862F70E060E045
:102480002AF09A95660F771F881FDAF7880F9695BE
:10249000879597F90895990F0008550FAA0BE0E862
:1024A000FEEF16161706E807F907C0F01216130616
:1024B000E407F50798F0621B730B840B950B39F456
:1024C0000A2661F0232B242B252B21F408950A26BC
:1024D00009F4A140A6958FEF811D811D089597F9FC
:1024E0009F6780E870E060E008959FEF80EC0895BA
:1024F000DF93CF931F930F93FF92EF92DF927B01B5
:102500008C01689406C0DA2EEF010E947013FE0160
:10251000E894A5912591359145915591A6F3EF0148
:102520000E94D210FE019701A801DA9469F7DF90AA
:10253000EF90FF900F911F91CF91DF9108950024AC
:102540000A941616170618060906089500240A9418
:1025500012161306140605060895092E0394000C9E
:1025600011F4882352F0BB0F40F4BF2B11F460FF2D
:1025700004C06F5F7F4F8F4F9F4F089557FD905856
:10258000440F551F59F05F3F71F04795880F97FB37
:10259000991F61F09F3F79F08795089512161306F1
:1025A0001406551FF2CF4695F1DF08C01616170620
:1025B0001806991FF1CF8695710561050894089555
:1025C000E894BB2766277727CB0197F908959B01ED
:1025D000AC0160E070E080E89FE30C942C110C9457
:1025E0006F120C9460140E94C612D8F39923C9F399
:1025F000940F511DA3F39150504094F059F088234B
:1026000032F0660F771F881F91505040C1F79E3FF0
:1026100051052CF7880F911D9695879597F9089588
:102620005F3FACF0983E9CF0BB2786957795679509
:10263000B79508F4B1609395C1F7BB0F58F711F443
:1026400060FFE8CF6F5F7F4F8F4F9F4FE3CF0C94BA
:10265000E112FA01DC01AA0FBB1F9B01AC01BF57BD
:1026600028F4222733274427507820C0B75190F40C
:10267000AB2F0024469537952795011CA395D2F3DF
:10268000002071F0220F331F441FB395DAF30ED0F0
:102690000C94BA1061307105A0E88A07B94630F48D
:1026A0009B01AC016627772788279078309621F028
:1026B000208331834283538308950E9470130C94C6
:1026C000AD120E949F1238F00E94A61220F09523AE
:1026D00011F00C946F120C94751211240C94E112E9
:1026E0000E94BE1270F3959FC1F3950F50E0551FE5
:1026F000629FF001729FBB27F00DB11D639FAA2757
:10270000F00DB11DAA1F649F6627B00DA11D661FA5
:10271000829F2227B00DA11D621F739FB00DA11DC6
:10272000621F839FA00D611D221F749F3327A00D80
:10273000611D231F849F600D211D822F762F6A2F1C
:1027400011249F5750409AF0F1F088234AF0EE0F81
:10275000FF1FBB1F661F771F881F91505040A9F7AE
:102760009E3F510580F00C946F120C94E1125F3F74
:10277000E4F3983ED4F3869577956795B795F795EA
:10278000E7959F5FC1F7FE2B880F911D9695879562
:1027900097F90895FA01EE0FFF1F309621053105D4
:1027A000A1F16115710561F48038BFE39B0749F120
:1027B00068949038810561F08038BFEF9B0741F045
:1027C00099234AF5FF3FE1053105210519F1E89408
:1027D0000894E795D901AA2329F4AB2FBE2FF85FFF
:1027E000D0F310C0FF5F70F4A695E0F7F73950F012
:1027F00019F0FF3A38F49F779F930DD00F9007FCA4
:102800009058089546F00C94751260E070E080E8EE
:102810009FE308954FE79F775F934F933F932F93E5
:102820000E947D142F913F914F915F910E945D1303
:102830000C94A61119F416F40C9475120C946014EF
:102840000E94C612B8F39923C9F3B6F39F57550BEC
:1028500087FF0E946E140024A0E640EA9001805891
:102860005695979528F4805C660F771F881F20F097
:1028700026173707480730F4621B730B840B202997
:1028800031294A2BA69517940794202531254A27EC
:1028900058F7660F771F881F20F02617370748075D
:1028A00030F4620B730B840B200D311D411DA0957C
:1028B00081F7B901842F9158880F969587950895CF
:1028C0009F3F31F0915020F4879577956795B795A4
:1028D000880F911D9695879597F9089591505040CE
:1028E000660F771F881FD2F7089516F00C946014B6
:1028F0000C94751268940C946F120E94C612A8F37F
:102900009923C1F3AEF3DF93CF931F930F93FF92FD
:10291000C92FDD2788232AF02197660F771F881F8C
:10292000DAF720E030E040E85FEB9FE3883920F001
:10293000803E38F021968F770E94BB10E0E9F0E0EE
:1029400004C00E94BB10EDEBF0E00E9478128B01F6
:10295000BE01EC01FB2E6F5771097595771F880B2F
:10296000990B0E94101228E132E741E35FE30E94D5
:102970007013AF2D9801AE01FF900F911F91CF9171
:10298000DF910E94D2100C94AD120F931F93CF933E
:10299000DF938230910510F482E090E0E0914F03E4
:1029A000F091500330E020E0B0E0A0E0309799F4DF
:1029B0002115310509F44AC0281B390B2430310593
:1029C000D8F58A819B816115710589F1FB0193839B
:1029D0008283FE0111C04081518102811381481719
:1029E0005907E0F04817590799F4109761F01296CB
:1029F0000C93129713961C933296CF01DF91CF91CF
:102A00001F910F91089500934F0310935003F4CF3B
:102A10002115310551F04217530738F0A901DB01A8
:102A20009A01BD01DF01F801C1CFEF01F9CF909309
:102A3000500380934F03CDCFFE01E20FF31F81932C
:102A400091932250310939832883D7CF20914D03A8
:102A500030914E03232B41F4209104013091050164
:102A600030934E0320934D032091020130910301D6
:102A70002115310541F42DB73EB740910601509123
:102A80000701241B350BE0914D03F0914E03E21733
:102A9000F307A0F42E1B3F0B2817390778F0AC0181
:102AA0004E5F5F4F2417350748F04E0F5F1F50935E
:102AB0004E0340934D03819391939FCFF0E0E0E06C
:102AC0009CCFCF93DF930097E9F0FC0132971382FC
:102AD0001282A0914F03B0915003ED0130E020E04D
:102AE0001097A1F420813181820F931F20914D0313
:102AF00030914E032817390709F061C0F0934E0357
:102B0000E0934D03DF91CF910895EA01CE17DF07DF
:102B1000E8F54A815B819E0141155105B1F7E90154
:102B2000FB83EA8349915991C40FD51FEC17FD0728
:102B300061F4808191810296840F951FE901998348
:102B40008883828193819B838A83F0E0E0E0129600
:102B50008D919C9113970097B9F52D913C91119708
:102B6000CD010296820F931F20914D0330914E03A9
:102B70002817390739F6309751F510925003109203
:102B80004F03B0934E03A0934D03BCCFD383C283B6
:102B900040815181840F951FC817D90761F44E5F9A
:102BA0005F4F88819981480F591F518340838A81E3
:102BB0009B81938382832115310509F0B0CFF09377
:102BC0005003E0934F039ECFFD01DC01C0CF138281
:082BD0001282D7CFF894FFCF69
:102BD80058040000510380000000170000000100A5
:102BE80018002E00000000002F0045000100000022
:102BF80046005C00000000005D007300000001005A
:102C080074008A00000000008B00A2000100000090
:102C1800A300B90000000000BA00D00000000100C5
:102C2800D100E70000000000E800FE0001000000FD
:102C3800FF0015010000000000012C010000010048
:102C48002D0143010000000044015A010100000069
:102C58005B017101000000007201880100000100A1
:102C680089019F0100000000A001B60101000000D9
:102C7800B701CE0100000000CF01E501000001000E
:102C8800E601FC0100000000FD0113020100000044
:102C980014022A02000000002B0241020000010079
:102CA800420258020000000059026F0201000000B1
:102CB800700286020000000087029D0200000100E9
:102CC8009E02B40200000000B502CB020100000021
:102CD800CC02E20200000000E302FA020000010058
:102CE800FB0211030000000012032803010000008A
:102CF80029033F03000000004003560300000100C1
:102D080057036D03000000006E03840301000000F8
:102D18008503E80301000000000000009205F204AA
:0E2D28001F05FA0550052E0542050D0A000094
:00000001FF
