:100000000C94BC000C94E4000C94E4000C94E40008
:100010000C94E4000C94E4000C94E4000C94E400D0
:100020000C94E4000C94E4000C94E4000C94E400C0
:100030000C94E4000C94E4000C94E4000C94E400B0
:100040000C945B020C94E4000C94CB020C94A5027B
:100050000C94E4000C94E4000C94E4000C94E40090
:100060000C94E4000C94E400456E746572206120E9
:100070006E756D62657220616E6420707265737357
:1000800020456E7465723A002020342E205365742A
:1000900020636F6F6C616E742074656D70004375C2
:1000A00073746F6D697A653A002020332E20486F93
:1000B000742069646C65002020322E20436F6C64CC
:1000C0002069646C6500507265736574733A002032
:1000D00020312E2053686F772063757272656E74BD
:1000E0002073657474696E6773004D41494E204DED
:1000F000454E5500456E746572206E657720636FBE
:100100006F6C616E742074656D7020696E2064651B
:100110006720462028302D323530293A00456E6759
:10012000696E65206973206F666600284329206127
:100130006E64794062726974697368696465617339
:100140002E636F6D20323032310056657273696FE5
:100150006E20004D657263656465732056382042D9
:100160006F73636820444A65742045435520546585
:100170007374657200001D0411241FBECFEFD8E018
:10018000DEBFCDBF11E0A0E0B1E0E0EFF8E002C0DB
:1001900005900D92A433B107D9F721E0A4E3B1E0B3
:1001A00001C01D92A83EB207E1F710E0CCEBD0E011
:1001B00004C02197FE010E947004CB3BD107C9F710
:1001C0000E94FD020C9476040C940000AF92BF9242
:1001D000CF92DF92EF92FF920F931F93CF93DF9313
:1001E0006C017B018B01040F151FEB015E01AE1842
:1001F000BF08C017D10759F06991D601ED91FC9164
:100200000190F081E02DC6010995892B79F7C50190
:10021000DF91CF911F910F91FF90EF90DF90CF90E2
:10022000BF90AF900895FC01538D448D252F30E091
:10023000842F90E0821B930B541710F0CF960895F3
:1002400001970895FC01918D828D981761F0A28D20
:10025000AE0FBF2FB11D5D968C91928D9F5F9F73E6
:10026000928F90E008958FEF9FEF0895FC01918D9C
:10027000828D981731F0828DE80FF11D858D90E009
:1002800008958FEF9FEF0895FC01918D228D892FA6
:1002900090E0805C9F4F821B91098F73992708958E
:1002A0008BE491E00E94440121E0892B09F420E0D5
:1002B000822F089580E090E0892B29F00E94500160
:1002C00081110C9400000895FC01A48DA80FB92F92
:1002D000B11DA35ABF4F2C91848D90E001968F736E
:1002E0009927848FA689B7892C93A089B1898C918D
:1002F000837080648C93938D848D981306C00288DC
:10030000F389E02D80818F7D80830895EF92FF92A5
:100310000F931F93CF93DF93EC0181E0888F9B8D28
:100320008C8D98131AC0E889F989808185FF15C0E2
:100330009FB7F894EE89FF896083E889F989808105
:100340008370806480839FBF81E090E0DF91CF91D4
:100350001F910F91FF90EF900895F62E0B8D10E0F6
:100360000F5F1F4F0F731127E02E8C8D8E110CC065
:100370000FB607FCFACFE889F989808185FFF5CFB0
:10038000CE010E946401F1CFEB8DEC0FFD2FF11D2A
:10039000E35AFF4FF0829FB7F8940B8FEA89FB89ED
:1003A00080818062CFCF0F931F93CF93DF938C0117
:1003B000D0E0C0E0F801EC0FFD1F6491662341F02E
:1003C0008BE491E00E948601892B11F02196F2CFF7
:1003D000CE01DF91CF911F910F910895CF93DF93BD
:1003E000EC01888D8823B9F0AA89BB89E889F9894D
:1003F0008C9185FD03C0808186FD0DC00FB607FC82
:10040000F7CF8C9185FFF2CF808185FFEDCFCE01B4
:100410000E946401E9CFDF91CF910895FC01019022
:100420000020E9F73197AF01481B590BBC018BE461
:1004300091E00C94E60082E191E00C940E02CF93DF
:10044000DF930E94D301EC010E941B028C0F9D1FC1
:10045000DF91CF91089580913401909135010097FB
:1004600019F0049729F108950E941B028AEE90E08A
:100470000E941F028FEC90E00E941F0286EC90E029
:100480000E941F0287EB90E00E941F0289EA90E021
:100490000E941F028EE990E00E941F0288E890E00F
:1004A0000E941F020E941B0288E690E00C941F022B
:1004B00084EF90E0FBCF1F920F920FB60F921124A2
:1004C0002F933F938F939F93AF93BF938091470157
:1004D00090914801A0914901B0914A0130914601A3
:1004E00023E0230F2D3758F50196A11DB11D209350
:1004F00046018093470190934801A0934901B0932E
:100500004A018091420190914301A0914401B09130
:1005100045010196A11DB11D8093420190934301B5
:10052000A0934401B0934501BF91AF919F918F91EA
:100530003F912F910F900FBE0F901F90189526E8B6
:10054000230F0296A11DB11DD2CF1F920F920FB69D
:100550000F9211242F933F934F935F936F937F9349
:100560008F939F93AF93BF93EF93FF938BE491E0AF
:100570000E946401FF91EF91BF91AF919F918F9184
:100580007F916F915F914F913F912F910F900FBE8F
:100590000F901F9018951F920F920FB60F92112473
:1005A0002F938F939F93EF93FF93E0915B01F091D3
:1005B0005C018081E0916101F091620182FD1BC0CC
:1005C0009081809164018F5F8F7320916501821704
:1005D00041F0E0916401F0E0E55BFE4F958F809380
:1005E0006401FF91EF919F918F912F910F900FBE1A
:1005F0000F901F9018958081F4CFCF93DF93CDB7E4
:10060000DEB7A1970FB6F894DEBF0FBECDBF7894CA
:1006100084B5826084BD84B5816084BD85B5826007
:1006200085BD85B5816085BD80916E0081608093B8
:100630006E00109281008091810082608093810021
:100640008091810081608093810080918000816031
:10065000809380008091B10084608093B10080918C
:10066000B00081608093B00080917A0084608093B4
:100670007A0080917A00826080937A0080917A007B
:10068000816080937A0080917A00806880937A00FC
:100690001092C100E0915B01F0915C0182E08083E7
:1006A000E0915B01F0915C011082E0915701F091C3
:1006B00058011082E0915901F0915A0180E1808344
:1006C00010926301E0915F01F091600186E0808308
:1006D000E0915D01F0915E01808180618083E09115
:1006E0005D01F0915E01808188608083E0915D0111
:1006F000F0915E01808180688083E0915D01F091DE
:100700005E0180818F7D80838BE491E00E94EE0109
:1007100083E591E00E941F028AE491E00E94D301E8
:1007200019A281E388A3CE0180960E940E020E9446
:100730001B028BE291E00E941F020E941B028DE1CE
:1007400091E00E941F0210923501109234010E9424
:100750002B0280E0E82E80E0F82E8BE491E00E94EE
:100760003601019621F18BE491E00E9422018C0177
:100770008A309105E1F0682F8BE491E00E948601B8
:100780008091400190914101FC01EA5CFE4F6F01B4
:1007900000331105B4F0019690934101809340011C
:1007A0000083099721F41092410110924001E11455
:1007B000F10499F20E945001882379F20E9400000E
:1007C000CCCF8BE491E00E94EE01F60110821092F2
:1007D00041011092400180913601811105C01092B3
:1007E00035011092340114C080913401909135018B
:1007F0000097D1F486E391E00E944A04813091058C
:1008000051F08430910599F690933501809334012D
:100810000E942B02CCCF0E941B0285E191E00E9436
:100820000E020E941B02DBCF049709F680E291E0E2
:100830000E940E0286E391E0F2CFEBE4F1E0138236
:10084000128288EE93E0A0E0B0E084839583A683D3
:10085000B78384E091E09183808385EC90E0958775
:10086000848784EC90E09787868780EC90E0918B7A
:10087000808B81EC90E0938B828B82EC90E0958B67
:10088000848B86EC90E0978B868B118E128E138E64
:10089000148E0895FC0188279927E894219120322D
:1008A000E9F3293010F02E30C8F32B3241F02D320D
:1008B00039F4689404C00E946804820F911D21914C
:1008C00020532A30C0F31EF4909581959F4F0895D0
:1008D0007AE0979F902D879F802D910D1124089588
:1008E000EE0FFF1F0590F491E02D0994F894FFCFCF
:1008F000000000008601E6001301EE014401220120
:1009000036010D0A003C73657474696E67733E00AE
:100910004E657720636F6F6C616E742074656D70C7
:040920003A20000079
:00000001FF
